:020000040800F2
:10000000589C00209D010008EF1800085F180008A8
:10001000ED18000815030008312D0008000000004D
:10002000000000000000000000000000D7290008C8
:100030000D050008000000000B020008292A000836
:10004000B7010008B7010008B7010008B7010008B0
:10005000B7010008B7010008B7010008B7010008A0
:10006000B7010008B7010008B7010008B701000890
:10007000B7010008B7010008B7010008B701000880
:10008000B7010008B7010008B7010008B701000870
:1000900019030008B7010008B7010008B7010008FC
:1000A000B7010008B7010008B7010008B701000850
:1000B000952A0008A12A0008AD2A0008B701000807
:1000C000B7010008B7010008B7010008B701000830
:1000D000B70100080D2D0008B7010008192D000810
:1000E0000F050008B7010008B7010008B7010008B4
:1000F000B7010008B7010008B7010008B701000800
:10010000B7010008B7010008B92A0008B7010008C4
:10011000852B0008912B0008B7010008B7010008E3
:10012000B7010008B7010008B7010008B7010008CF
:10013000B7010008B7010008B7010008B7010008BF
:10014000B701000825030008B7010008B70100083F
:10015000B7010008B7010008B7010008252D000805
:10016000B7010008B7010008B7010008B70100088F
:10017000B7010008B7010008B7010008000000003F
:10018000B7010008B7010008DFF80CD000F082F8D2
:100190000048004709350008589C00200648804761
:1001A00006480047FEE7FEE7FEE7FEE7FEE7FEE75C
:1001B000FEE7FEE7FEE7FEE74D2A0008890100089A
:1001C000EFF3108072B6704780F3108870471F48B5
:1001D0004FF0FF010170002080F309881C4801687E
:1001E00081F308881B48012101701B484FF08051A2
:1001F000016062B6FEE718484FF080510160704719
:1002000015484FF080510160704772B6EFF30980D6
:1002100028B1203880E8F00F10490968086000B55F
:100220000F4880475DF804EB0E480F490A780270CA
:100230000A480E490A680260106890E8F00F203002
:1002400080F309884EF0040E62B6704722ED00E09C
:10025000480000205300002004ED00E06C00002066
:10026000E920000850000020510000207400002008
:1002700040EA01039B0703D009E008C9121F08C028
:10028000042AFAD203E011F8013B00F8013B521EA8
:10029000F9D27047064C074D06E0E06840F00103D4
:1002A00094E8070098471034AC42F6D3FFF770FF8C
:1002B000543D0008743D000870B501EB020410F8CD
:1002C000015B15F0070301D110F8013B2A1106D19B
:1002D00010F8012B03E010F8016B01F8016B5B1EB5
:1002E000F9D12B0705D40023521E0FD401F8013B8E
:1002F000FAE710F8013B02F10202A1EB030303E06D
:1003000013F8015B01F8015B521EF9D5A142D6D367
:10031000002070BD70470000014800F0A7B9000040
:10032000EC4D0020014800F0A1B900002C4E002047
:1003300010B54FF4D872036802EB01129B5813F00A
:100340000404436B9C600468436BA45857D0E408D2
:100350005C6003689A58436B02F00202DA604FF463
:10036000DA72036802EB01129B58446B03F00F032F
:10037000236103689A58436BC2F307225A634FF410
:10038000DC72036802EB01129B58446BDBB26361C1
:1003900003689B58446BC3F30723A36103689B580E
:1003A000446BC3F30743E36103689A58436B120E2F
:1003B0001A624FF4DE72036802EB01129B58446B21
:1003C000DBB2636203689B58446BC3F30723A362E9
:1003D00003689B58446BC3F30743E36203689A586E
:1003E000436B120E00291A6301680BD00A6942F0B0
:1003F00020020A6190F83810222908D020E0640D0C
:100400001C60A6E7CA6842F02002CA60F2E70168F1
:100410004A6922F480724A6101684A6922F40072D2
:100420004A6101684A6922F480624A6101684A6946
:1004300022F400624A6101684A6922F400424A617A
:1004400090F83810322907D05FF0010180F8381099
:1004500000F092F9002010BD1221F7E710B50168F5
:100460004A6922F001024A6190F83810122918D125
:1004700001684A6922F480724A6101684A6922F47B
:1004800000724A6101684A6922F480624A61016827
:100490004A6922F400624A6101684A6922F4004212
:1004A0004A6190F83810322906D0012180F83810BE
:1004B00000F0B2F9002010BD2221F7E77FB5124805
:1004C000C82301784A1CB2FBF3F403FB14229142C7
:1004D00018D000EB0111009B4B6001789DF80430AF
:1004E00000EB01116C460B72002108E006786518DC
:1004F00000EB06160E446D79491C7572C9B28B4229
:10050000F4D802707FBD00005C4F002070474FF4AC
:10051000804000F0BFB900002DE9F0414A48016871
:1005200041F001010160016841F0020101600168D0
:1005300041F004010160016841F0080101600168B7
:1005400041F010010160016841F020010160016883
:1005500041F0400101603D4C48F250000125C4E9E2
:1005600000050226DFF8E880C4E90256214640462D
:1005700000F09CF920200027C4E90007C4E90256D6
:100580002146404600F092F91A20C4E90005DFF840
:10059000C480C4E902562146404600F087F9012292
:1005A0000221404600F078FA4FF44170C4E900059A
:1005B000DFF8A480C4E9025601220421404600F07D
:1005C0006BFA2146404600F071F9012204214046B1
:1005D00000F062FA41F20800C4E90005C4E90256DD
:1005E00021461E4800F062F92820C4E90005DFF822
:1005F0007080C4E902562146404600F057F91020A9
:10060000C4E90007C4E902562146404600F04EF90D
:100610004FF48F40C4E90005124FC4E90256214649
:10062000384600F043F901229102384600F034FACE
:100630004FF40D70C4E90005C4E902562146BDE837
:10064000F041094800F032B930380240844B0020B4
:10065000000002400004024000080240000C02407A
:1006600000100240001402400018024070B5044619
:1006700000684169C943C90714D18268264991437A
:1006800043D000218368254A9A4340D000228368E2
:10069000234898433DD000201143014302D0204617
:1006A000FFF7DCFE2068C168406911F0030FC0F35A
:1006B000400004D018B100212046FFF739FE206821
:1006C0000169406911F0030FC0F3001004D018B1A4
:1006D00001212046FFF72CFE2068C068114DC0F3B1
:1006E000C00020B100228021284600F0D5F9206802
:1006F000C068C0F3001000280DD02846BDE8704047
:1007000000224FF4807100F0C7B90121BAE701223D
:10071000BDE70120C0E770BD03000004000300082E
:10072000000003100014024090F83820012A01D084
:10073000122A1ED190F83920012A1AD0012280F8FD
:10074000392090F83820122A0ED0222280F8382042
:10075000002280F8392000680029416906D041F064
:1007600010014161002070473222EFE741F00201A1
:10077000F7E70220704700002DE9F041416B044685
:10078000886804283AD11E4A206800271D4D142687
:10079000904218D11C484A68026009690171EF70E3
:1007A000E978626B06EB8103D2584318491CC9B241
:1007B0005A71E9700829F3D30FC8FFF77FFE0021B3
:1007C0002046FFF7B1FF11492068884216D1606BBF
:1007D0000F49406808600F49EF70E878626B06EBDC
:1007E0008003D2580A54401CC0B2E8700828F4D3E1
:1007F0002046BDE8F0410121FFF796BFBDE8F0813A
:1008000000640040A90000206C4E002000680040F9
:100810005C010020520100207047F0B590F8444080
:100820000023822C24D0822480F844400668346956
:10083000058A04F01C074FF6FF7404EAC5253D4302
:100840004FF4F86707EA8111294321F0020141F0D2
:100850000101316101685B1C0D69ED0701D0A34204
:10086000F9D30125A34205D180F844500320F0BDFF
:100870000220F0BD496989B2116080F8445000201F
:10088000F0BD0000082802D1014802F0CDBC70473D
:10089000984B0020044910B50A68024202D0086053
:1008A000FFF7F0FF10BD0000143C01402DE9F04FB0
:1008B000DFF8B0E100224FF001094FF0030B4FF0D9
:1008C0000F0A00BF0B6809FA02FC03EA0C03634538
:1008D00070D14C68022C01D0122C11D15407D1F8E0
:1008E0001080E50E08FA05F8D40800EB8404276AA6
:1008F0000AFA05F6B7432762256A45EA0805256224
:10090000066855000BFA05F4A64306604E680768B2
:1009100006F00306AE403E4306604E68012E05D049
:10092000022E03D0112E01D0122E13D18668A643B9
:100930008660CE688768AE403E438660466826EA99
:100940000C06466047684E68C6F3001606FA02F6C3
:1009500037434760C668A643C6608C6804FA05F44E
:10096000C5682C43C4604C68E40074D53E4C2568CF
:1009700045F4804525609407270F3C4C22F0030680
:1009800034440AFA07F52668AE432660384DA8427B
:1009900001D100252EE0374DA84201D1012529E0E3
:1009A000354DA84201D1022524E0344DA84202D1A0
:1009B00003251FE04FE0324DA84201D1042519E084
:1009C000304DA84201D1052514E02F4DA84201D198
:1009D00006250FE02D4DA84201D107250AE02C4D38
:1009E000A84201D1082505E02A4DA84201D10925D8
:1009F00000E00A25266805FA07F535432560DEF88C
:100A0000004075469C43CEF80040164C241D2668D5
:100A10009E4326604E68F60302D52E681E432E6064
:100A20004D68AD0302D525681D4325600D4C083483
:100A300025689D432560251D2E689E432E604E68C7
:100A4000F60202D526681E4326604C68A40202D531
:100A50002C681C432C60521C102AFFF433AFBDE8F5
:100A6000F08F0000003C014044380240083801404B
:100A7000000002400004024000080240000C024056
:100A8000001002400014024000180240001C024006
:100A900000200240002402400AB1018370474183D4
:100AA00070470000014800687047000014000020F3
:100AB0000C4810B5016841F400710160016841F40F
:100AC00080610160016841F4807101604FF47A50E7
:100AD00000F01AFB032000F035F800F005F80020C4
:100AE00010BD0000003C0240704700F01F020121D1
:100AF000914040094FF0E02202EB8000C0F8001165
:100B000070470000F0B40E4B1B680D46C3F3022380
:100B1000C3F10706042E00D90426191D072901D2A6
:100B2000002300E0DB1E012404FA06F1491E2940DF
:100B300099409C40641E14402143F0BC00F0D8BE94
:100B40000CED00E0064900F0070208684FF6FF03CD
:100B5000184040EA0220034A104308607047000032
:100B60000CED00E00000FA052DE9F047DFF8B89140
:100B700005460E46D9F800006C4C00F007016B48A2
:100B8000083406F0FF0841F28837B1424DD289F8A7
:100B90000080D9F8001001F00701B14278D129682E
:100BA000890705D52168AA6821F0F0011143216069
:100BB0002968C90725D06968012913D0006802296E
:100BC00013D08007002863DA206820F00300084370
:100BD0002060FFF767FFC619686801280CD002285B
:100BE00014D01DE000688003ECE78001EAE700BF55
:100BF000FFF758FFB0425BD22068C0F381000128A4
:100C0000F6D166E0FFF74EFFB04251D22068C0F344
:100C100081000228F6D15CE0FFF744FFB04247D2E2
:100C2000206810F00C0FF7D153E02968890705D52B
:100C30002168AA6821F0F001114321602968C907E1
:100C40003DD06968012913D00068022913D08007BC
:100C500000283CDA206820F0030008432060FFF7FA
:100C600021FF0744686801280CD0022816D022E032
:100C700000688003ECE78001EAE700BFFFF712FF9E
:100C8000B84215D22068C0F381000128F6D116E0E1
:100C90001DE000BFFFF706FFB84209D22068C0F38D
:100CA00081000228F6D10AE0FFF7FCFEB84202D329
:100CB0000320BDE8F087206810F00C0FF4D189F80C
:100CC0000080D9F8000000F00700B04201D00120F8
:100CD000EFE72868400705D52068E96820F4E05070
:100CE000084320602868000706D52068296920F499
:100CF000604040EAC100206000F01CF84FF47A71B7
:100D0000B0FBF1F0B0F1807F0CD220F07F414FF0CA
:100D1000E020491E4161064AF021117000218161E5
:100D2000072101610020C4E7003C02400038024076
:100D300023ED00E000B500F017F808490968F0223B
:100D400092FAA2F201F0F001B2FA82F2D140044A22
:100D5000515CC8400349086000BD000008380240EB
:100D6000323C00080000002030B51D48006810F03B
:100D70000C011C481AD01C4C042916D0082915D186
:100D80001749091F0A6802F03F030A6802F4800548
:100D90004FF4800292FAA2F2B2FA82F2D54047F6FC
:100DA000C07204D0B4FBF3F003E0204630BDB0FBCA
:100DB000F3F00B680968134092FAA2F2B2FA82F2D9
:100DC000D34058434FF4403292FAA2F201F440313A
:100DD000B2FA82F2D140491C4900B0FBF1F030BDBB
:100DE000083802400024F40040787D012DE9F84FD6
:100DF00004460068DFF8FC92BF4DC0074FF00006C4
:100E000049D0D9F800104846C1F38101012908D022
:100E10000068C0F3810002280AD1281D0068400242
:100E200006D52868800336D56068012874D132E081
:100E3000DFF8C4A20AF1020A8AF80060FFF732FE66
:100E400041F2883700EB070804E000BFFFF72AFEF5
:100E500040457BD228688003F8D460688AF8000097
:100E60006068012803D0FFF71DFE074410E0FFF77C
:100E700019FE074404E000BFFFF714FEB842E8D2B1
:100E800028688003F8D506E0FFF70CFEB842E0D2F0
:100E900028688003F8D42068984F80074FF0010B32
:100EA00043D5D9F80010484611F00C0F09D000685E
:100EB000C0F3810002280BD18E48001F0068400259
:100EC00006D42868800730D5E0680128AED12CE030
:100ED000E068D8B1C7F800B0FFF7E4FD00F164089E
:100EE00004E000BFFFF7DEFD4045B2D2286880076E
:100EF000F8D52868F82292FAA2F22169B2FA82F2B1
:100F000020F0F8009140084328600EE03E60FFF7B3
:100F1000C9FD00F1640805E0EAE000BFFFF7C2FD8B
:100F2000404596D228688007F8D42068000727D566
:100F3000DFF8C0A1724861690AF16C0A89B1C0F892
:100F400000B0FFF7AFFD00F1640805E07EE000BFF0
:100F5000FFF7A8FD404579D2DAF800008007F7D501
:100F60000EE00660FFF79EFD00F1640804E000BF9C
:100F7000FFF798FD404569D2DAF800008007F7D402
:100F80002068400752D55B483830016841F08051F5
:100F90000160DFF870A1DAF8001041F48071CAF83E
:100FA0000010FFF77FFD00F1640803E0FFF77AFD12
:100FB00040454BD2DAF80000C005F7D5DFF83481A0
:100FC00008F1680888F80060FFF76CFD41F2883A84
:100FD0005044009005E000BFFFF764FD009988428F
:100FE0007ED2D8F800008007F6D4A06888F8000008
:100FF000A068012803D0FFF755FD824412E0FFF7F7
:1010000051FD824404E000BFFFF74CFD504567D21C
:10101000D8F800008007F7D508E000BFFFF742FDD1
:1010200050455DD2D8F800008007F7D4A069E8B336
:10103000D9F80010C1F38101022959D002283E6677
:1010400005D0FFF72FFD00F164044CE048E0FFF706
:1010500029FD00F1640603E0FFF724FDB0423FD212
:1010600028688001F8D4D4E90710084347F6C07215
:1010700092FAA2F2616AB2FA82F29140A26A4FF049
:10108000FF3303EB52024FF4403393FAA3F3B3FA66
:1010900083F39A40114308434FF0706292FAA2F230
:1010A000E16AB2FA82F29140084300E01EE040F0AB
:1010B00000511048001F0160C7F860B0FFF7F2FC54
:1010C00000F1640404E000BFFFF7ECFCA04207D28B
:1010D00028688001F8D509E0FFF7E4FCA04202D3BC
:1010E0000320BDE8F88F28688001F5D40020F8E7D8
:1010F0000120F6E70838024000380240000047426D
:10110000800E47420070004010B5B0F1807F01D3DF
:10111000012010BD20F07F404FF0E024401E6061B0
:101120000F21601700F0E4FB0020A0610720206180
:10113000002010BD7047704710B5040003D094F82C
:10114000390010B104E0012010BD204600F00CF879
:10115000022084F83900211D206801F0B3FC012031
:1011600084F83900002010BD70B505460068214C98
:10117000B0F1804F0BD1206840F0010020600022C8
:1011800002211C20FFF7BEFC1C20FFF7AEFC1A4911
:10119000286888420BD1206840F0020020600122BC
:1011A00002211D20FFF7AEFC1D20FFF79EFC134916
:1011B000286888420BD1206840F004002060022299
:1011C00011461E20FFF79EFC1E20FFF78EFC0C49E7
:1011D000286888420DD1206840F008002060032272
:1011E00002213220FFF78EFCBDE870403220FFF76D
:1011F0007CBC70BD40380240000400400008004044
:10120000000C00400168CA6842F00102CA60006830
:10121000016841F001010160002070470168CA685F
:1012200022F00102CA600068016A41F21112114203
:1012300007D1016A9210114203D1016821F0010126
:10124000016000207047704770B50446006801696E
:101250004FF00005C943890717D4C168C9438907FE
:1012600013D4016921F00201016101202076206878
:1012700080698007204602D0FFF7E5FF04E000F018
:10128000A0F8204600F09EF8257620680169C94341
:10129000490718D4C168C943490714D4016921F02A
:1012A00004010161022020762068806910F4407FEB
:1012B000204602D0FFF7C7FF04E000F082F8204686
:1012C00000F080F8257620680169C943090717D422
:1012D000C168C943090713D4016921F008010161FC
:1012E00004202076206880698007204602D0FFF71E
:1012F000AAFF04E000F065F8204600F063F82576C8
:1013000020680169C943C90618D4C168C943C90620
:1013100014D4016921F010010161082020762068B1
:10132000806910F4407F204602D0FFF78CFF04E074
:1013300000F047F8204600F045F82576206801695E
:10134000C943C9070AD1C168C943C90706D10169A0
:1013500021F001010161204600F036F820680169A2
:10136000C94309060AD4C168C943090606D40169FC
:1013700021F0800101612046FFF7DCFE2068016951
:10138000C94349060AD4C168C943490606D401695C
:1013900021F040010161204600F032F92068016926
:1013A000C94389060CD4C168C943890608D40169B8
:1013B00021F0200101612046BDE87040FFF7BBBE6F
:1013C00070BD7047704700002DE9F05F054600686A
:1013D00000220124B0F1804F36D0664988427DD189
:1013E000654BDFF898A1DFF898E11978DFF894B140
:1013F000491C19709AF80010634B491CC9B28AF84D
:101400000010BEF80060DFF884C1761C1FFA86F871
:10141000AEF80080BBF800605D4F761CB6B2ABF84A
:1014200000601C709CF80030B1465B1CDBB28CF88D
:1014300000303E780EB1761E3E701926B3FBF6F7EB
:1014400006FB173303B323E05248534B0178491C82
:10145000C9B201701C70CB0714D1504B1C701423FF
:10146000B1FBF3F503FB1513002B0BD14C4B1C7098
:101470003C23B1FBF3F503FB1511002902D10270E7
:1014800048480470BDE8F09F474B8CF800201C7062
:101490000323B1FBF3F703FB171323BB434B1C7070
:1014A0000A23B1FBF3F703FB1713E3B9404B1C709E
:1014B000B1FBF6F306FB1313ABB93E4B1C703223A2
:1014C000B1FBF3F603FB16136BB93B4B1C706423A3
:1014D000B1FBF3F603FB161129B900E015E037491B
:1014E0000C708AF800203649097801EB8103B8EBCB
:1014F000430F03D1334B1C70AEF80020B9F5FA7FCF
:1015000003D1314B1C70ABF800203049884204D124
:101510002F48FFF783FE2F4804702F492868884220
:10152000B0D12E480088012803D12D4A1188491EC8
:1015300011802C490988012903D12B4A1188491EA1
:101540001180032804D0042804D006280FD005E019
:10155000264900E026490888401E08802548008862
:1015600001288FD124490888401E08808AE7234932
:10157000F1E7000000040040630100204D0100205D
:101580004E0100205001002048010020A900002049
:1015900061010020C4000020C8000020C700002016
:1015A000C6000020C5000020600100204901002085
:1015B000440100204A0100204B0100204C01002082
:1015C000470100204501002046010020000800409E
:1015D000484C002064010020000C00406C010020F9
:1015E0008601002098010020880100208A01002047
:1015F0008C0100209A010020900100208E01002023
:101600007047704710B5044600680168C1F30002D6
:10161000C16801F4807152B149B1016821F0010142
:10162000016094F83A0040F0010084F83A00206824
:1016300001684269C1F3400102F0010251B14AB1AF
:10164000016821F00201016094F83A0040F00400C2
:1016500084F83A00206801684269C1F3800102F011
:10166000010251B14AB1016821F00401016094F80E
:101670003A0040F0020084F83A00206801684269AC
:10168000C1F3C00102F0010251B14AB1016821F079
:101690000801016094F83A0040F0080084F83A002C
:1016A00020680168C068C1F3401100F0200041B11A
:1016B00038B1204601F072FA2068016821F020015B
:1016C000016020680168C068C1F3801100F040002B
:1016D00041B138B1204601F0C7FA2068016821F015
:1016E0004001016094F83A00002805D0012084F8F8
:1016F00039002046FFF785FF10BD90F83930012BE7
:1017000001D0122B2CD139B332B390F83830012BE1
:1017100026D0012380F8383081628285C28500217D
:1017200080F83A1090F83920122A17D0222280F837
:1017300039200268D36843F48073D3600268536928
:1017400043F00103536180F838100068C16841F02C
:101750002001C16000207047012070473222E6E777
:101760000220704770B5044600683249884208D1AB
:101770003148007802F0A0F901222F492046FFF7F6
:10178000BCFF2E4920682E4E002588421BD12E48D2
:101790002C4B327801785A54491CC9B2017018296F
:1017A00000D105702948FFF7C7FC28480068016987
:1017B00021F0010101612548FFF724FD01222049A4
:1017C0002046FFF79AFF22492068884231D1214AFA
:1017D00021493078507091F843301BBB9678012333
:1017E00036B195707F280ED0087081F8403019E02E
:1017F0007F2800D1937091F84020885491F84000E0
:10180000401C81F8400091F84000202802D381F864
:10181000405007E0022805D90A78521C904201D1B5
:1018200081F843302046BDE8704001220449FFF7AB
:1018300064BF70BD00480040FC0100200050004023
:10184000A8000020F05B002062010020484C00202E
:1018500000140140A9000020305C00207047704750
:10186000094D4FF49674012280212846FFF714F9A0
:10187000204600F03BFC002280212846FFF70CF9AF
:10188000204600F033FCEEE7001402400A4C4FF40F
:1018900080764FF4FA75012231462046FFF7FCF8B6
:1018A000284600F023FC002231462046FFF7F4F8DA
:1018B000284600F01BFCEEE7001402400A4C4FF4EF
:1018C00000764FF47A75012231462046FFF7E4F89E
:1018D000284600F00BFC002231462046FFF7DCF8DA
:1018E000284600F003FCEEE7001402407047704702
:1018F0000907090E002803DA00F00F00024A00E091
:10190000024A81547047000014ED00E000E400E05A
:101910007047000070B505460D480E4614468078A5
:1019200008B1122009E02878012808D0022806D042
:10193000032804D0042802D00120107070BDFEF7E7
:101940003FFC6E61FEF740FC0020207070BD00007F
:101950004C00002070B586B000F06AF800F07AFE06
:10196000254800242146847100F134025454491C56
:10197000C9B20829FAD3047144718462046200F088
:1019800079FE00F03BFE00F003FE00F0B5FE00F033
:10199000D9FE80261948CDE901064FF6FF70009068
:1019A00003253F23164A00211648CDE9034500F0E0
:1019B000C1F905AA14A13F2000F0B0FA1648CDE9FC
:1019C00001064FF6FE700D4A00903E23121F0021C3
:1019D0001248CDE9034500F0ADF905AA10A13E205B
:1019E00000F09CFA00F022FC00F034F806B0BDE8EC
:1019F0007040FFF78DBF00004C0000200C3300202A
:101A000008350020ED28000875432F4F532D494914
:101A10002049646C650000000C3100202129000879
:101A200075432F4F532D49492053746174000000B2
:101A300005498020002204C1401EFCD1044803490E
:101A400041600280704700008C2700208829002018
:101A5000440000207047000070B5144CE079012864
:101A600022D1FEF7ADFB0546A07820B1401E10F054
:101A7000FF00A07013D1E07888B900F0A7FE0C48F1
:101A8000617950F82100A0622279914207D0C16BA0
:101A9000491CC163E068401CE060FEF7B1FB2846CA
:101AA000BDE87040FEF790BB70BD00004C00002008
:101AB0000C35002010B5094CE07901280CD1FEF757
:101AC0007FFBA17821B9E178FF2901D2491CE1709F
:101AD000BDE81040FEF778BB10BD00004C000020B0
:101AE00010B50D4CE079012814D1FEF769FBA178FF
:101AF00031B9E17821B1491E11F0FF01E17003D045
:101B0000BDE81040FEF760BBFEF75EFBBDE810408D
:101B100000F038BE10BD00004C00002070B5054636
:101B20000E48007808B1002070BDFEF749FB014661
:101B30000B4804680CB1626802600846FEF744FB7B
:101B40004CB10320207025810020606005A06061F9
:101B5000204600F013FD204670BD00004E0000201E
:101B60005C0000203F0000002DE9F04706460078A9
:101B700089461546032801D0012008E02648007850
:101B800008B1022003E02548007818B10D2010703C
:101B9000BDE8F087FEF714FB07463089002430B11A
:101BA000401E30813846FEF70FFB2C70F0E7DFF85F
:101BB0007080D8F8000010F8341F41F00101017066
:101BC000447040F8049C304600F0AEFC3846FEF706
:101BD000FBFA00F0D7FDFEF7F3FA0746D8F800004D
:101BE00090F8351031B1022906D0314600F070FC72
:101BF0000A2002E02C7001E00E202870D8F80000C6
:101C000000F11C0004764476046044603846BDE868
:101C1000F047FEF7D9BA00004E0000204F00002028
:101C20006C00002070B504460078032801D0012024
:101C300070BDFEF7C5FA0546A07A58B1002301220F
:101C40001946204600F008FC2846FEF7BDFA00F0D1
:101C500099FD09E020894FF6FF71884206D2401CA9
:101C600020812846FEF7B0FA002070BD2846FEF716
:101C7000ABFA332070BD000010B5094CE0790028A4
:101C80000CD100F0A3FD60790649207151F82000C5
:101C9000A0622062BDE81040FEF799BA10BD0000B6
:101CA0004C0000200C350020704700002DE9FE4359
:101CB00005460F4690461C46FEF782FA1A490978F7
:101CC00021B1FEF781FA3C20BDE8FE83174E56F89D
:101CD000241019B1FEF778FA2820F5E7012146F81B
:101CE0002410FEF771FA002342463946284600F0D8
:101CF0007BF900250146009501952B462A46204692
:101D0000029500F073FD070007D0FEF759FA46F878
:101D10002450FEF759FA3846D6E7054800780128DE
:101D2000F9D100F02FFDF6E74E0000200C35002021
:101D3000530000202DE9FF4F83B08246DDE9138672
:101D4000DDE911978B461C46FEF73AFA1D490978E2
:101D500029B1FEF739FA3C2007B0BDE8F08F1A4DE3
:101D600055F8241019B1FEF72FFA2820F4E70121C5
:101D700045F82410FEF728FA32463946484600F066
:101D80001FFE334659465046059A00F02DF900973C
:101D9000CDE9018601464A462046109B00F026FD0B
:101DA000060008D0FEF70CFA002145F82410FEF7D3
:101DB0000BFA3046D0E7054800780128F9D100F049
:101DC000E1FCF6E74E0000200C3500205300002017
:101DD000704700002DE9F04706464448007810B1EE
:101DE0004020BDE8F0873F2E05D0FEF7E9F9074611
:101DF000FF2E02D005E03E20F3E73D48006890F852
:101E00003660DFF8F09059F826406CB1012C10D004
:101E100094F83810384A94F83930505CDB43DBB220
:101E2000184050540AD010E03846FEF7CDF9432050
:101E3000D7E73846FEF7C8F93D20D2E72F4994F896
:101E40003A000A7822EA00000870E16911B12046E0
:101E500000F03EFB216A11B1204600F04DFBA06A64
:101E600008B100F0BBFB4FF00008C4F83080244DEF
:101E700084F8348084F835802878FF2801D2401C0B
:101E800028703846FEF7A0F900F0E4FAFEF798F95A
:101E90000746287808B1401E2870204600F03CF81C
:101EA00018490878401E087049F82680A169404604
:101EB00091B160694861D4E9050181611248016806
:101EC0006161046011A020653846FEF77DF9104875
:101ED0000078012806D007E0616988610D496069D2
:101EE0000860EBE700F04EFC00207AE74E0000208F
:101EF0006C0000200C3500208000002052000020E3
:101F00004F00002054000020700000203F0000001F
:101F100053000020780000207047704770B50546D8
:101F200011480E461446007810B11220107070BD92
:101F3000FEF746F90146FF2D03D10C48006890F8E2
:101F400036500B4850F82500432540B1012806D0F3
:101F500006650846FEF738F90020207070BD084677
:101F6000FEF732F9257070BD4E0000206C00002095
:101F70000C350020704770472DE9F04104460020E1
:101F800008600D464860FEF71BF90146FF2C03D19F
:101F90001348006890F83640124850F8240058B1B1
:101FA000012809D0028AD2070CD0D0E90276002499
:101FB0000846FEF709F90BE00846FEF705F943204D
:101FC000BDE8F0810846FEF7FFF84520F8E7641CFD
:101FD00001CF0028FBD0301BC5E900400020EFE70F
:101FE0006C0000200C3500204FF080731360131F2D
:101FF0001860164842F8080CA2F138004FF012336E
:102000004FF00332C0E90A234FF0023242624FF030
:102010000132C0E907124FF0113181614FF01031E8
:1020200041614FF0093101614FF00831C1604FF05B
:10203000073181604FF0063141604FF0053140F8C3
:1020400004194FF0043101607047000009290008AD
:1020500070B50446FEF7B4F803461F48FF2C00682D
:1020600005D090F83600A04204D1012503E090F895
:102070003640FAE70025194850F8240068B10128D5
:1020800010D090F83820164C90F83960A15CF643D7
:10209000F6B23140A1540AD010E01846FEF794F889
:1020A000482070BD1846FEF78FF8432070BD0D4ADA
:1020B00090F83A10147824EA0101117010F8341FD6
:1020C00041F0080101701846FEF77EF8012D01D19C
:1020D00000F058FB002070BD6C0000200C35002083
:1020E00080000020520000207047000070B50446B8
:1020F00014480078002824D113480078002820D103
:10210000002C1ED0FEF75CF803461048104D016805
:1021100091F8380091F839602A5CF643F6B2324003
:102120002A5406D10B4A91F83A00157825EA0000A6
:10213000107018460C63FEF747F8BDE8704000F0D9
:1021400021BB70BD4E0000204F0000206C0000201D
:1021500080000020520000202DE9F04100F052F8EC
:10216000FEF72EF8264D296B491C2963FEF72CF843
:10217000E879012841D1687A0126002720B1012899
:102180003BD0022802D06F72EC6A32E06E72FBE73D
:10219000FEF716F8216B49B3491E216326D194F846
:1021A000341011F0370F06D001F0C80184F8341054
:1021B00084F8356001E084F8357094F8341009072C
:1021C00014D404F13804AA79A178DFF834C041EAC4
:1021D0000201A97121780CF1340C63781CF80120FC
:1021E000A4F1380442EA03020CF801206469FDF707
:1021F000EBFF94F836003F28CAD1BDE8F08100001B
:102200004C00002005480188491C89B201806429DE
:1022100003D30021018000F003B870474400002080
:1022200001480068FFF7FEBCA000002070B588B030
:102230004FF420712E4800F055FA40212D4800F04F
:1022400051FA00202A4904466422431C00EB800016
:102250001D4601EBC0009BB203EB8303027001EB50
:10226000C30380F82540C36023A30362A8B20F28EC
:10227000EBD300EB800001EBC000027080F825403A
:102280001DA2C46002621D481E4A04601C480480EE
:10229000102010801C4801600120FFF73FFC1B4DFF
:1022A00028600020FFF73AFC194E05AA19A13060FA
:1022B0002868FFF72FFB05AA1BA13068FFF72AFB50
:1022C000802102910320CDE903401C4A4FF6FD70A6
:1022D000CDE900023D2302F5FE7200211848FFF708
:1022E00029FD06AA17A13D20FFF718FE08B070BD12
:1022F000C43E0020444300203F000000980000201E
:102300009600002094000020A40000209C000020E3
:10231000A000002075432F4F532D494920546D7262
:102320004C6F636B0000000075432F4F532D4949DC
:1023300020546D725369676E616C00004441002047
:102340009D23000875432F4F532D494920546D722A
:1023500000000000032280F825200E4A012912689F
:1023600013D0816989B1114441610B4A01F0070121
:1023700002EBC10100230A68086042B1C26010612B
:102380008A88521C8A8003617047C169EBE7012289
:10239000C360F7E7980000204443002008B5DFF849
:1023A0006880DFF868901A4D6A460021D8F800006E
:1023B000FFF7DAFBFFF77EFB2868401C286000F07F
:1023C0000700022759F8304013E061692868E66881
:1023D00081420DD1204600F01DF894F82400022817
:1023E0000CD084F82570626812B12046A16890472D
:1023F0003446002CE9D1FFF773FBD5E701212046D5
:10240000FFF7A8FFEFE70000A000002044430020F2
:102410009800002010B541690D4A01F0070102EB58
:10242000C10200231468C168844203D1116029B13C
:102430000B6103E00469E16001B10C61012180F8E6
:102440002510C36003619088401E908010BD00007D
:102450004443002070470000F0B50546807A194CCF
:102460004FF00007205C05EB0006F67AA45D04EB54
:10247000C004E6B2144C54F8264004F12404E7608A
:102480002160217C21EA020121746374A4F12404F7
:1024900009070BD40D4994F83A208B791A438A71B5
:1024A000343194F839300A5C1A430A5429462046DC
:1024B00000F00EF8216A19B1204600F01DF8E56120
:1024C0003046F0BD543C00080C3500204C00002084
:1024D00010B590F8382090F839408B18E443DA7A38
:1024E000E4B22240DA7204D18A7A90F83A309A4300
:1024F0008A720021C16110BD70B510F8383F447870
:102500008278E443D243E4B2D5B2086809E0C61841
:10251000F27A2240F27202D1827A2A40827251F813
:10252000040F0028F3D170BD30B5134900F10B0240
:102530000B6A43F81C0F1C7F5B7FA55C1D43A554F1
:102540000A6A837A02F13802947843EA04038372B8
:10255000137801F134045578E05C6FEA0505EDB2BB
:102560002840A2F13802E05405D192F83A008A7965
:1025700022EA0000887130BD4C00002000228272E7
:1025800011464318491CC9B2DA720829F9D37047B9
:1025900010B550210E4800F0A5F800200C4A014665
:1025A000431C1C4602EB00109BB202EB03130170AC
:1025B000436008A3C360A0B20428F1D302EB00106B
:1025C0000170416003A1C1600348026010BD0000BA
:1025D0009C3D00203F00000088000020D0E9001250
:1025E00000232AB1116001B14A608068836270479C
:1025F000C26800295160F8D04B60F6E710B54FF47F
:10260000F061114800F06EF800200F4A0146431CAB
:102610001C4600EB40009BB202EBC00003EB4303FF
:1026200002EBC3030170436008A34361A0B24F28CB
:10263000EDD300EB400002EBC0000170416003A14C
:1026400041610348026110BD8C2900203F00000059
:102650004C0000200648002101638170C1700172A6
:10266000C171C160C1618161416141708172704716
:102670004C00002010B54FF4F261164800F032F81B
:102680004FF48071144800F02DF812490020421CCC
:1026900000EB400404EBC000D3B203EB430401EBB6
:1026A000C00004EBC30301EBC30343610BA3036549
:1026B000D0B21528EBD300EB400202EBC00001EBD7
:1026C000C00006A30022036542610548C262416260
:1026D00010BD00000C3600200C3500203F0000002B
:1026E0004C000020002203E0491E00F8012B89B2B3
:1026F0000029F9D17047000010B578210E48FFF786
:10270000F1FF0D4A002000BF00EB400102EBC101C8
:1027100001F118034B60401C08A380B24B610428F0
:10272000F2D300EB400002EBC0000021416003A1A6
:1027300041610348026010BDEC3D00203F000000F5
:102740008C00002010B560210C48FFF7CBFF0B4A2E
:102750000020411C8BB200EB400003EB430302EB73
:10276000C30342F8303088B20328F2D300EB4000B4
:10277000002142F830100248026010BD643E002083
:102780009000002070B5FDF71BFD0E4C0546A078AB
:1027900098B9E07888B900F019F80B49607951F8D8
:1027A0002010A1622279904207D0C86B401CC863F8
:1027B000E068401CE060FDF71EFD2846BDE8704063
:1027C000FDF702BD4C0000200C3500200649054AEB
:1027D00001F134038879105C1B5CD25C02EBC00011
:1027E00048717047543C00084C0000202DE9F05F10
:1027F0000746DDE90ABA0D4690469946FDF7E0FC2A
:10280000374E746A002C67D061691C347162FDF721
:10281000DBFC44F81C5CA7760025257665766561AF
:1028200044F810BC44E906A80C9824F80C0C24F8D1
:102830000A9CE577FA08227707F00701012000FAE1
:1028400002F2E176A2778840607725606560E560F6
:10285000A5602562A562656222A0E562C4E90C500C
:10286000A4F11C044FEA050004EB800100F1010013
:102870004D6510F0FF00F7D02046FFF715FAFDF781
:102880009FFC194941F82740FDF79EFC2046FFF7C1
:102890009FFAFDF795FC0146F06AC4E9050500B111
:1028A0008461F46204F13804B279A07840EA02004D
:1028B000B0710B48227800F134006478835C43EAFD
:1028C00004038354307A00F1010030720846FDF7AA
:1028D0007BFC0020BDE8F09FFDF776FC4220F9E785
:1028E0004C0000203F0000000C350020054C00BFCC
:1028F000FDF766FCE169491CE161FDF765FCFFF746
:102900000CFBF5E74C000020044810B50068FFF709
:1029100031FBBDE81040FF20FFF75CBA6C000020DF
:10292000184C02E0C820FFF7E1FB60780028F9D0DE
:10293000642160690025B0FBF1F0606118B9257071
:10294000FF20FFF785FBFDF73BFC616964225143E3
:10295000E161FDF739FC00BFFDF732FCE169C4E934
:102960000615FDF731FCD4E90510B0FBF1F0C0F11C
:1029700064002070FFF7FFFA00F006F86420FFF70C
:10298000B5FBE9E74C0000207CB50C4D00246946FE
:102990002046FFF7F1FA58B955F8240040B1012854
:1029A00006D0D0E9021201EB820181640199C16471
:1029B000641CE4B23F2CEAD97CBD00000C35002039
:1029C000D30707D0920705D50022002902D004C002
:1029D000491EFAE77047704704230D4A00210D484D
:1029E000FFF764F905230C4A00210C48FFF75EF954
:1029F00006230B4A00210B48FFF758F94FF4FA74ED
:102A00002046FFF773FB2046FFF770FBF8E7000056
:102A10008047002061180008804900208D180008B8
:102A2000804B0020BD18000810B5FDF7C9FB064A11
:102A30001178491C1170FDF7C7FBFFF78DFBBDE84E
:102A40001040FFF709B800004E0000200D48016853
:102A500041F0010101600B4A002108321160026857
:102A6000094B1A400260031D084A1A60026822F4EA
:102A70008022026003480C30016005495806086056
:102A80007047000000380240FFFFF6FE10300024BF
:102A900008ED00E00148FEF7D7BB0000D04B002056
:102AA0000148FEF7D1BB00000C4C00200148FEF7A6
:102AB000CBBB0000484C00200148FEF7C5BB00001E
:102AC000844C0020F0B50268234B244D244E254F42
:102AD000254C4FF0804E984209D0704507D0A8424F
:102AE00005D0B04203D0B84201D0A04204D122F0B8
:102AF000700C4A6842EA0C0298421BD0704519D00B
:102B0000A84217D0B04215D0B84213D0A04211D07D
:102B1000164DA8420ED0164DA8420BD0154DA84216
:102B200008D0154DA84205D0144DA84202D0144D2E
:102B3000A84203D122F44075CA682A4302608A6819
:102B4000C2620A688262984201D0A04201D109693A
:102B5000016301214161F0BD00000140000400401B
:102B600000080040000C004000040140004001400B
:102B7000004401400048014000180040001C004093
:102B8000002000400148FEF73DBD0000384D002008
:102B90000148FEF737BD0000744D002010B590F8D5
:102BA0003910222901D032295CD190F8381001293E
:102BB00058D0012280F838208168B1F5805F15D0A7
:102BC00001690029016824D0496801F07F04816A05
:102BD0004B1C83620C70C18D4FF00003491E090429
:102BE000090CC1851CD080F8383035E00369816A52
:102BF000002B03685B6805D0DBB20B80816A491C3F
:102C00008162E8E7C3F308030B80816A01F10201E6
:102C1000F6E74B68816A01F1010484620B70DAE720
:102C200001680C68A406FCD4CC6824F02004CC60B5
:102C300090F83910322911D00168CC6824F48074DE
:102C4000CC6001684C6924F001044C6180F83920A3
:102C500080F83830FEF786FD002010BD122180F884
:102C60003910F5E7022010BD10B590F8391012297F
:102C700001D0322947D190F83810012943D00122E0
:102C800080F838208168B1F5805F016A10D04B1C54
:102C90000362036809785960C18C491E0B041B0C40
:102CA000C3844FF0000111D080F83810002010BD0F
:102CB00009880368C1F30801596001690029016AA4
:102CC00002D0491C0162E7E7891CFBE70368DC6866
:102CD00024F04004DC6090F83930322B11D00368C6
:102CE000DC6824F48074DC6003685C6924F001040F
:102CF000C3F8144080F8392080F83810FEF7AEFD94
:102D0000D4E72222F6E7022010BD00000148FEF7BA
:102D100079BC0000C04C00200148FEF773BC0000E5
:102D2000FC4C00200148FEF76DBC0000B04D0020B7
:102D3000704702E008C8121F08C1002AFAD1704784
:102D40007047002001E001C1121F002AFBD170472B
:102D50002DE9F04106000C4617460CD07CB100224C
:102D60004FF49A71104600F024FD206150B1627B4F
:102D70003E4952B10CE06FF00D00BDE8F0816FF0FC
:102D80000500FAE74FF0FF30F7E70A68521C0A60C7
:102D9000096821604168012061610870616900254E
:102DA0004870616996F82A0088706069C57020686B
:102DB00000F075FB6169082F4860606905816069F2
:102DC00045816069C56008D0042F06D0032F07D164
:102DD000207B052801D0042802D161697068C86091
:102DE0006069056160694561606985615FF0000047
:102DF00096F82A10814203D9311891F82B1000E07F
:102E0000002100F11C036269401C80B2D1541028DB
:102E1000EED3002000F12C016269401C80B25554B1
:102E20004028F7D35FF0000000F16C016269401C9C
:102E300080B255548028F7D361690D48C1F8EC0081
:102E400025830020626900F1F0015054401C80B2DB
:102E50004428F7D301223521204600F094F8394662
:102E6000204600F0A0F8002087E7000018000020AE
:102E70006382536310B5040006D0206908B100F0E6
:102E80006AFD00202061606110BD0000F8B5446A51
:102E90000546002060620621204600F025F9012247
:102EA00021462846FFF754FF060030D1022239217F
:102EB000204600F068F8298D204600F09DF8042295
:102EC0003721204600F05FF80121204600F06BF822
:102ED0000321204600F067F81C21204600F063F82B
:102EE0000621204600F05FF8204600F096F8208B7F
:102EF000F03081B2206900F087FD009543230F4A2E
:102F00002169606800F03AFE2046FFF7B3FF607B5E
:102F1000401CC0B26073062802D20121814000E04B
:102F20003C214FF47A70414388B200F2F3104FF421
:102F3000FA71B0FBF1F060833046F8BD443C000804
:102F400070B5446A0546002C1CD0207B002604285E
:102F50000FD004DC002815D0032804D109E005288F
:102F600007D00A2805D066732846BDE87040FFF7F1
:102F70008DBF284600F0E2FB66732846BDE870402E
:102F800000F062B870BD10B5038B44691C445B1C33
:102F9000038384F8F010018B43690B44491C0183BF
:102FA00083F8F02010BD028B43691344521C028346
:102FB00083F8F010704710B5028B44690B0E14446F
:102FC000521C028384F8F030028B44690B0C1444C9
:102FD000521C028384F8F030028B44690B0A1444BB
:102FE000521C028384F8F030028B43691344521C54
:102FF000028383F8F01010BD10B5028B44690B0AF0
:103000001444521C028384F8F030028B4369134449
:10301000521C028383F8F01010BD002812D0018BDF
:103020004369FF220B44491C018383F8F0200022EE
:1030300005E043690B44491C018383F8F020018BB0
:103040004429F6D370470000F8B5446A06460321C8
:10305000204600F049F8032221463046FFF778FE6B
:10306000050028D1022239212046FFF78CFF4FF4BA
:1030700010712046FFF7C0FF042232212046FFF7DF
:1030800082FF606A00F00FFA01462046FFF793FFC7
:103090002046FFF7C2FF208BF03081B2206900F09C
:1030A000B3FC009643230F4A2169606800F066FD77
:1030B0002046FFF7DFFE607B401CC0B260730A2829
:1030C00003D24FF47A71484301E042F2107080B2AB
:1030D00000F2F3104FF4FA71B0FBF1F06083284670
:1030E000F8BD0000443C0008027B8A4203D0017313
:1030F000002141734183704770B50A4D0646002494
:1031000004EB840005EB8000817C29B18068B0422B
:1031100002D1204600F008F8641CE4B20A2CEFD378
:1031200070BD0000C426002070B50C4D00EB800679
:10313000002455F8260018B100F00DFC45F8264093
:1031400005EB860006498474C47484604460D1F839
:103150000620C2604989018270BD0000C42600209B
:10316000483C00082DE9F05F8146884692461F469C
:1031700000222A210320DDF82CB000F01AFB060003
:103180003DD075680D9805F10E0400F08AF9E080D5
:103190003868A060B888A081DBF80010C4F812106D
:1031A000BBF80400E082DAF800102960BAF80400E5
:1031B000A880D8F80010C5F80610B8F80400688197
:1031C0000A9831460068C4F80E000C980068A061A7
:1031D0004FF4807020800820608006202071042039
:1031E00060714FF4C160A881D9F818204846904713
:1031F0000446304600F0AFFB2046BDE8F09F4FF09C
:10320000FF30FAE71FB50123064C021DCDE902137A
:10321000CDE9002400F12B031946A21FFFF7A2FFFE
:1032200004B010BD4E3C000838B5002104460091A2
:103230006A4612210A48FDF7F0FA009989040AD576
:103240006A4610210648FDF7E8FA0098C0072046B4
:1032500002D000F08DFA38BD00F07DFA38BD0000D4
:103260000C8F002010B500F023F9C04380B210BDD0
:103270002DE9F74F8AB004460B9814270025068DD8
:1032800060680590C08800F010F9C0F30C0B00F4E2
:103290000050079020891438143E1FFA80F8F01768
:1032A00006EB5070C0F3CF000896069083E00899B3
:1032B000884501DC012000E00020079ACBF30C01D7
:1032C00011430491D8B1404680B2039000221421EA
:1032D000022000F06EFA5FEA000916D01422D9F835
:1032E00004000599FCF7C4FFD9F804000290606857
:1032F000384460606089C01B6081039E31E041F406
:10330000005004900698C000DEE74FF0FF300DB08B
:10331000BDE8F08F6589B54200D9354605B3062072
:1033200000F0FCF907004CD06068CDE900053B4691
:1033300002222946032000F0C6FA5FEA000A44D0C0
:10334000204600F089FB2348C7E90404514648465B
:1033500000F0E4FA701B0604360C04D02468D9E7A8
:103360002468002ED6D12F46049800F09AF80299CE
:10337000C8800398143080B200F093F80299488016
:1033800002980021418114210298FFF76BFF0299F6
:1033900048810B9849460C9A43699847484600F083
:1033A000DAFA03980699A8EB00001FFA80F80BEBF5
:1033B00001001FFA80FBB8F1000F7FF478AF002006
:1033C000A5E7484600F0C7FA9FE7384600F004F842
:1033D000F7E70000893400080146062000F092B9A2
:1033E0002DE9F84F0546DDE90BA6DDF828B0894642
:1033F0001700984631D0142100F0D6FA18B16FF0BA
:103400000100BDE8F88F6C6884F8088084F809A092
:10341000386820614520207084F801B0288900F0C8
:1034200040F8DFF8608060804FF0000AA4F806A042
:10343000B8F8000000F035F8A080B8F80000401C93
:10344000A8F80000B9F1000F02D0D9F8000000B9C7
:103450007068E060A4F80AA003E068686F4600693D
:103460000090308D40B12989814205D93A463146D4
:103470002846FFF7FDFEC4E773693A462946304601
:103480009847BEE73000002010B50446406908B1F7
:1034900000F061FA2046BDE81040FFF79DBF00BA7A
:1034A000704740BA704700BA704740BA7047000092
:1034B00018B50022ADF8002010F001030CD000294F
:1034C0000ADD10F8014B8DF80140491E04E000BFF1
:1034D00030F8024B891E22440129F9DC002902DD63
:1034E00000788DF80000BDF80000104481B201EBB7
:1034F000104081B201EB104023B1C1B2C0F30720EC
:1035000040EA012080B218BD10B592B0FDF7D0FAA4
:1035100001200090019002248005CDE90640192089
:103520000890F020CDE9090405200B906846FDF7CE
:103530005DFC0F20CDE90C0400200E904FF4A0504C
:103540000F90E002109003210CA8FDF70DFBFCF793
:10355000E3FFFEF7FFF90323044A00210448FEF7C6
:10356000A5FBFEF789FB12B0002010BD80450020AE
:10357000D929000800280FD008490A6890420BD3C7
:103580004A68904208D20838002202718A68904244
:1035900000D2886000F066BA704700001C0000206E
:1035A000F0B5002844D0C01C20F0030085B24FF4D1
:1035B000205E0C2D01D20C2501E075453DD8204C34
:1035C000C5F52056A3682268981A81B233E05018D6
:1035D000077977BB07887F1A083FAF422AD306884E
:1035E0004FF0010C771A083F05F11406B74211D3CA
:1035F0000D440835AEB2951900272F7107882F802A
:103600006980068080F804C02988714504D0951C23
:103610004E5301E080F804C0984208D1616801E08F
:103620001B8813441D790DB18B42F9D1A36008307A
:10363000F0BDFFE7515A8E42C9DC0020F8E70000D8
:103640001C0000202DE9F04FC91C21F0030189B2B4
:103650004FF420590C2901D20C2101E0494511D821
:10366000274E3468A0420FD3726890420CD2A0F16A
:103670000802131B15889BB2EF1A083F1FFA87F840
:10368000414503D94FF00000BDE8F08FFCD0B246B1
:103690001B4E25444FF0000BD6F808C036682F7932
:1036A00006F10206B7B101F114054545ECD81944FD
:1036B00008318DB26119614501D2CAF8081081F84C
:1036C00004B014880C804B80158009884945DBD0F4
:1036D0008D53D9E7194408312F8889B2AC4503D1FD
:1036E00004EB010CCAF808C00C4484F804B027802D
:1036F0006380118022884A45C6D09153C4E70000F8
:103700001C000020002905D0034A52F820300B602D
:1037100042F82010704700000002002001460A28ED
:1037200001D300207047044A52F821000028F9D044
:10373000036842F8213070470002002090F83110F1
:10374000CA0707D021F0010180F83110890601D5A0
:10375000FFF7D2BC704790F83110CA0607D521F0A8
:10376000100180F83110C169002900D00847704766
:1037700010B5044690F83100C10619D440F010008D
:1037800084F83100606A10B12046FFF7D9FB94F845
:103790003100C10705D0800603D5211D2046FFF763
:1037A00031FDE169002903D02046BDE810400847FB
:1037B00010BD2DE9F0470E46174630B1012806D05E
:1037C000022806D0032850D105E0362504E0222542
:1037D00002E00E2500E000254FF0010A4FF000083E
:1037E000EFB3012F5DD0022F5BD0032F3DD1092015
:1037F000FFF794FF040039D060191330277320F0CD
:103800000300C4E90080ED1C25F00300C0F5007042
:103810002681B04200DD304681B26181751AA4F87C
:103820000EA0A1464FF4007617E00920FFF776FFBF
:10383000C0B1077380F80D80C0F80080A9B2C9F844
:1038400000000181B14200D33146418100F11002F4
:103850004260A0F80EA06D1A8146002D00E007E03E
:10386000E3DC2AE0204600F076F80020BDE8F0878F
:1038700005F1130020F00301F01C20F003000844C0
:1038800080B2FFF78DFE0400F0D06019133020F0F5
:103890000300606026816681C4F8008084F80C8093
:1038A0000BE00820FFF73AFF0400DFD0C4F80480E3
:1038B00026816681C4F800802773A4F80EA084F8DE
:1038C0000D802046D2E770B50400DDE904561846A5
:1038D00006D0012C06D0022C06D0032C0DD105E019
:1038E000362304E0222302E00E2300E00023DB1C49
:1038F00023F003035C18B44201D9002070BD0024FA
:10390000046015B12B44436000E04460022343731C
:103910000181418102730121C18170BD10B5002870
:103920000FD000290DD004E003890C8923440381C2
:1039300010460268002AF7D102890B891A440281D5
:10394000016010BD10B50C46FFF7E8FF2046BDE84A
:10395000104000F081B870B500281CD00024C18947
:10396000A1F101010904090CC18113D1427B017B42
:103970000568920702D50169884707E003290BD043
:1039800001290CD002290AD0FFF7F4FD641CE4B22F
:103990002800E4D1204670BD0146092001E001461F
:1039A0000820FFF7AFFEF1E710B541B138B10029AB
:1039B00007DA4A4293B242899A4223D302E00020B6
:1039C00010BD8BB2027B446832B1032A04D0022AB4
:1039D0000AD0012A08D015E0621A00F110034260F3
:1039E0009A4208D244600DE000290BDA42899A42DB
:1039F00008D3621A426042890A4442810289114412
:103A00000181DCE7012010BD70B502898A4222D90C
:103A10008A1A0D46044691B205E0281A85B220891B
:103A20000844208124686089A842F6D3207B50B9DD
:103A30006089A84207D06068001B284481B22046F4
:103A4000FFF700FE044665812581206808B1FFF775
:103A500082FF0020206070BD002802D0C189491C6F
:103A6000C181704730B5134903880A681344941C18
:103A700098420DD01D795DB94D68AB4208D08D6874
:103A80009D4200D188601D8805801B88851A1D53C2
:103A90004388134483420BD01D79002D08D18D68D3
:103AA000854200D18B60018819800088991A0153E2
:103AB00030BD00001C00002030B5084B4FF4FA74F4
:103AC0001A88511CB1FBF4F504FB15115C888C427B
:103AD00002D01C1D1055198030BD0000745C002000
:103AE0002DE9F047244B00246FF007095D680FE0D3
:103AF000A84201D101240AE06E8A964207D14DB353
:103B00002E683EB331B30F6827B3BE422CD0ED68A8
:103B1000002DEDD101B10968016012BB59684FF069
:103B2000000C4FF6FF764FF440484FF4804A1A8855
:103B3000551C1D80B24201D1A3F800800A461D88A1
:103B40000AE0578AAF4206D10CF1010C1FFA8CFC37
:103B5000D445ECD308E0D268002AF2D12A04120C32
:103B600002D042821CB105E04846BDE8F0875968A2
:103B7000C16058600020F8E7280000202DE9FE4FC2
:103B80009246428ADDF8309004460E46984622B9A5
:103B90000146FFF7A5FF002814D108213046FFF7A2
:103BA00003FF88B1002208210120FFF702FE050073
:103BB00006D0308948B131462846FFF7C3FE04E0FD
:103BC0004FF0FF30BDE8FE8F3546608A6F68FFF723
:103BD00068FC38804046FFF764FC78800020F8805D
:103BE0006CB1206858B1D9F8041088420AD0B542A7
:103BF00002D02846FFF7AFFE6FF00500E2E709F1BB
:103C0000040800E0A0462889FFF74BFCB880617AE1
:103C100011228DE80602A37A524641462846FFF754
:103C2000DFFB0446B54202D02846FFF794FE20464B
:103C3000C8E70000000001020304010203040607B4
:103C400008090000FFFFFFFFFFFFFFFFFFFF00006D
:103C5000000000000000010002000100030001005C
:103C60000200010004000100020001000300010045
:103C70000200010005000100020001000300010034
:103C80000200010004000100020001000300010025
:103C90000200010006000100020001000300010013
:103CA0000200010004000100020001000300010005
:103CB00002000100050001000200010003000100F4
:103CC00002000100040001000200010003000100E5
:103CD00002000100070001000200010003000100D2
:103CE00002000100040001000200010003000100C5
:103CF00002000100050001000200010003000100B4
:103D000002000100040001000200010003000100A4
:103D10000200010006000100020001000300010092
:103D20000200010004000100020001000300010084
:103D30000200010005000100020001000300010073
:103D40000200010004000100020001000300010064
:103D500002000100743D0008000000200002000085
:103D6000B8020008A03D000800020020589A000098
:103D7000422D000811931BB76009010203040607D6
:103D80000809D3CDAB02FFC0015D12641A3C041ACE
:103D9000C8020A553C54B27B85B17F39050000004A
:040000050800018965
:00000001FF
