:020000040800F2
:1000000050A600209D0100083B350008CB310008B8
:1000100039350008050300081143000800000000FE
:10002000000000000000000000000000053900088A
:10003000490B000800000000B30100084D3A000819
:10004000B7010008B7010008B7010008B7010008B0
:10005000B7010008B7010008B7010008B7010008A0
:10006000B7010008B7010008B7010008B701000890
:10007000B7010008B7010008B7010008B701000880
:10008000B7010008B7010008B7010008B701000870
:1000900009030008B7010008B7010008B70100080C
:1000A000B7010008B7010008B7010008B701000850
:1000B000213C00082D3C0008393C0008B70100082D
:1000C000B7010008B7010008B7010008B701000830
:1000D000B701000845410008B70100087941000850
:1000E000990C0008B7010008B7010008B701000823
:1000F000B7010008B7010008B7010008B701000800
:10010000B7010008B7010008453C0008B701000826
:10011000BD3D0008C93D0008B7010008B70100084F
:10012000B7010008B7010008B7010008B7010008CF
:10013000B7010008B7010008B7010008B7010008BF
:10014000B701000815030008B7010008B70100084F
:10015000B7010008B7010008B70100088541000891
:10016000B7010008B7010008B7010008B70100088F
:10017000B7010008B7010008B7010008000000003F
:10018000B7010008B7010008DFF80CD000F04AF80A
:10019000004800477960000850A6002006488047C4
:1001A00006480047FEE7FEE7FEE7FEE7FEE7FEE75C
:1001B000FEE7FEE7FEE7FEE7513A00088901000886
:1001C00040EA01039B0703D009E008C9121F08C0D9
:1001D000042AFAD203E011F8013B00F8013B521E59
:1001E000F9D27047D2B201E000F8012B491EFBD2D0
:1001F00070470022F6E710B504460846114602464D
:100200002046FFF7EFFF204610BD30B50446002022
:10021000034600E05B1C934203D2E05CCD5C401BD4
:10022000F8D030BD064C074D06E0E06840F0010311
:1002300094E8070098471034AC42F6D3FFF7A8FFC4
:100240009C8B0008BC8B000870B501EB020410F811
:10025000015B15F0070301D110F8013B2A1106D10B
:1002600010F8012B03E010F8016B01F8016B5B1E25
:10027000F9D12B0705D40023521E0FD401F8013BFE
:10028000FAE710F8013B02F10202A1EB030303E0DD
:1002900013F8015B01F8015B521EF9D5A142D6D3D8
:1002A000002070BD0848016841F0400101608114E0
:1002B0000648016000214160012181600221C16086
:1002C0000146034801F0B0BB30380240D865002039
:1002D000000C02400848016841F0400101608114AF
:1002E000064801600121416081600221C160014630
:1002F000034801F099BB000030380240D865002067
:10030000000C024070470000014800F0E5BD00000D
:1003100090520020014800F0DFBD0000D0520020C4
:1003200010B500F0A9F9BDE8104000F0E9B90000EF
:1003300010B54FF4D872036802EB01129B5813F00A
:100340000404436B9C600468436BA45857D0E408D2
:100350005C6003689A58436B02F00202DA604FF463
:10036000DA72036802EB01129B58446B03F00F032F
:10037000236103689A58436BC2F307225A634FF410
:10038000DC72036802EB01129B58446BDBB26361C1
:1003900003689B58446BC3F30723A36103689B580E
:1003A000446BC3F30743E36103689A58436B120E2F
:1003B0001A624FF4DE72036802EB01129B58446B21
:1003C000DBB2636203689B58446BC3F30723A362E9
:1003D00003689B58446BC3F30743E36203689A586E
:1003E000436B120E00291A6301680BD00A6942F0B0
:1003F00020020A6190F83810222908D020E0640D0C
:100400001C60A6E7CA6842F02002CA60F2E70168F1
:100410004A6922F480724A6101684A6922F40072D2
:100420004A6101684A6922F480624A6101684A6946
:1004300022F400624A6101684A6922F400424A617A
:1004400090F83810322907D05FF0010180F8381099
:1004500000F0DEFE002010BD1221F7E710B50168A4
:100460004A6922F001024A6190F83810122918D125
:1004700001684A6922F480724A6101684A6922F47B
:1004800000724A6101684A6922F480624A61016827
:100490004A6922F400624A6101684A6922F4004212
:1004A0004A6190F83810322906D0012180F83810BE
:1004B00000F0FEFE002010BD2221F7E70020054AD3
:1004C000014600BF02F83010401CC0B24628F9D3E4
:1004D00070470000006100200020044A01461154CA
:1004E000401CC0B20828FAD3704700007F010020EA
:1004F00010B52C4800244049047044702A48444AEE
:1005000004702A4804702A4804702A4804702A4853
:1005100004702A4804702A4804702A4804702A4843
:1005200004702A4804702A4804702A4804702A4833
:1005300004802A4804702A4804702A4804702A4813
:1005400004702A4804702A4804702A48047041F252
:100550006800088029494FF4FA600880284940F66D
:100560009260088027493220087027482749047084
:10057000102008702749002014540C54401CC0B2AD
:100580000428F9D3FFF79AFFFFF7A6FF22490120BD
:10059000087022490870224844808480C480214821
:1005A000448010BD6C5400204E0100204F010020FB
:1005B0007C010020730100207801002079010020D7
:1005C0007A0100207E0100208E0100206C010020B5
:1005D0007B0100207D0100208C010020870100208C
:1005E0006E0100206F0100207001002071010020C9
:1005F000720100206B010020480100204A01002008
:100600004C0100206D010020460100204701002020
:100610005201002056010020C10000206A01002084
:10062000620100205A0100207FB51248C8230178DA
:100630004A1CB2FBF3F403FB1422914218D000EBE6
:100640000111009B4B6001789DF8043000EB011113
:100650006C460B72002108E00678651800EB061660
:100660000E446D79491C7572C9B28B42F4D8027080
:100670007FBD00006C540020F0B51E4C8BB01C48B0
:1006800020601D4820633430606300250127C4E9E1
:1006900006572562C4E90957E5624FF4A020A5601A
:1006A000C4E9035008264FF4E0006660606120460C
:1006B00000F070FCCDE9065703950E200495CDE9B6
:1006C000087005950095019502956946204600F051
:1006D00091FB206B40F221310160084941600830F4
:1006E000042162C00021204600F06AFD0BB0F0BD7D
:1006F00000640040905200208C530020F4561C18D7
:1007000030B5234C8BB0214820602248206300255F
:10071000A561E56125626562A562E5623430A56088
:1007200060634FF4A020C4E903504FF4E00060611F
:1007300010206060204600F02DFC49F23E0200923D
:1007400040F2044201924FF6FF72029201200E2104
:100750004FF680720392CDE90650CDE90401CDE950
:1007600008016946204600F045FB206B4FF44871B4
:100770000160094941600421C0E9021508210161B5
:100780000121204600F01CFD0BB030BD0068004088
:10079000D0520020FC53002081C007130848016894
:1007A00041F04001016007480121016041600021E2
:1007B00081600221C1600146034801F035B90000A3
:1007C00030380240F04F00200018024070B5044657
:1007D0004FF6FF7000224AF201050DE0A35C58407D
:1007E0000023C6074FEA500000D068405B1C9BB254
:1007F000082BF6D3521C92B28A42EFD370BD10B5CB
:10080000044603F08AF8042003F090F8802003F0F7
:100810008DF8032003F08AF82046BDE8104003F06D
:1008200072B800004FF40061014801F0F3B9000014
:10083000001402402021014801F0ECB90000024000
:100840001021014801F0E6B90000024070B51D4DCD
:100850003C241D492A88B2FBF4F0888604FB102052
:10086000C8861A48006803F0C3FC1948006880B2C3
:1008700003F03CFD1748006880B203F0A7FC16485F
:10088000C178807801EB002080B203F0C3FC134EE6
:10089000B07803F007FD707803F016FD2888B0FBF0
:1008A000F4F003F0C9FC2888B0FBF4F104FB11005C
:1008B00003F0D4FC0A480088BDE87040C0B203F0E1
:1008C000DFBC0000DA0000209C010020E8000020CE
:1008D000F0000020F4000020EC0000203D0100208A
:1008E000D800002070B5002400F0BEF8134D04E0DD
:1008F000641CE4B2022000F0E7FC2021284601F04D
:1009000089F9012803D03C2C10D2002407E03C2CAC
:10091000EED30BE0641CE4B2022000F0D5FC2021F1
:10092000284601F077F918B1F52C04D3012070BDE9
:10093000F52CEFD3FAE7002070BD00000010024054
:100940002DE9FE4300F076F8FFF7CCFFCC2000F055
:10095000ADF8442000F0AAF800F06CF8FFF7C2FFF1
:10096000CC2000F0A3F8BE2000F0A0F8DFF8A080B3
:10097000002400275FF0010500F088F80022202104
:100980004646404601F04BF9032000F09DFC012251
:100990002021304601F043F900F066F8062000F00F
:1009A00093FC2021304601F035F908B1012600E022
:1009B0000026322000F088FC78086D1C00EBC61081
:1009C000EDB2C7B2082DD7D90DF80470641CE4B29B
:1009D000092CCED39DF801009DF80010072805D9F9
:1009E000C043C943C0B2C9B2002200E0012241EABB
:1009F000002000EB8000400000B200111AB100F5A9
:100A0000C870BDE8FE83C0F5C87000B2F9E7000009
:100A100000100240064810B5016841F01001016065
:100A200000F034F800F006F8BDE81040FFF75ABFB8
:100A30003038024010B500F029F80A4C002220217D
:100A4000204601F0ECF840F28A2000F03DFC012243
:100A50002021204601F0E3F8BDE810400A2000F014
:100A600033BC000000100240064820210160002134
:100A70004160012181600221C1600146024800F00D
:100A8000D3BF000058660020001002400548202116
:100A900001600121416081600221C160014602487C
:100AA00000F0C2BF58660020001002402DE9F0415E
:100AB0000546FFF7EBFF124F012400BF05F00106CA
:100AC0006D0800222021384601F0A9F8022000F02C
:100AD000FBFB26B101222021384601F0A0F8372087
:100AE00000F0F2FB01222021384601F098F80520A1
:100AF00000F0EAFB641CE4B2082CDFD9BDE8F08109
:100B0000001002400E4901200E4AC8740020C8712E
:100B1000087208758875C875087648768876C8762C
:100B2000487788854872C8721060A2F86800C87358
:100B300000215318491CC9B218716429F9D37047B0
:100B4000B000002010530020704770B504460068C4
:100B500000F58050816941F480118161206800F5C1
:100B600080508569012000F0A5FB206800F58050C9
:100B7000856170BD2DE9F041044621B14FF400605C
:100B8000E060C000A060E0690025002861D0284630
:100B90002368402619683A4A1140D4E902273A43AB
:100BA000024342F40070084318602068076801207F
:100BB00000F080FB20680760206846602068466877
:100BC000012000F077FB206846602068856020687F
:100BD000C560216888694FF64172104040F080007E
:100BE000886120688669012000F064FB20688661C6
:100BF0002068C5612068C569012000F05BFB2068A2
:100C0000C561226802F5805290691E4908401E495C
:100C100001439161206800F580508569012000F052
:100C200049FB206800F5805085612068174900F570
:100C300080500160206800F580500568012000F0B8
:100C400039FB206800F580500560A069012803D0B9
:100C500009E04FF480609BE7206800F58050C1698F
:100C60000B4A1143C16161690A488A8802640A78A3
:100C7000D1F8011042EA01214164BDE8F081000091
:100C80000F8120FF233FDEF8040020028020C102F4
:100C900040000100008002404FF4804000F0B8BEE8
:100CA0002DE9F0414A48016841F001010160016805
:100CB00041F002010160016841F004010160016836
:100CC00041F008010160016841F010010160016814
:100CD00041F020010160016841F0400101603D4C9C
:100CE00048F250000125C4E900050226DFF8E8803B
:100CF000C4E902562146404600F096FE2020002717
:100D0000C4E90007C4E902562146404600F08CFEC3
:100D10001A20C4E90005DFF8C480C4E90256214660
:100D2000404600F081FE01220221404600F077FF9C
:100D30004FF44170C4E90005DFF8A480C4E902560D
:100D400001220421404600F06AFF2146404600F09F
:100D50006BFE01220421404600F061FF41F20800D1
:100D6000C4E90005C4E9025621461E4800F05CFEB5
:100D70002820C4E90005DFF87080C4E90256214646
:100D8000404600F051FE1020C4E90007C4E90256B5
:100D90002146404600F048FE4FF48F40C4E900056C
:100DA000124FC4E902562146384600F03DFE0122AA
:100DB0009102384600F033FF4FF40D70C4E900058E
:100DC000C4E902562146BDE8F041094800F02CBEB6
:100DD00030380240F04F0020000002400004024082
:100DE00000080240000C02400010024000140240C3
:100DF00000180240F0B54A69DFF8D8C001209040E1
:100E0000DCF8002042F00102CCF80020DCF80020E1
:100E100022F47C52CCF80020DCF800204B6A42EA35
:100E20000322CCF800202B4A1C3213688343136042
:100E3000284B284C0C334034CE69251D86B91E68DA
:100E400086431E60CF684E6867F31F464F6944F8BB
:100E500037608F680E6867F31F464F6945F8376043
:100E6000CE69012E10D11E6806431E60D1E90063D1
:100E700066F31F434E6944F83630D1E9024364F308
:100E80001F434C6945F83430124B8C691B1D002CF4
:100E90001C6806D004431C600E4B0C69143314B15B
:100EA00004E08443F7E71C6884431C600C69012C50
:100EB00002D11C6804431C60096A012902D111682F
:100EC00001431160DCF8000020F00100CCF80000C4
:100ED0000020F0BD0066004070B50446006841691E
:100EE000C943C90714D182682649914343D00021E0
:100EF0008368254A9A4340D0002283682348984358
:100F00003DD000201143014302D02046FFF7A6FA4E
:100F10002068C168406911F0030FC0F3400004D09D
:100F200018B100212046FFF703FA206801694069E3
:100F300011F0030FC0F3001004D018B101212046B6
:100F4000FFF7F6F92068C068114DC0F3C00020B16A
:100F500000228021284600F062FE2068C068C0F3AD
:100F6000001000280DD02846BDE8704000224FF444
:100F7000807100F054BE0121BAE70122BDE70120D3
:100F8000C0E770BD03000004000300080000031068
:100F9000001402402DE9F041040003D094F8380019
:100FA00018B105E00120BDE8F081204600F094F87A
:100FB000022084F838002068016821F002010160F5
:100FC0002068016841F00101016000F02DFE032658
:100FD00000F10A07002503E000F026FEB84263D2C4
:100FE00020684068C007F7D020684168C90768D00A
:100FF000A1690129016840D021F080010160E06908
:101000000128206801683BD021F040010160206A7E
:1010100001282068016836D021F020010160606A53
:1010200001282068016831D021F010010160A06A18
:101030000128206801682CD021F008010160E06AD5
:1010400001282068016827D021F004010160D4E95B
:1010500002010843D4E90412114308436168491EA0
:1010600008432168C8612068016821F0010101601E
:1010700000F0DAFD00F10A071BE041F08001BDE756
:1010800041F04001C2E741F02001C7E741F0100103
:10109000CCE741F00801D1E741F00401D6E700BFF9
:1010A00000F0C2FDB84204D304F8386F0320657025
:1010B00079E720684068C007F2D120684068C0071F
:1010C00003D0042084F838006CE7E563012084F83D
:1010D0003800002067E700002DE9F04F0746344D47
:1010E00000683249DFF8C8A0103D0224012685B00F
:1010F0004FF009094FF48058884228D1DAF80010DF
:1011000041F08061CAF80010286840F002002860B1
:101110002003CDE90004DFF89CB0CDE90264694604
:101120005846CDF8109000F07FFCCDE90084CDE961
:10113000026469465846CDF8109000F075FC022212
:101140000121412000F09CFF412000F08CFF1A4952
:101150003868884226D1DAF8001041F00071CAF8E8
:101160000010286840F001002860CDE90084029654
:10117000124FCDE903494D466946384600F054FC0C
:10118000F814CDE90004029669463846CDE90345D6
:1011900000F04AFC01221146142000F071FF1420D7
:1011A00000F061FF05B0BDE8F08F0000006800406E
:1011B0004038024000040240006400400000024049
:1011C00090F83820012A01D0122A1ED190F8392037
:1011D000012A1AD0012280F8392090F83820122AEA
:1011E0000ED0222280F83820002280F839200068B2
:1011F0000029416906D041F010014161002070478B
:101200003222EFE741F00201F7E7022070470000C9
:101210002DE9F041416B0446886804283AD11E4A02
:10122000206800271D4D1426904218D11C484A689A
:10123000026009690171EF70E978626B06EB810366
:10124000D2584318491CC9B25A71E9700829F3D31E
:101250000FC8FFF7E9F900212046FFF7B1FF114958
:101260002068884216D1606B0F49406808600F49BA
:10127000EF70E878626B06EB8003D2580A54401C8A
:10128000C0B2E8700828F4D32046BDE8F04101213F
:10129000FFF796BFBDE8F08100640040AA0000207F
:1012A0007C53002000680040880100207F0100205E
:1012B0007047000003490A6810440A688242FCD360
:1012C000704700001400002005E016210A00A1F17B
:1012D0000101C9B2FAD10100A0F1010080B2F4D13C
:1012E000704700002DE9F041054690F845000C4696
:1012F000012874D0012685F84560022085F8440055
:10130000002C6FD02A68116841480140D4E90003DD
:101310001843D4E902373B431843AB6818432369A9
:10132000184363691843EB681843A3691843E369DA
:101330001843236A1843636A1843A36A184308438F
:101340001060286807680120FFF7B4FF286807606D
:10135000D4E90B010843D4E90D1211430843E16BB2
:101360000843216C0843616C0843A16C0843296859
:101370004860286847680120FFF79CFF286847609D
:101380002968E06C88602968206DC8602A689169C6
:101390004FF641700140D4E916031843676D236E80
:1013A00043EA07431843636E1843A36E1843084388
:1013B0009061286887690120FFF77CFF28688761B2
:1013C000D4E91B0108432968C8612868C469012061
:1013D000FFF770FF2868C46114E000E002E002201B
:1013E000BDE8F0812968086820F49042D5E902033D
:1013F000184310430860286804680120FFF75AFF6B
:101400002868046005F8446F00206870E8E7000071
:101410000F8120FF2DE9F04390F845400025012C75
:101420000DD04FF0010980F84590022480F8444027
:1014300044F2F4584FF0004C5E1E816216E0022028
:10144000BDE8F08301EB4514C4F800C0C5EBC51737
:1014500007EB470702EB8707C4E90187B54203D2D0
:1014600004F12007E76000E0E1606D1C9D42E9D3D4
:10147000026802F58052D16080F84490002180F823
:1014800045100846DCE72DE9F04390F8454000257B
:10149000012C0BD04FF0010980F84590022480F810
:1014A00044404FF480185E1EC1621BE00220BDE87C
:1014B000F08301EB4514C4F80080C5EBC51707EBBA
:1014C000470702EB8707A760C7691FB9276847F47A
:1014D00040072760B54203D204F12007E76000E02F
:1014E000E1606D1C9D42E4D3026802F580521161F7
:1014F00080F84490002180F845100846D7E70000A6
:101500002DE9F8434FF0000704003E46B946009726
:1015100003D094F8440018B105E00120BDE8F88339
:10152000204600F0B1F85048016841F48041016064
:101530004E48016821F4000101600168226A1143EC
:101540000160206800F58050016841F001010160F0
:10155000206800F580510A68D207FCD1006920F0AC
:101560001C0500F0A5FE4249424A0144914202D2C4
:1015700045F008050EE04049404A0144914202D23C
:1015800045F00C0506E03E4908443E49884201D337
:1015900045F00405206805614FF400420021204613
:1015A00000F0FEF90125A0BBFF20FFF783FE606875
:1015B00080B34FF6FF78761C6A460121204600F082
:1015C000BFF80098400701D44645F4D3464537D0CC
:1015D00000264FF480523146204600F0E1F9C0B9B0
:1015E000761C6A460121204600F0AAF80098800681
:1015F00001D44645F4D3464522D06A461021204600
:1016000000F09EF80098410705D54FF40061E160B5
:1016100002E015E008E0E760800701D5A7601AE066
:101620004FF48040A06016E0E0680021C0F3CF02D4
:10163000A068C0F34F000243204600F0B1F930B17A
:1016400001212046FFF796FA84F8445065E740F6FA
:10165000FF70FFF72FFE49462046FFF78BFA84F80C
:10166000445000205AE7000044380240043801404A
:1016700000D3CEFEC0E1E40040F1E9FD40787D01F9
:1016800000796CFC005A620230B5294C054685B0E1
:10169000206840F001002060206840F002002060D7
:1016A000206840F004002060206840F020002060A6
:1016B000206840F040002060206840F080002060FA
:1016C000206840F4807020604FF4C37000900320C5
:1016D000039002200190002002900B2004906946A4
:1016E000144800F0A1F93A2000906946124800F031
:1016F0009BF94FF4D04000906946104800F094F9EF
:10170000206840F000702060206840F08060206019
:10171000206840F000602060286A002805D100227F
:101720004FF48001104600F04BFE05B030BD0000C4
:101730003038024000000240000802400018024019
:10174000F0B590F844400023822C24D0822480F805
:10175000444006683469058A04F01C074FF6FF749C
:1017600004EAC5253D434FF4F86707EA8111294390
:1017700021F0020141F00101316101685B1C0D693A
:10178000ED0701D0A342F9D30125A34205D180F88A
:1017900044500320F0BD0220F0BD496989B21160B8
:1017A00080F844500020F0BD70B5044690F8450024
:1017B000012834D0012584F84550022084F84400E3
:1017C0002068016841F00801016020680668284629
:1017D000FFF770FD206806602068016841F0040191
:1017E0000160206806680120FFF764FD206806603C
:1017F0002046FFF7AAF9206800F58050816941F47E
:1018000000518161206800F58050816941F002013A
:10181000816184F84450002084F8450070BD0220A6
:1018200070BD70B5044690F84500012834D00125FC
:1018300084F84550022084F84400206800F5805068
:10184000816921F400518161206800F5805081692F
:1018500021F0020181612068016821F0040101602A
:10186000206806680120FFF725FD206806602046F5
:10187000FFF76BF92068016821F00801016020681A
:1018800006680120FFF716FD2068066084F84450C2
:10189000002084F8450070BD022070BDF0B590F8BE
:1018A00045200023012A11D0012780F8457002222B
:1018B00080F84420002559B1C66A3268002A0ADA45
:1018C000122100F8441F45700120F0BD0220F0BD38
:1018D00000F8447FF7E740F2F454A14209D9B1FB84
:1018E000F4F204FB121CBCF1000F00D0521C012AC0
:1018F00043D1326842F040523260C26AC1F30C01F7
:101900005160C16A0A6842F000420A60C16AC9684F
:10191000C16234E0D6F800C02CF0405CC6F800C0CC
:1019200033B9C66AD6F800C04CF0805CC6F800C077
:10193000C66A7460561EB34214D1C66AD6F800C097
:101940004CF0005CC6F800C0C2F10106C6EBC6163A
:1019500006EB4606D0F82CC001EB8606C6F30C0653
:10196000CCF80460C66AD6F800C04CF0004CC6F84B
:1019700000C0C66A5B1CF668C6629342CAD301689F
:1019800001F580514A69520705D504224A61016870
:1019900001F580514D6000F8447F45700020F0BD96
:1019A000F0B590F844400023422C25D0422480F822
:1019B000444006683469058A04F01C074FF6FF743A
:1019C00004EAC5253D434FF4F86707EA811129432E
:1019D00092B241F0030172610268116101685B1CFF
:1019E0000A69D20701D0A342F9D30121A34280F8AA
:1019F000441003D10320F0BD0220F0BD0020F0BD53
:101A0000082802D1014803F0B5BC70472C510020D2
:101A1000044910B50A68024202D00860FFF7F0FFDF
:101A200010BD0000143C01402DE9F04FDFF8B0E19B
:101A300000224FF001094FF0030B4FF00F0A00BFD7
:101A40000B6809FA02FC03EA0C03634570D14C6889
:101A5000022C01D0122C11D15407D1F81080E50EC0
:101A600008FA05F8D40800EB8404276A0AFA05F698
:101A7000B7432762256A45EA0805256206685500CE
:101A80000BFA05F4A64306604E68076806F00306E5
:101A9000AE403E4306604E68012E05D0022E03D0B4
:101AA000112E01D0122E13D18668A6438660CE680F
:101AB0008768AE403E438660466826EA0C0646606C
:101AC00047684E68C6F3001606FA02F637434760C9
:101AD000C668A643C6608C6804FA05F4C5682C4342
:101AE000C4604C68E40074D53E4C256845F48045DC
:101AF00025609407270F3C4C22F0030634440AFA71
:101B000007F52668AE432660384DA84201D100256E
:101B10002EE0374DA84201D1012529E0354DA842DC
:101B200001D1022524E0344DA84202D103251FE053
:101B30004FE0324DA84201D1042519E0304DA842B2
:101B400001D1052514E02F4DA84201D106250FE053
:101B50002D4DA84201D107250AE02C4DA84201D104
:101B6000082505E02A4DA84201D1092500E00A25F3
:101B7000266805FA07F535432560DEF8004075460E
:101B80009C43CEF80040164C241D26689E432660D8
:101B90004E68F60302D52E681E432E604D68AD03D5
:101BA00002D525681D4325600D4C083425689D43EA
:101BB0002560251D2E689E432E604E68F60202D5D4
:101BC00026681E4326604C68A40202D52C681C437C
:101BD0002C60521C102AFFF433AFBDE8F08F0000D8
:101BE000003C0140443802400838014000000240F7
:101BF0000004024000080240000C024000100240B5
:101C00000014024000180240001C02400020024064
:101C1000002402400069084000D0012070470AB14A
:101C20000183704741837047014800687047000096
:101C30001400002010B5040003D094F8350010B152
:101C400004E0012010BD204600F0BEF9022084F817
:101C500035002068016821F00101016000F042FBBD
:101C600030492268B0FBF1F151602F4A636893421A
:101C700006D94FF4967359434FF47A73B1FBF3F1DD
:101C80002368491C19626168914208D84900B0FB79
:101C9000F1F0C0F30B01042918D2042016E0A36868
:101CA00093B301EBC10202EB0112B0FBF2F242F47A
:101CB000804212052FD043B301EBC10202EB0111A8
:101CC000B0FBF1F040F4804040F400402168C8616E
:101CD000D4E90701084321680860D4E903100843E8
:101CE00021688860D4E9050108432168C86020683C
:101CF000016841F001010160002084F836000120F4
:101D000084F83500002010BD00E006E001EB410240
:101D1000B0FBF2F2CDE70120D8E701EB4101B0FBC7
:101D2000F1F0D1E740420F00A08601002DE9F84F05
:101D300004460AA8B0E8600894F83500012878D174
:101D4000FDB1F6B120688069C043800771D594F871
:101D5000340001286DD04FF0010884F8348042200F
:101D600084F83500002784F836702046CDF800B09E
:101D700001F064FA40B194F8360084F83470042815
:101D800078D10120BDE8F88FDFF854A1012E17D0DB
:101D9000DFF84C912068A9F13C09022E25D0416959
:101DA0008069032E68D8012E16D0022E29D05B46FA
:101DB00000224946204601F0F9FA00285AD139E0BC
:101DC0002068016821F480610160206841698169AF
:101DD000016841F4007101605B46002251462046D3
:101DE00001F0E4FA00286FD113E0016821F480616A
:101DF00001602068016841F4006101602068416968
:101E000080695B4600224946204601F0CFFA88BB34
:101E100003E02068006928704AE02068016841F406
:101E2000007101602068006928702068006968708E
:101E30003EE053E02068016821F480610160206881
:101E4000006905F8010B761EB6B25B4600224946D2
:101E5000204601F0ABFA68B92068016841F40071CE
:101E60000160206800692870206800696870AD1CF6
:101E7000B61E19E028E0FFE75B46002251462046E7
:101E800001F094FA00BB2068006905F8010B206896
:101E9000A6F10106B6B241696FEA0101490704D40F
:101EA000006905F8010B761EB6B2002E7FF479AFFB
:101EB0002068016821F4006101605B460122094944
:101EC000204601F073FA08B103205BE704F1340403
:101ED00084F8018027704FF0000053E7022051E79B
:101EE00040000100020010002DE9F84F0446DDE932
:101EF0000A6590F83500DDF8309001285ED1FEB11A
:101F0000F5B120688069C043800757D594F8340044
:101F1000012853D04FF0010884F83480322084F82F
:101F20003500002784F836702046CDF8009001F087
:101F3000F5F940B194F8360084F83470042833D1B0
:101F40000120BDE8F88FDFF878A04B46002251460B
:101F5000204601F02BFA38BB216816F8010B086106
:101F60002068A5F10105ADB241696FEA0101490799
:101F700005D435B116F8011B01616D1EADB2002DFF
:101F8000E3D14B4600225146204601F00FFA58B9E2
:101F90002068016841F4007101604B460122094943
:101FA000204601F003FA08B10320CAE704F1340423
:101FB00084F8018027704FF00000C2E70220C0E7DC
:101FC000800001000200100030B5124885B00168A1
:101FD00041F0020101604020009012200190012098
:101FE000029002200424CDE903040B4D69462846E3
:101FF000FFF71AFD80200090694604942846FFF7F9
:1020000013FD04481030016841F40011016005B06F
:1020100030BD000030380240000402400248016830
:10202000491C016070470000140000200C4810B5E6
:10203000016841F400710160016841F48061016050
:10204000016841F4807101604FF47A5000F080FB28
:10205000032000F035F800F005F8002010BD000066
:10206000003C0240704700F01F02012191404009EE
:102070004FF0E02202EB8000C0F800117047000032
:10208000F0B40E4B1B680D46C3F30223C3F10706E1
:10209000042E00D90426191D072901D2002300E0CF
:1020A000DB1E012404FA06F1491E294099409C4098
:1020B000641E14402143F0BC01F040BA0CED00E076
:1020C000064900F0070208684FF6FF03184040EA8F
:1020D0000220034A10430860704700000CED00E046
:1020E0000000FA052DE9F047DFF8B89105460E46E5
:1020F000D9F800006C4C00F007016B48083406F07A
:10210000FF0841F28837B1424DD289F80080D9F8F2
:10211000001001F00701B14278D12968890705D57F
:102120002168AA6821F0F001114321602968C907DC
:1021300025D06968012913D00068022913D08007CF
:10214000002863DA206820F0030008432060FFF7CE
:102150006BFDC619686801280CD0022814D01DE058
:1021600000688003ECE78001EAE700BFFFF75CFD51
:10217000B0425BD22068C0F381000128F6D166E04E
:10218000FFF752FDB04251D22068C0F3810002280F
:10219000F6D15CE0FFF748FDB04247D2206810F06E
:1021A0000C0FF7D153E02968890705D52168AA6883
:1021B00021F0F001114321602968C9073DD0696809
:1021C000012913D00068022913D0800700283CDAC7
:1021D000206820F0030008432060FFF725FD074436
:1021E000686801280CD0022816D022E0006880031D
:1021F000ECE78001EAE700BFFFF716FDB84215D211
:102200002068C0F381000128F6D116E01DE000BF70
:10221000FFF70AFDB84209D22068C0F38100022806
:10222000F6D10AE0FFF700FDB84202D30320BDE873
:10223000F087206810F00C0FF4D189F80080D9F8ED
:10224000000000F00700B04201D00120EFE728684D
:10225000400705D52068E96820F4E0500843206075
:102260002868000706D52068296920F4604040EA04
:10227000C100206000F01CF84FF47A71B0FBF1F05F
:10228000B0F1807F0CD220F07F414FF0E020491E5A
:102290004161064AF021117000218161072101612D
:1022A0000020C4E7003C02400038024023ED00E07B
:1022B00000B500F043F808490968F02292FAA2F24A
:1022C00001F0F001B2FA82F2D140044A515CC840F8
:1022D0000349086000BD0000083802408A8A0008EF
:1022E0000000002000B5FFF7E3FF074909684FF43D
:1022F000E05292FAA2F201F4E051B2FA82F2D14035
:10230000024A515CC84000BD083802408A8A000871
:1023100000B5FFF7CDFF074909684FF4604292FA14
:10232000A2F201F46041B2FA82F2D140024A515C59
:10233000C84000BD083802408A8A000830B51D48F0
:10234000006810F00C011C481AD01C4C042916D04F
:10235000082915D11749091F0A6802F03F030A68C6
:1023600002F480054FF4800292FAA2F2B2FA82F2ED
:10237000D54047F6C07204D0B4FBF3F003E020462A
:1023800030BDB0FBF3F00B680968134092FAA2F27B
:10239000B2FA82F2D34058434FF4403292FAA2F29A
:1023A00001F44031B2FA82F2D140491C4900B0FB3D
:1023B000F1F030BD083802400024F40040787D017F
:1023C000F0B50D46184C1646174900230222032784
:1023D000283C0028086885B013D040F0040008604D
:1023E00048158DE88D00694610480493FFF71CFBE3
:1023F000206845EAC60120F078400843206005B017
:10240000F0BD40F0010008604FF480708DE88D0051
:10241000694607480493FFF707FB2068354320F01F
:10242000EC602843EAE70000303802400008024030
:10243000000002402DE9F84F04460068DFF8FC92E6
:10244000BF4DC0074FF0000649D0D9F800104846EC
:10245000C1F38101012908D00068C0F3810002287E
:102460000AD1281D0068400206D52868800336D5A9
:102470006068012874D132E0DFF8C4A20AF1020AD0
:102480008AF80060FFF7D0FB41F2883700EB0708BD
:1024900004E000BFFFF7C8FB40457BD228688003FB
:1024A000F8D460688AF800006068012803D0FFF75C
:1024B000BBFB074410E0FFF7B7FB074404E000BF95
:1024C000FFF7B2FBB842E8D228688003F8D506E0EF
:1024D000FFF7AAFBB842E0D228688003F8D420684E
:1024E000984F80074FF0010B43D5D9F800104846AC
:1024F00011F00C0F09D00068C0F3810002280BD145
:102500008E48001F0068400206D42868800730D536
:10251000E0680128AED12CE0E068D8B1C7F800B07F
:10252000FFF782FB00F1640804E000BFFFF77CFBCB
:102530004045B2D228688007F8D52868F82292FA78
:10254000A2F22169B2FA82F220F0F8009140084329
:1025500028600EE03E60FFF767FB00F1640805E0CD
:10256000EAE000BFFFF760FB404596D2286880078D
:10257000F8D42068000727D5DFF8C0A17248616948
:102580000AF16C0A89B1C0F800B0FFF74DFB00F109
:10259000640805E07EE000BFFFF746FB404579D2C6
:1025A000DAF800008007F7D50EE00660FFF73CFB85
:1025B00000F1640804E000BFFFF736FB404569D234
:1025C000DAF800008007F7D42068400752D55B484E
:1025D0003830016841F080510160DFF870A1DAF80D
:1025E000001041F48071CAF80010FFF71DFB00F1E4
:1025F000640803E0FFF718FB40454BD2DAF800000F
:10260000C005F7D5DFF8348108F1680888F8006064
:10261000FFF70AFB41F2883A5044009005E000BF02
:10262000FFF702FB009988427ED2D8F800008007AD
:10263000F6D4A06888F80000A068012803D0FFF74E
:10264000F3FA824412E0FFF7EFFA824404E000BF9D
:10265000FFF7EAFA504567D2D8F800008007F7D5AF
:1026600008E000BFFFF7E0FA50455DD2D8F800005F
:102670008007F7D4A069E8B3D9F80010C1F381014D
:10268000022959D002283E6605D0FFF7CDFA00F1A5
:1026900064044CE048E0FFF7C7FA00F1640603E089
:1026A000FFF7C2FAB0423FD228688001F8D4D4E9DB
:1026B0000710084347F6C07292FAA2F2616AB2FAB2
:1026C00082F29140A26A4FF0FF3303EB52024FF4C3
:1026D000403393FAA3F3B3FA83F39A4011430843C8
:1026E0004FF0706292FAA2F2E16AB2FA82F291407D
:1026F000084300E01EE040F000511048001F016058
:10270000C7F860B0FFF790FA00F1640404E000BF7E
:10271000FFF78AFAA04207D228688001F8D509E0BD
:10272000FFF782FAA04202D30320BDE8F88F2868A1
:102730008001F5D40020F8E70120F6E708380240D0
:102740000038024000004742800E474200700040BF
:1027500010B5B0F1807F01D3012010BD20F07F4083
:102760004FF0E024401E60610F21601700F0E6FE8C
:102770000020A06107202061002010BD7047704735
:1027800010B5040003D094F8390010B104E0012022
:1027900010BD204600F00CF8022084F83900211DFD
:1027A000206801F055FA012084F83900002010BD9E
:1027B00070B505460068214CB0F1804F0BD1206800
:1027C00040F001002060002202211C20FFF758FC8D
:1027D0001C20FFF748FC1A49286888420BD1206862
:1027E00040F002002060012202211D20FFF748FC7A
:1027F0001D20FFF738FC1349286888420BD1206858
:1028000040F004002060022211461E20FFF738FC31
:102810001E20FFF728FC0C49286888420DD120684B
:1028200040F008002060032202213220FFF728FC3C
:10283000BDE870403220FFF716BC70BD4038024042
:102840000004004000080040000C00400168CA6815
:1028500042F00102CA600068016841F001010160B4
:10286000002070470168CA6822F00102CA6000684F
:10287000016A41F21112114207D1016A921011420C
:1028800003D1016821F00101016000207047704709
:1028900070B50446006801694FF00005C943890717
:1028A00017D4C168C943890713D4016921F0020113
:1028B000016101202076206880698007204602D0CF
:1028C000FFF7E5FF04E000F0A0F8204600F09EF8D6
:1028D000257620680169C943490718D4C168C943EE
:1028E000490714D4016921F0040101610220207616
:1028F0002068806910F4407F204602D0FFF7C7FFB0
:1029000004E000F082F8204600F080F82576206888
:102910000169C943090717D4C168C943090713D41A
:10292000016921F008010161042020762068806996
:102930008007204602D0FFF7AAFF04E000F065F808
:10294000204600F063F8257620680169C943C9066E
:1029500018D4C168C943C90614D4016921F0100113
:102960000161082020762068806910F4407F2046AD
:1029700002D0FFF78CFF04E000F047F8204600F09B
:1029800045F8257620680169C943C9070AD1C1689D
:10299000C943C90706D1016921F00101016120463F
:1029A00000F036F820680169C94309060AD4C168F5
:1029B000C943090606D4016921F08001016120465E
:1029C000FFF7DCFE20680169C94349060AD4C168E3
:1029D000C943490606D4016921F04001016120463E
:1029E00000F032F920680169C94389060CD4C16836
:1029F000C943890608D4016921F0200101612046FC
:102A0000BDE87040FFF7BBBE70BD70477047000067
:102A10002DE9F05F0546006800220124B0F1804FE7
:102A200036D0664988427DD1654BDFF898A1DFF842
:102A300098E11978DFF894B1491C19709AF80010E0
:102A4000634B491CC9B28AF80010BEF80060DFF879
:102A500084C1761C1FFA86F8AEF80080BBF80060CF
:102A60005D4F761CB6B2ABF800601C709CF800306D
:102A7000B1465B1CDBB28CF800303E780EB1761E9E
:102A80003E701926B3FBF6F706FB173303B323E0BA
:102A90005248534B0178491CC9B201701C70CB07D6
:102AA00014D1504B1C701423B1FBF3F503FB151329
:102AB000002B0BD14C4B1C703C23B1FBF3F503FBFB
:102AC0001511002902D1027048480470BDE8F09F3A
:102AD000474B8CF800201C700323B1FBF3F703FB7A
:102AE000171323BB434B1C700A23B1FBF3F703FB03
:102AF0001713E3B9404B1C70B1FBF6F306FB13133D
:102B0000ABB93E4B1C703223B1FBF3F603FB16133B
:102B10006BB93B4B1C706423B1FBF3F603FB16113E
:102B200029B900E015E037490C708AF800203649D1
:102B3000097801EB8103B8EB430F03D1334B1C70D1
:102B4000AEF80020B9F5FA7F03D1314B1C70ABF819
:102B500000203049884204D12F48FFF783FE2F48D8
:102B600004702F4928688842B0D12E480088012877
:102B700003D12D4A1188491E11802C490988012949
:102B800003D12B4A1188491E1180032804D0042840
:102B900004D006280FD005E0264900E02649088821
:102BA000401E08802548008801288FD124490888C4
:102BB000401E08808AE72349F1E700000004004036
:102BC0009201002073010020740100207601002092
:102BD0006E010020AA0000208F010020C400002008
:102BE000C8000020C7000020C6000020C50000204B
:102BF0008E0100206F0100204401002070010020A0
:102C000071010020720100206D0100206B01002085
:102C10006C010020000800407C500020930100203F
:102C2000000C0040A0010020BA010020CC010020CF
:102C3000BC010020BE010020C0010020CE01002008
:102C4000C4010020C20100207047704710B504463F
:102C500000680168C1F30002C16801F4807152B1DB
:102C600049B1016821F00101016094F83A0040F097
:102C7000010084F83A00206801684269C1F340010C
:102C800002F0010251B14AB1016821F00201016074
:102C900094F83A0040F0040084F83A002068016893
:102CA0004269C1F3800102F0010251B14AB10168E9
:102CB00021F00401016094F83A0040F0020084F829
:102CC0003A00206801684269C1F3C00102F00102C4
:102CD00051B14AB1016821F00801016094F83A004D
:102CE00040F0080084F83A0020680168C068C1F329
:102CF000401100F0200041B138B1204601F06AF8DF
:102D00002068016821F02001016020680168C06826
:102D1000C1F3801100F0400041B138B1204601F00C
:102D20007BF92068016821F04001016094F83A00C5
:102D3000002805D0012084F839002046FFF785FFE0
:102D400010BD10B5040003D094F8390010B104E0B0
:102D5000012010BD204600F023F8022084F839003D
:102D60002068C16821F40051C160204601F098F844
:102D70002068016921F4904101612068416921F0D6
:102D80002A0141612068C16841F40051C1600020FE
:102D900084F83A00012084F83900002010BD0000BA
:102DA0002DE9F04F0646734C00687149DFF8C4B155
:102DB000143C0225012785B04FF007084FF48069C5
:102DC000884224D1206840F001002060DBF8001028
:102DD00041F01001CBF8001060158DE8A100DFF87C
:102DE00098A1CDE9035869465046FEF71DFE694695
:102DF0005046CDF80090CDF81080FEF715FE002269
:102E000003212520FFF73CF92520FFF72CF95B492A
:102E1000DFF860A13068AAF1040A884224D1206852
:102E200040F002002060DAF8001041F48021CAF876
:102E30000010CDF80090CDE90157CDE9035869465F
:102E40004F48FEF7F1FD4FF4006000906946CDF861
:102E500010804B48FEF7E8FD012203212720FFF7F1
:102E60000FF92720FFF7FFF8464930684FF00808B0
:102E7000884226D1206840F004002060DAF8001073
:102E800041F40021CAF80010CDF80090CDE90157B7
:102E9000DFF8F490CDE9035869464846FEF7C4FDD3
:102EA0004FF4006000906946CDF810804846FEF768
:102EB000BBFD022203213420FFF7E2F83420FFF7A4
:102EC000D2F832493068884227D1206840F00400A7
:102ED0002060206840F008002060DAF8001041F41B
:102EE0008011CAF800104FF480508DE8A100CDE9A0
:102EF000035869462448FEF797FD04200090694670
:102F0000CDF810802248FEF78FFD032211463520B0
:102F1000FFF7B6F83520FFF7A6F81E49306888425B
:102F200023D1206840F004002060DBF8001041F05D
:102F30002001CBF8001040208DE8A100CDE9035816
:102F4000114D444669462846FEF76EFD80200090EC
:102F5000694604942846FEF767FD042203214720B2
:102F6000FFF78EF84720FFF77EF805B0BDE8F08F39
:102F70000010014044380240000002400048004078
:102F800000040240004C0040000802400050004095
:102F9000000C02400014014090F83930012B01D0A0
:102FA000122B2CD139B332B390F83830012B26D004
:102FB000012380F8383081628285C285002180F843
:102FC0003A1090F83920122A17D0222280F839209E
:102FD0000268D36843F48073D3600268536943F096
:102FE0000103536180F838100068C16841F0200186
:102FF000C16000207047012070473222E6E70220BE
:103000007047000070B5044600683249884208D114
:103010003148007803F0F0FC01222F492046FFF7E9
:10302000BBFF2E4920682E4E002588421BD12E481A
:103030002C4B327801785A54491CC9B201701829B6
:1030400000D105702948FFF79BFB284800680169FB
:1030500021F0010101612548FFF7F8FB0122204919
:103060002046FFF799FF22492068884231D1214A42
:1030700021493078507091F843301BBB967801237A
:1030800036B195707F280ED0087081F8403019E075
:103090007F2800D1937091F84020885491F8400027
:1030A000401C81F8400091F84000202802D381F8AC
:1030B000405007E0022805D90A78521C904201D1FD
:1030C00081F843302046BDE8704001220449FFF7F3
:1030D00063BF70BD00480040300200200050004037
:1030E000A9000020C0650020900100207C50002035
:1030F00000140140AA000020146600202DE9F047CA
:10310000044690F839000D469946012801D022283E
:1031100058D12DB322B394F83800012852D001269B
:1031200084F83860002784F83A7094F8390022282F
:1031300019D0122084F83900A284E2844FF4805818
:10314000E08C4B46401EE084A0684FF000024045F2
:103150004FF08001204613D100F0AFFF08BB04E020
:103160000120BDE8F0873220E4E728882168C0F319
:1031700008004860206908B16D1C08E0AD1C06E03D
:1031800000F09BFF68B9216815F8010B4860E08CDE
:103190000028D5D14B4600224021204600F08DFF6B
:1031A00008B10320DDE794F83900322806D084F80E
:1031B000396000BF84F838700020D2E7222084F8FC
:1031C0003900F7E70220CCE77047704770B50E462C
:1031D0001400054613D02189304604F0CDFF204667
:1031E00045B1094A41681160084A0189118003F01C
:1031F00051FB07E003F04EFB6FF00D0070BD0BB903
:1032000002F0F8FF002070BD20010020E400002043
:10321000084807490A140160074941600021C0E9D4
:103220000421C1610162C0E902218161FEF702BD92
:1032300000540040F4500020A08601002DE9F05F0A
:10324000044600680E4617460168984641F48061BE
:1032500001602068016841F4807101604FF001193C
:103260000022494620460A9B00F0A0F8F0BB2168E6
:1032700006F0FE00086109F1010B594620460A9A42
:1032800000F0D5F828B100BF94F83600042841D0EA
:1032900030E0206841698069DFF87CA00022514657
:1032A00020460A9B00F082F800BBFDB2B8F1010F86
:1032B00009D02168380A08610022514620460A9B3D
:1032C00000F074F890B9206805610022514620464C
:1032D0000A9B00F06BF848B92068016841F48071DE
:1032E00001600022494620460A9B00E002E000F00F
:1032F0005DF810B10320BDE8F09F2168F0B240F006
:1033000001000861594620460A9A00F090F800280A
:10331000BAD1F0E70120EEE7800001002DE9F04787
:10332000044600680D46DDF8209001681646984670
:1033300041F4807101604B4600224FF0011120469C
:1033400000F034F850BB216805F0FE0008614A46E1
:103350001549204600F06BF830B194F83600042887
:103360001CD10120BDE8F0872068416980690E4FBB
:103370004B467E3700223946204600F017F868B9E0
:10338000F5B2B8F1010F0BD02168300A08614B4645
:1033900000223946204600F009F808B10320E1E791
:1033A000206805610020DDE7020001002DE9F05FE3
:1033B00005460C4690461E46FEF736FC00EB060915
:1033C0004FF0000B4FF0010AC4F30747B8F1000FAC
:1033D00006D01EE0701C03D0FEF726FC484511D233
:1033E0002868012F06D0806924EA00000004000C40
:1033F00019D0EFE74069F7E7701C0AD0FEF714FC1C
:10340000484506D385F835A085F834B00320BDE8DB
:10341000F09F2868012F08D0D0F8180024EA000097
:103420000004000CE8D00020F1E74069F6E72DE940
:10343000F04704460D469146FEF7F6FB00EB090AFD
:103440004FF000074FF00108C5F3074627E020685A
:103450004069C043400513D42068016841F40071FD
:1034600001602068416921F480614161042084F891
:10347000360084F8358084F834700120BDE8F08788
:1034800019F101000BD0FEF7CFFB504507D304F133
:10349000340484F8018027704FF00300EEE72068C1
:1034A000012E06D0806925EA00000004000CE5D05A
:1034B000CDE74069F7E7000010B50C480A49002441
:1034C00001604FF41651C0E90114C4600C2104617D
:1034D000C0E90514FFF735FC012205490348FFF751
:1034E0005BFD0448047010BD0050004018520020DD
:1034F000A9000020900100200D4810B50B49016083
:103500004FF4E131416000218160C160016181615E
:103510000C214161FFF715FC012206490448FFF721
:103520003BFDBDE8104003F07BBA000000480040BE
:10353000A051002030020020704770470907090E93
:10354000002803DA00F00F00024A00E0024A81542A
:103550007047000014ED00E000E400E000B587B023
:10356000124803906FF07F40049011480590114A73
:10357000114900208DE8070005AB04AA03A90F48F4
:1035800002F062FF0D4802F097FF0C4890F83100FE
:10359000C0060A4802D503F011F801E002F092FFDC
:1035A0000749064802F0D4FF07B000BDC0A8017C5F
:1035B000C0A801017D5200080D5300082C510020C5
:1035C000B153000810B5114986B0002008701049A9
:1035D000012408700F4908700F490C700F490870DA
:1035E0000F490870FFF768FF0E48016841F00401B9
:1035F00001608015CDE900040220CDE90240694652
:103600000948FEF711FA06B010BD00009301002032
:10361000940100204501002091010020920100202A
:103620009501002030380240000802400848016837
:1036300041F0020101600748202101600121416041
:10364000002181600221C16001460348FEF7ECB908
:1036500030380240F04F0020000402400848016862
:1036600041F0020101600748012101604160002131
:1036700081600221C16001460348FEF7D5B9000010
:1036800030380240F04F0020000402400EB50648DA
:10369000FF223E218DE8070001230022A2210348DA
:1036A000FEF744FB0EBD00007C630020F4500020B8
:1036B0007CB530A10024D1E90001CDE90001FCF77F
:1036C00009FE2E4E4FF48055002229463046FEF763
:1036D000A6FA0120FDF7EEFD012229463046FEF74D
:1036E0009EFA1E20FDF7F0FDFCF7DCFD3220FDF711
:1036F000EBFD29463046FEF78DFA40B100207CBD37
:10370000641CA4B20120FDF7DFFD642C05D229461C
:103710003046FEF77FFA0028F2D0002406E0641C51
:10372000A4B20120FDF7D0FD642C05D22946304615
:10373000FEF770FA0028F2D100246D4600F024F85C
:103740002855641CE4B2052CF8D39DF802109DF8AE
:1037500003004FF4C87202EB0121084408490880B5
:103760009DF801009DF8001000EB0120054908803C
:1037700001207CBD0000000001000000000C0240A0
:10378000E0000020E20000202DE9F047002425465B
:1037900026464FF48059DFF86C8006E0641CE4B2E2
:1037A000502C08D80120FDF78FFD49464046FEF712
:1037B00031FA0028F2D000241420FDF785FD1E20E8
:1037C000FDF782FD002749464046FEF723FA40B147
:1037D000012706E0641CE4B2502C08D80120FDF754
:1037E00073FD49464046FEF715FA0028F2D16806F7
:1037F000761CF6B247EA1065082ED6D32846BDE8F7
:10380000F0870000000C02400848016841F04001C8
:103810000160074840210160012141600021816071
:103820000221C16001460348FEF7FEB8303802406D
:10383000F04F0020001802400848016841F04001A4
:10384000016081150648016001214160002181600D
:103850000221C16001460348FEF7E6B83038024055
:10386000F04F0020001802400848016841F00801AC
:103870000160C1140648016000214160816002219D
:10388000C16001460348FEF7CFB80000303802405F
:10389000F04F0020000C024010B5FCF77FFFFFF74F
:1038A000B3FFFFF7E1FFFFF7C7FFFFF7D7FEFFF713
:1038B000BDFEBDE8104000F02DBD000010B5012296
:1038C000D1030D48FEF7ABF9012211460B48FEF774
:1038D000A6F90B4C012211462046FEF7A0F9012261
:1038E00040212046FEF79BF920460122BDE810400A
:1038F0001102FEF794B900000014024000040240D7
:1039000000180240704710B50446000A00F00EF897
:10391000E0B2BDE8104000F009B810B5132000F087
:1039200005F8BDE810401420AFF3008001B54FF654
:10393000FF73012269460248FFF7E0FB08BD000063
:10394000A051002010B50446000AFFF7EFFFE0B2D7
:10395000BDE81040FFF7EABF10B50446000EFFF7C0
:10396000E5FFC4F30740FFF7E1FFC4F30720FFF7CB
:10397000DDFFE0B2BDE81040FFF7D8BF054B4FF4C4
:103980008041012803D001221846FEF748B90022E1
:10399000FAE70000001402402DE9FC47064600202B
:1039A0008DF800008DF804000446305D641CE4B21C
:1039B0000028FAD10025E01C4FF6FF77DFF8808061
:1039C00000F0FF0ADFF87C9003E0042D19D0022DEF
:1039D0001BD019F8050000BF8DF804009DF8000009
:1039E0009DF804103B4648408DF80000012201A9D3
:1039F0001548FFF783FB6D1CEDB2052DE5D30025BF
:103A000014E098F80000C000E6E78DF804A0E5E7B0
:103A1000705D9DF800103B4648408DF8000071191C
:103A200001220948FFF76AFB6D1CEDB2A542EFD3F6
:103A30003B46012269460448FFF760FBBDE8FC876E
:103A4000960100202C8B000864510020FEF7E6BA96
:103A50000D48016841F0010101600B4A0021083264
:103A600011600268094B1A400260031D084A1A607F
:103A7000026822F48022026003480C30016005498C
:103A8000580608607047000000380240FFFFF6FE4D
:103A90001030002408ED00E02DE9F04387B0AA20A3
:103AA0008DF810000020DFF854818DF80C000646D8
:103AB00088F8130052A0FFF76FFFFF2503AF012422
:103AC00000970123FF22A0215448CDE90145FEF7CC
:103AD0002DF918B1761CF6B20A2EF1D39DF80C0020
:103AE0000DF11009401C8DF810000026CDF8009053
:103AF0000123FF22A1214948CDE90145FEF7F4F950
:103B000018B1761CF6B20A2EF0D3002600970123D6
:103B1000FF22A0214148CDE90145FEF707F918B180
:103B2000761CF6B20A2EF1D39DF810009DF80C1009
:103B3000884205D0B8F82C1041F48071A8F82C10F8
:103B4000FCF770FE454688F81A00012803D1A88DBD
:103B500040F00200A885FCF76DFEE876012803D14D
:103B6000A88D40F00100A885FCF76AFE287701289F
:103B700003D1A88D40F00800A885FCF7E1FE80B2D3
:103B800040F24C41E885884203D9A88D40F480403A
:103B9000A88500264FF47A77FFF78AFD012806D022
:103BA0003846FDF787FB761CF6B2052EF4D3288E37
:103BB000B0F5617F03D9A98D41F01001A985C8280E
:103BC00003D2A88D40F02000A885688E40F2B6315F
:103BD000884203D9A98D41F04001A985322803D23A
:103BE000A88D40F08000A885EC740120FCF707FE4A
:103BF000FCF72CFE07B00020BDE8F083B0000020E9
:103C00005B7631315DBBB6D3ADCAB9D3C3D7BFD4B0
:103C1000BDD6B1C1F7B3E4B5E7D7AE00F45000208C
:103C20000148FEF735BE0000045000200148FEF7B1
:103C30002FBE0000405000200148FEF729BE0000C2
:103C40007C5000200148FEF723BE0000B850002041
:103C5000F0B50268234B244D244E254F254C4FF0E0
:103C6000804E984209D0704507D0A84205D0B04296
:103C700003D0B84201D0A04204D122F0700C4A68AF
:103C800042EA0C0298421BD0704519D0A84217D0C6
:103C9000B04215D0B84213D0A04211D0164DA84260
:103CA0000ED0164DA8420BD0154DA84208D0154D88
:103CB000A84205D0144DA84202D0144DA84203D109
:103CC00022F44075CA682A4302608A68C2620A68A0
:103CD0008262984201D0A04201D1096901630121A9
:103CE0004161F0BD000001400004004000080040B8
:103CF000000C00400004014000400140004401402D
:103D00000048014000180040001C00400020004016
:103D100070B525484FF08041244D016041F2873154
:103D2000C160296844F62066B1FBF6F10024491E03
:103D30000461C0E90114FEF723FD1B48FEF786FD70
:103D400019481B493C3001606321C1602968046146
:103D5000B1FBF6F1491EC0E90114FEF711FD12484E
:103D60001449783001601D21C16029680461B1FBEC
:103D7000F6F1491EC0E90114FEF702FD0A480E499A
:103D8000B430016042F20F71C16029680461B1FB77
:103D9000F6F1491EC0E90114FEF7F2FCBDE87040DF
:103DA0000148B430FEF752BD04500020000000204E
:103DB0000004004000080040000C00400148FEF7ED
:103DC00045BF0000DC5100200148FEF73FBF000066
:103DD0001852002010B590F83910222901D032294C
:103DE0005CD190F83810012958D0012280F8382091
:103DF0008168B1F5805F15D001690029016824D080
:103E0000496801F07F04816A4B1C83620C70C18D8C
:103E10004FF00003491E0904090CC1851CD080F82D
:103E2000383035E00369816A002B03685B6805D090
:103E3000DBB20B80816A491C8162E8E7C3F30803A7
:103E40000B80816A01F10201F6E74B68816A01F19A
:103E5000010484620B70DAE701680C68A406FCD4E4
:103E6000CC6824F02004CC6090F83910322911D0AD
:103E70000168CC6824F48074CC6001684C6924F03B
:103E800001044C6180F8392080F83830FFF7BAF827
:103E9000002010BD122180F83910F5E7022010BD76
:103EA0002DE9F04101680446086920F44052E068B9
:103EB000104308612268D06849F20C618843236985
:103EC000A168E569194363692B4319430143D16034
:103ED0002168486920F44072A06910434861E16993
:103EE00064253226B1F5004F494A4A4821681DD061
:103EF000814201D091426AD1FEF70AFA00EBC0017B
:103F000001EB00106168A8468900B0FBF1F1B1FB3C
:103F1000F8F5FEF7FDF900EBC00101EB0010616858
:103F20008900B0FBF1F7FEF7F3F969E0814201D0B7
:103F3000914219D1FEF7ECF900EBC00101EB001042
:103F40006168A8464900B0FBF1F1B1FBF8F5FEF756
:103F5000DFF900EBC00101EB001061684900B0FB24
:103F6000F1F7FEF7D5F918E0FEF7BCF900EBC00158
:103F700001EB00106168A8464900B0FBF1F1B1FB0C
:103F8000F8F5FEF7AFF900EBC00101EB0010616836
:103F90004900B0FBF1F7FEF7A5F900EBC00101EB1A
:103FA000001061685FEA4101B0FBF1F1B1FBF8F08C
:103FB0006FF01801484307EB800006EB0011B1FBDE
:103FC000F8F0216865F31F108860BDE8F081FEF706
:103FD00089F900EBC00101EB00106168A846890077
:103FE000B0FBF1F1B1FBF8F5FEF77CF900EBC00195
:103FF00001EB001061688900B0FBF1F7FEF772F980
:1040000000EBC00101EB001061688900CCE7000003
:10401000001401400010014010B590F83910122929
:1040200001D0322947D190F83810012943D001221C
:1040300080F838208168B1F5805F016A10D04B1C90
:104040000362036809785960C18C491E0B041B0C7C
:10405000C3844FF0000111D080F83810002010BD4B
:1040600009880368C1F30801596001690029016AE0
:1040700002D0491C0162E7E7891CFBE70368DC68A2
:1040800024F04004DC6090F83930322B11D0036802
:10409000DC6824F48074DC6003685C6924F001044B
:1040A000C3F8144080F8392080F83810FFF78CF8F6
:1040B000D4E72222F6E7022010BD2DE9F04704469E
:1040C0000E4690461D46FDF7AFFD47195FEA080012
:1040D0004FF000084FF0010906D02CE0681C03D017
:1040E000FDF7A2FDB8420BD22068006836EA000056
:1040F000F4D125E0681C1ED0FDF796FDB8421AD316
:104100002068C16821F08001C1602068C16821F089
:104110002001C1602068C16821F48071C1602068FD
:10412000416921F00101416184F8399084F83880B7
:104130000320BDE8F0872068006836EA0000D9D087
:104140000020F6E70148FEF781BD00006451002021
:104150000848074901604FF4165141600021816011
:10416000C160016181610C214161FEF7EABD00007F
:1041700000100140645100200148FEF767BD0000B7
:10418000A05100200148FEF761BD000054520020FC
:104190000C4810B50A4901604FF4165141600021E6
:1041A0008160C160016181610C214161FEF7C9FD3F
:1041B000BDE81040012204490248FEF7EDBE0000B0
:1041C0000014014054520020A900002010B50446FC
:1041D000FFF7A3FB0520FFF7A9FB8220FFF7A6FB53
:1041E000AE20FFF790FB2046BDE81040FFF7AABBCA
:1041F00010B50446FFF791FB0720FFF797FB8220DD
:10420000FFF794FBA420FFF77EFB2046BDE810409B
:10421000FFF7A2BB10B50446FFF77FFB0520FFF7B1
:1042200085FB8220FFF782FBB020FFF76CFB204666
:10423000BDE81040FFF786BB10B50446FFF76DFBE5
:104240000520FFF773FB8220FFF770FBB620FFF716
:104250005AFB2046BDE81040FFF774BB10B504467A
:10426000FFF75BFB0520FFF761FB8220FFF75EFB9A
:10427000B820FFF748FB2046BDE81040FFF762BBBF
:1042800010B50446FFF749FB0520FFF74FFB8220DE
:10429000FFF74CFBBA20FFF736FB2046BDE8104085
:1042A000FFF750BB10B50446FFF737FB0520FFF7BB
:1042B0003DFB8220FFF73AFBB220FFF724FB2046AC
:1042C000BDE81040FFF73EBB10B50446FFF725FBE5
:1042D0000520FFF72BFB8220FFF728FBB420FFF718
:1042E00012FB2046BDE81040FFF72CBB10B504467A
:1042F000FFF713FB0520FFF719FB8220FFF716FBE2
:10430000AC20FFF700FB2046BDE81040FFF71ABBCA
:10431000704770470948016841F020010160084872
:104320004FF40041016001214160002181600221C0
:10433000C16001460348FDF777BB000030380240FA
:10434000F04F00200014024002E008C8121F08C10C
:10435000002AFAD170477047002001E001C1121F06
:10436000002AFBD17047000010B500F025FFBDE822
:1043700010400022024941F2883002F097BB000051
:104380006943000801F036BF00280BD0426A002ABA
:1043900008D0137B082B05D10968526A914201D1DC
:1043A00000F036B970472DE9FC41050059D06C6A20
:1043B000002C56D0616B4FF03C064F1C4FF48033FD
:1043C0004FF001024FF6FF700AD01E31B1FBF6F13B
:1043D000994200D301460904090CA18300D1A283AC
:1043E000A16B4F1C0AD01E31B1FBF6F1994200D3EC
:1043F00001460904090CE18300D1E283A28BE18B21
:104400008A4202D309B10021A183A17B09B1A06A2C
:1044100009E094F824107F2901D8FF2003E0C02987
:1044200001D36FF07F400090E06A019028B9606A84
:104430000099084040F08070019004F12401284662
:1044400002F052F86946284602F0B4F801A928465D
:1044500002F045F8284602F0B1F80A21204600F0A3
:10446000A7FBBDE8FC8170B5446A054608212046DB
:1044700000F09EFB002204F12401284600F0B4FD68
:10448000607B401C60730120608370BD164810B5CE
:10449000046825E0616A11B3C88B421ECA830128F3
:1044A00006D0616A888B421E8A8301280CD016E0F0
:1044B000616A2046097B012903D00A2901D0052918
:1044C0000DD100F0DFF90AE0616A2046097B01297D
:1044D00003D00A2901D0052901D100F0B7FA2468D8
:1044E000002CD7D110BD0000380000202DE9F0418C
:1044F00006000C4617460CD07CB100224FF49A718E
:10450000104602F06BF8206150B1627B3E4952B117
:104510000CE06FF00D00BDE8F0816FF00500FAE7E8
:104520004FF0FF30F7E70A68521C0A600968216003
:104530004168012061610870616900254870616906
:1045400096F82A0088706069C570206801F050FDF7
:104550006169082F4860606905816069458160690B
:10456000C56008D0042F06D0032F07D1207B052873
:1045700001D0042802D161697068C8606069056172
:1045800060694561606985615FF0000096F82A10F6
:10459000814203D9311891F82B1000E0002100F17D
:1045A0001C036269401C80B2D1541028EED3002055
:1045B00000F12C016269401C80B255544028F7D3A9
:1045C0005FF0000000F16C016269401C80B255543C
:1045D0008028F7D361690D48C1F8EC0025830020DD
:1045E000626900F1F0015054401C80B24428F7D3B6
:1045F00001223521204600F0E4F83946204600F03B
:10460000F0F8002087E70000180000206382536361
:10461000F8B5446A05460C21204600F0C9FA042288
:1046200021462846FFF762FF06001ED104223221F0
:10463000204600F0C6F8606A01F0EDFC0146204615
:1046400000F0D7F8204600F006F9208BF03081B258
:10465000206902F078F900954323074A21696068D0
:1046600004F0B8F9204600F009F8607B401C607344
:10467000142060833046F8BD1C8B000810B5040080
:1046800006D0206908B102F005F9002020616061C0
:1046900010BD0000F8B5446A05460020606206219E
:1046A000204600F085FA012221462846FFF71EFF2A
:1046B000060030D102223921204600F082F8298DEF
:1046C000204600F0B7F804223721204600F079F8A0
:1046D0000121204600F085F80321204600F081F8F2
:1046E0001C21204600F07DF80621204600F079F8D4
:1046F000204600F0B0F8208BF03081B2206902F043
:1047000022F9009543230F4A2169606804F062F999
:104710002046FFF7B3FF607B401CC0B260730628E1
:1047200002D20121814000E03C214FF47A704143E4
:1047300088B200F2F3104FF4FA71B0FBF1F060832D
:104740003046F8BD1C8B000870B50B480025046886
:104750000EE0606A58B1418B012903D9A1F1010132
:10476000418304E003D14583204600F029FA246800
:10477000002CEED170BD00003800002070B5446AF6
:104780000546002C1CD0207B002604280FD004DC1A
:10479000002815D0032804D109E0052807D00A28ED
:1047A00005D066732846BDE87040FFF773BF284602
:1047B00001F088FE66732846BDE8704000F0A4B89A
:1047C00070BD10B5038B44691C445B1C038384F8E3
:1047D000F010018B43690B44491C018383F8F020DE
:1047E00010BD028B43691344521C028383F8F010FE
:1047F000704710B5028B44690B0E1444521C02839F
:1048000084F8F030028B44690B0C1444521C028370
:1048100084F8F030028B44690B0A1444521C028362
:1048200084F8F030028B43691344521C028383F8EE
:10483000F01010BD10B5028B44690B0A1444521CD1
:10484000028384F8F030028B43691344521C0283C4
:1048500083F8F01010BD002812D0018B4369FF22AD
:104860000B44491C018383F8F020002205E04369D2
:104870000B44491C018383F8F020018B4429F6D3B3
:1048800070470000F8B5446A05460421204600F050
:104890008FF9032221462846FFF728FE06001BD188
:1048A000022239212046FFF78CFF298D2046FFF791
:1048B000C1FF2046FFF7CFFF208BF03081B2206987
:1048C00002F041F8009543230E4A2169606804F024
:1048D00081F82046FFF7D2FE607B401CC0B26073B7
:1048E0000A2803D24FF47A71484301E042F2107073
:1048F00080B200F2F3104FF4FA71B0FBF1F0608374
:104900003046F8BD1C8B0008F8B5446A0646032102
:10491000204600F04DF9032221463046FFF7E6FD20
:10492000050028D1022239212046FFF74AFF4FF423
:1049300010712046FFF77EFF042232212046FFF748
:1049400040FF606A01F067FB01462046FFF751FF18
:104950002046FFF780FF208BF03081B2206901F004
:10496000F2FF009643230F4A2169606804F032F891
:104970002046FFF783FE607B401CC0B260730A28AC
:1049800003D24FF47A71484301E042F2107080B2D2
:1049900000F2F3104FF4FA71B0FBF1F06083284697
:1049A000F8BD00001C8B0008F8B5446A05460021DC
:1049B000204600F0FDF8002020626062A062E06204
:1049C000A06360632063072221462846FFF78EFD1F
:1049D000060013D12046FFF73EFF208BF03081B256
:1049E000206901F0B0FF0095432304F12002216902
:1049F000606803F0EFFF2046FFF740FE607B401C3D
:104A0000C0B260730A2803D24FF47A71484301E0C0
:104A100042F2107080B200F2F3104FF4FA71B0FB62
:104A2000F1F06083284601F04DFD0749284601F06A
:104A30005BFD0549284601F052FD0349284601F077
:104A4000B9FD3046F8BD0000188B0008F8B5446A7F
:104A500005460521204600F0ABF8032221462846F2
:104A6000FFF744FD06001CD1022239212046FFF742
:104A7000A8FE298D2046FFF7DDFE2046FFF7EBFE5E
:104A8000208BF03081B2206901F05DFF0095432357
:104A900004F120022169606803F09CFF2046FFF7C3
:104AA000EDFD607B401CC0B260730A2803D24FF456
:104AB000FA61484301E044F6206080B200F2F3104E
:104AC0004FF4FA71B0FBF1F060833046F8BD00009E
:104AD000F8B5446A05460121204600F069F8032232
:104AE00021462846FFF702FD060048D1022239215F
:104AF0002046FFF766FE298D2046FFF79BFE042225
:104B000032212046FFF75DFE606A01F084FA01461B
:104B10002046FFF76EFE042236212046FFF751FEA5
:104B2000206A01F078FA01462046FFF762FE04226F
:104B300037212046FFF745FE01212046FFF751FEB1
:104B400003212046FFF74DFE1C212046FFF749FEBA
:104B500006212046FFF745FE2046FFF77CFE208B0E
:104B6000F03081B2206901F0EEFE009543230F4A38
:104B70002169606803F02EFF2046FFF77FFD607B10
:104B8000401CC0B26073062802D20121814000E0BF
:104B90003C214FF47A70414388B200F2F3104FF495
:104BA000FA71B0FBF1F060833046F8BD1C8B000851
:104BB000027B8A4203D00173002141734183704715
:104BC00010B5426A0446117B0C2913D0062911D076
:104BD000012913D008291ED0052928D004292AD05C
:104BE000032930D1507B022813D22046BDE8104063
:104BF000FFF78ABEBDE81040FFF74CBD507B05288B
:104C000004D82046BDE81040FFF762BF2046FFF7FA
:104C1000CBFE2046EEE7507B0128204603D8BDE8B6
:104C20001040FFF720BCBDE81040FFF7BCBBBDE85B
:104C30001040FFF70BBF507B0828E7D82046BDE89F
:104C40001040FFF71FBE10BD10B5FFF71FFCBDE8F9
:104C50001040002202494EF6602001F027BF0000FC
:104C6000494C000810B5FFF76FFDBDE81040002269
:104C700002494FF4FA7001F019BF0000654C0008BA
:104C80002DE9F84F0500894690465ED0B8F80A0035
:104C90002A2857D3D8F804604FF4807A06F10E041E
:104CA000F08950454ED1207906284BD160790428EF
:104CB00048D16088082845D1D4F80E000090A16939
:104CC000281D06D0686820B1814202D101273B46E9
:104CD00001E00027022304F108026946284600F09B
:104CE0008FFAE088504503D0B0F5007F2AD125E047
:104CF0001FB3022001F07EF9E080D4F80E00A0611D
:104D00006868C4F80E00A068C4F81200A089E082A8
:104D1000A0683060A089B080D9F80010A160B9F80F
:104D20000400A081D9F80010C6F80610B9F80400F4
:104D30007081AA6941462846904703E069462846A3
:104D4000FFF722FB404601F0A5FDBDE8F88F00000B
:104D500070B50A4D0646002404EB840005EB800084
:104D6000817C29B18068B04202D1204600F07CF8F5
:104D7000641CE4B20A2CEFD370BD0000284F002061
:104D80002DE9FC5F0A258B4600210446DFF8D4801C
:104D9000AC4628460091A9468E46019101EB810A56
:104DA00008EB8A030A289A7C08D0B2B154B126686D
:104DB0005F68BE4206D148B2BDE8FC9F002AF5D12B
:104DC00048B20AE0012A16D0022A06D3DA7C019BF7
:104DD0009A4202D34FFA81FC0192491CC9B20A29B6
:104DE000DCD35FEA8B724FF0FF3139D40A2813D03D
:104DF00015DAC5B225E058F82A20002ADA7C05D059
:104E00007245EAD34FFA81F99646E6E7009B9A424B
:104E1000E3D34DB20092E0E75FEACB7020D0BCF163
:104E20000A0F02DA0CF0FF0508E00A2D01DAEDB2F4
:104E300004E0B9F10A0F13DA09F0FF05284600F083
:104E400013F82CB105EB850208EB82002168416064
:104E500005EB850008EB80000022C27468B2ABE766
:104E60000846A9E7284F002070B50C4D00EB8006DE
:104E7000002455F8260018B101F00CFD45F8264035
:104E800005EB860006498474C47484604460D1F8DC
:104E90000620C2604989018270BD0000284F0020B1
:104EA000208B00082DE9FC410E46044615460E21D4
:104EB000304601F018FD18B16FF00100BDE8FC812B
:104EC0002146286800F0C8FB08B1334B3FE0286852
:104ED000C0F303110E2925D0A168636800EA01021E
:104EE0000B409A420BD080B2A0F57E41A93906D082
:104EF00014F10C0033D0E06880B304F10C05274BAB
:104F000027491A7802EB820001EB8000877C022F90
:104F100028D32F684068874224D13146204600F0CC
:104F200041F8CBE701208DF8000000208DF801004A
:104F30005E208DF8020068786B4600F07F008DF8E7
:104F40000300A8788DF80400E8788DF8050004F1D6
:104F50002B023146204600F01FF9AFE7FFE76FF064
:104F60000300ABE75FF0000000EB800201EB820280
:104F7000977C022F06D32F685268974202D1C2B2A3
:104F80001A70CAE7401C40B20A28EDDB32462946B7
:104F9000204600F029F891E7208B0008A8000020A7
:104FA000284F002070B505460E460E4802EB8201E0
:104FB00000EB8104A07C022809D1E07CE42806D320
:104FC000211D284600F0D6F808B90320A07404F18A
:104FD0000C0305F12B0231462846BDE8704000F075
:104FE000DBB80000284F00202DE9F74F82B088463B
:104FF00002984FF0FF3B2B300090086814465E4645
:10500000029900F029FBD8B9D8F80000C0F30311C9
:105010000E2915D0B8F1000F12D088B101214046F9
:10502000FFF7AEFE071E0DDBDFF8A0A007EB870938
:105030000AEB8905A87C40B1012808D03CB10DE0FD
:105040006FF00D0005B0BDE8F08F0120A874414657
:10505000029800F08FF80646002CF3D0A87CD046CA
:1050600002280AD31A4805F10C0321460770009A5A
:10507000029800F091F8064626E0012824D1204647
:10508000017B01290ED001890022032001F0A6FA3C
:10509000050018D0214601F07CFB58B1284601F0EC
:1050A000F9FB10E000680028EAD12546204601F00F
:1050B00072FC45B158F8290008B101F0EBFB48F843
:1050C0002950002600E05E463046BBE7284F00200E
:1050D000A80000202DE9F05F8146884692461F46D1
:1050E00000222A210320DDF82CB001F077FA060017
:1050F0003DD075680D9805F10E0400F07BFFE0804F
:105100003868A060B888A081DBF80010C4F81210DD
:10511000BBF80400E082DAF800102960BAF8040055
:10512000A880D8F80010C5F80610B8F80400688107
:105130000A9831460068C4F80E000C980068A06117
:105140004FF48070208008206080062020710420A9
:1051500060714FF4C160A881D9F818204846904783
:105160000446304601F096FB2046BDE8F09F4FF024
:10517000FF30FAE71FB50123064C021DCDE90213EB
:10518000CDE9002400F12B031946A21FFFF7A2FF6F
:1051900004B010BD268B000830B44C681D68256033
:1051A0009B88A3801368C4F8063092886281082225
:1051B000A281826930BC104770B5104D002400BF39
:1051C00004EB840005EB8001887C90B1CA7C521C02
:1051D000D2B2CA74F02A06D2012802D0032806D01F
:1051E00007E0022A05D32046FFF73EFE01E0022039
:1051F0008874641CE4B20A2CE2D370BD284F0020EE
:105200002DE9F04104460D0016461F4630D02868AF
:1052100070B3214600F020FA50BB2868C0F3031099
:105220000E2825D039462846FFF7AAFD00281DDBA9
:1052300000EB80011048022300EB8102937494601C
:105240003368D360B38813820023D37450F821509D
:105250005DB140F82130334604F12B022946204647
:10526000FFF79AFF284601F015FB0020BDE8F0810A
:105270006FF00D00FAE70000284F002070B50446DB
:1052800040890D460E283AD9606801788689CA0798
:1052900014D0012905D006221B49FAF7B6FF48B100
:1052A0000CE0417851B980785E2807D1607B40F0EE
:1052B000100002E0607B40F008006073082E03D00D
:1052C000B6F5C16F1BD10EE095F83100800616D5FA
:1052D0006FF00D01204601F006FB80B929462046FB
:1052E00000F08AFA09E095F83100800607D52246D9
:1052F00005F12B012846FFF7C3FC002070BD2046B6
:1053000001F0C8FAF9E70000208B000810B57321FE
:1053100080F83210742180F8331004494161044947
:10532000816100F0A3FD002010BD0000A54E000823
:10533000495F00083EB5044690F83100C00610D51C
:105340000A4800906FF07F4001900948029002AB3C
:1053500001AA6946204601F09EF8204601F02EF988
:105360003EBD204601F0AEF83EBD0000C0A8017C65
:10537000C0A8010138B50021044600916A461221F7
:105380000A48FCF7DDF9009989040AD56A4610211C
:105390000648FCF7D5F90098C007204602D001F076
:1053A000E8F838BD01F0D8F838BD000004990020B5
:1053B0002DE9F84300258046009590F831002E46EF
:1053C000C0063FD5234C606848B34FF4805200219B
:1053D0002046FCF7E5FA4FF6FF776D1C6A4601217F
:1053E0001C48FCF7ADF90098800601D4BD42F4D307
:1053F000BD4214D06A4610211648FCF7A1F9009866
:10540000410703D54FF40061E16000E0E6608007EA
:1054100001D5A6600EE04FF48040A0600AE0E0688D
:105420000021C0F3CF02A068C0F34F000243094837
:10543000FCF7B6FA00210748FBF754FF0548FCF7D4
:10544000B3F902E00348FCF7ECF94046FFF772FFBE
:10545000BDE8F8830499002010B50C46082000F040
:10546000F9FE01000FD0002008604860204601F0DE
:105470003FFC0649204602F06BFE0549204601F03C
:1054800028FE002010BD4FF0FF3010BDCD310008C8
:10549000854300080A46032100F07EB82DE9FE4F3F
:1054A000456804468A46287800074FEA9068C8F1A4
:1054B00000010F46204601F016FA002862D120892B
:1054C00004285FD36068007800285BD0082859D191
:1054D0002F4901260868C0F303120E2A00D10026C6
:1054E0008946514600F0B8F8E8BBE6B320890828A1
:1054F00048D3204600F08CF8A8BB2221204601F0BA
:10550000F2F9D0B14146204601F0EDF958BB2189AE
:105510000022022001F062F8060033D0214601F09B
:1055200038F900BB39463046756801F0DCF9D0B96E
:10553000204601F0AFF9344605E06FF02101204626
:1055400001F0D1F978B96068D9F80010E960114923
:1055500000260968296106704680FF2028726E8146
:105560004146204600E00DE001F0BDF950B90121AF
:10557000CDE90061FF230022CDF808A004492046B0
:1055800000F00EFA2046BDE8FE4F01F083B900009E
:105590009C000020980000202DE9FE4307460E469F
:1055A000914600222421012001F018F8050023D0A3
:1055B0006C68D7F804801C22267084F801900026BD
:1055C000A680E680686879680830FAF7F9FD668099
:1055D0006989204600F016F86080D8F80C00029027
:1055E0000120CDE90060FF2302AA0021284600F037
:1055F000BDF9284601F04EF9BDE8FE830A460B21AD
:10560000FFF7CABF10B500F00BFDC04380B210BD5C
:1056100070B500242646054613E06989686800F0E5
:10562000FFFC204481B201EB10446889C00707D019
:10563000C6F10100C6B2E0B2C4F3072141EA00247A
:105640002D68002DE9D126B1E0B2C4F3072141EA6B
:105650000024E04380B270BD421C12D088B191F8A2
:10566000312092070BD54A68824208D0896800EA47
:1056700001030A40934202D10143491C01D000209A
:1056800070470120704700002DE9F74F8AB00446AB
:105690000B9814270025068D60680590C08800F0DF
:1056A000BCFCC0F30C0B00F40050079020891438A8
:1056B000143E1FFA80F8F01706EB5070C0F3CF00CD
:1056C0000896069083E00899884501DC012000E0F7
:1056D0000020079ACBF30C0111430491D8B1404646
:1056E00080B2039000221421022000F077FF5FEACD
:1056F000000916D01422D9F804000599FAF760FDC4
:10570000D9F8040002906068384460606089C01B6A
:105710006081039E31E041F4005004900698C0007F
:10572000DEE74FF0FF300DB0BDE8F08F6589B54280
:1057300000D9354605B3062000F076FE07004CD0B0
:105740006068CDE900053B4602222946032000F0AF
:10575000CFFF5FEA000A44D0204601F01CF923483D
:10576000C7E904045146484600F0EDFF701B0604EB
:10577000360C04D02468D9E72468002ED6D12F46F1
:10578000049800F037FC0299C8800398143080B266
:1057900000F030FC029948800298002141811421D8
:1057A0000298FFF72FFF029948810B9849460C9AFF
:1057B00043699847484601F06DF803980699A8EBAD
:1057C00000001FFA80F80BEB01001FFA80FBB8F114
:1057D000000F7FF478AF0020A5E7484601F05AF8A3
:1057E0009FE7384600F004F8F7E70000555E000830
:1057F0000146062000F0E0BD2DE9F05F4568064651
:105800000F4628780421B1EB101F0CD100074FEA96
:105810009069688800F001FC728901464A4502D30C
:105820003089884203D2304601F034F861E03046D6
:1058300001F089F84B482969A0F1040A0160EA687F
:105840004FF001083C468346CAF8002094F8310026
:10585000C0070DD0201D0BD0616849B1DBF80000F6
:10586000884203D02146FFF7F7FE08B174B116E075
:10587000B8F1000F04D03C484FF00008046800E085
:105880002468BC4200D12468002CDFD1687A11283A
:1058900005D105EB09004088B0F5884F27D0DAF82C
:1058A000002062B1D04639461046FFF7D5FE0028E9
:1058B000B9D1D8F80000C0F303100E28B3D0002CE3
:1058C000B1D0E88830F0C00005D0304600F0BCF818
:1058D00006000ED07568DFF88C803946A8F11008F4
:1058E0003046C8E9017501F0A7F828B12FE03C4621
:1058F000E5E70020BDE8F09F687A012815D006286A
:105900000ED0112807D05C463946DBF80000FFF7BF
:10591000A3FE78B118E03946304602F0A5FF16E044
:105920003946304601F00AFC11E039463046FFF7AF
:10593000B5FD0CE02068C0F303100E2804D002214E
:1059400030467560FFF7A6FD304600F0A3FF00204B
:10595000C8F80400C8F80800CAF80000CBF8000036
:10596000C7E700009C000020380000202DE9FE431E
:105970000746DDE90A45884616469946104600F076
:1059800049FA50B10094CDE901504B4632464146A8
:10599000384600F005F8BDE8FE836FF00300FAE733
:1059A0002DE9F84F0546DDE90BA6DDF828B089465C
:1059B0001700984631D0142100F095FF18B16FF010
:1059C0000100BDE8F88F6C6884F8088084F809A0AD
:1059D000386820614520207084F801B0288900F0E3
:1059E00009FBDFF8608060804FF0000AA4F806A091
:1059F000B8F8000000F0FEFAA080B8F80000401CE3
:105A0000A8F80000B9F1000F02D0D9F8000000B9E1
:105A10007068E060A4F80AA003E068686F46006957
:105A20000090308D40B12989814205D93A463146EE
:105A30002846FFF729FEC4E773693A4629463046EF
:105A40009847BEE78C0000202DE9F14F4FF0000A87
:105A500000984568287800F00F0005287ED1E88876
:105A600000F0DBFAC0044FEA1048688800F0D5FA6D
:105A7000297801F00F01494200EB81001FFA80F9FB
:105A8000009800F07DFE554E0746308838440A28BD
:105A900009D93946284600F065F900285ED03088DB
:105AA00038440A285AD84FF0000B74680DE060693A
:105AB000E968884207D1A0692969884203D1A08991
:105AC000A988884204D0A2462468002CEFD106E0C1
:105AD0002CB1E88800F0A1FAC00422D02CE0052007
