:020000040800F2
:1000000030A900209D01000875650008115E0008F8
:10001000B162000825050008BD8600080000000048
:1000200000000000000000000000000071740008E3
:10003000D13000080000000079660008C978000887
:10004000B7010008B7010008B7010008B7010008B0
:10005000B7010008B7010008B7010008B7010008A0
:10006000B7010008B7010008B7010008B701000890
:10007000B7010008B7010008B7010008B701000880
:10008000B7010008B7010008B7010008B701000870
:1000900029050008B7010008B7010008B7010008EA
:1000A000B7010008B7010008B7010008B701000850
:1000B000C97A0008D57A0008E17A0008B70100087B
:1000C000B7010008B7010008B7010008B701000830
:1000D000B7010008ED7F0008B70100082180000883
:1000E00009330008B7010008B7010008B70100088C
:1000F000B7010008B7010008B7010008B701000800
:10010000B7010008B7010008ED7A0008B701000840
:10011000657C0008717C0008B7010008B701000881
:10012000B7010008B7010008B7010008B7010008CF
:10013000B7010008B7010008B7010008B7010008BF
:10014000B701000835050008B7010008B70100082D
:10015000B7010008B7010008B70100082D800008AA
:10016000B7010008B7010008B7010008B70100088F
:10017000B7010008B7010008B7010008000000003F
:10018000B7010008B7010008DFF80CD000F04AF80A
:1001900000480047FDA5000830A900200648804718
:1001A00006480047FEE7FEE7FEE7FEE7FEE7FEE75C
:1001B000FEE7FEE7FEE7FEE7CD78000889010008CC
:1001C00040EA01039B0703D009E008C9121F08C0D9
:1001D000042AFAD203E011F8013B00F8013B521E59
:1001E000F9D27047D2B201E000F8012B491EFBD2D0
:1001F00070470022F6E710B504460846114602464D
:100200002046FFF7EFFF204610BD30B50446002022
:10021000034600E05B1C934203D2E05CCD5C401BD4
:10022000F8D030BD064C074D06E0E06840F0010311
:1002300094E8070098471034AC42F6D3FFF7A8FFC4
:1002400088D60008A8D6000870B501EB020410F8A3
:10025000015B15F0070301D110F8013B2A1106D10B
:1002600010F8012B03E010F8016B01F8016B5B1E25
:10027000F9D12B0705D40023521E0FD401F8013BFE
:10028000FAE710F8013B02F10202A1EB030303E0DD
:1002900013F8015B01F8015B521EF9D5A142D6D3D8
:1002A000002070BD0848016841F0400101608114E0
:1002B0000648016000214160012181600221C16086
:1002C0000146034804F098B930380240BC6600206B
:1002D000000C02400848016841F0400101608114AF
:1002E000064801600121416081600221C160014630
:1002F000034804F081B9000030380240BC66002099
:10030000000C02401348C178027801EB0261427888
:100310008078120402EB00200A180E48001DC178F4
:10032000037801EB0361437880781B0403EB002022
:100330000844084960398242886609D3101AC866A1
:100340003C31020E0A70020C4A70020A8A70C870B0
:10035000704700001001002008480949008CCA6E4F
:1003600050436422B0FBF2F088635831020E0A70E9
:10037000020C4A70020A8A70C870704760640020DC
:10038000B0000020FEB5314D0026C824B5F86C0041
:1003900038B1A5F86C60AE802146EC84E62008F008
:1003A000A9F9B5F85E0001284FD1214625F8264F5E
:1003B000E62008F09FF9264C2E8726606660A6602E
:1003C000688FA98F0006C9B200EB0140E98FC9B25E
:1003D00000EB0120B5F84010C9B20844C4E9030697
:1003E000666126836683A683E683688C2084A88C56
:1003F0006084E88CA084288DE084688D2085A88D99
:100400006085E88DA085288EE085688E2086A88E80
:100410006086E88EA0860D48E686803026870068D4
:10042000E0633C21204601F061FC010A84F84010A1
:1004300084F84100FF203E210094CDE90110012302
:100440000022A321034804F03BFBFEBD580200201C
:1004500060640020B451002003484079102801D185
:1004600000F042B870470000D053002010B5114C86
:10047000B4F86800801E81B2201D01F037FCB4F88A
:100480006820A31CC1B2D35C000A8B4210D1E11CCE
:10049000515C81420CD12079012805D0FF2807D179
:1004A000BDE81040FFF7D8BFBDE8104000F004B829
:1004B00010BD0000D053002005484079042803D027
:1004C000102803D106F014BB06F0FEBA70470000F6
:1004D000D0530020010901EB810100F00F0000EB77
:1004E0004100C0B2704700000D498879C97901EB1D
:1004F000002080B2B0F5885F0AD0A0F59050103887
:1005000008D0102808D0B0F5606F07D106F0FEB90A
:1005100006F0BCBA06F0FCB906F05CBA7047000001
:10052000D053002070470000014803F0BDB900001F
:1005300050530020014803F0B7B900009053002049
:1005400000200549024600BF01EB0013401CC0B269
:100550005A60C828F8D370472C550020144910B5AC
:100560000B784A78934220D001EB02125268026065
:100570004A7801EB0212127A0271002208E04B78ED
:10058000841801EB03131344521C5B7A6371D2B2DB
:1005900003799342F3D84878C822401CB0FBF2F3A9
:1005A00002FB13004870012010BD002010BD0000A8
:1005B0002C55002010B501F0EFFABDE8104001F015
:1005C0002FBB00002DE9F003DFF898902649DFF8F3
:1005D0009CC0D9F80000DFF8988047182548274EBE
:1005E000C3788278047903EB02224379017803EB24
:1005F00004238479C579204892B29BB227B1012F98
:100600000CD0022F1DD113E0D9B1012919D142809C
:1006100073808CF8014088F8015012E089B10129FB
:100620000FD18280B3808CF8024088F8025008E035
:1006300039B1012905D1C280F3808CF8034088F8D4
:1006400003500F4A7188116041888288C088114424
:1006500008440C4908600021C9F80010BDE8F00307
:1006600000F01CB9F80100207F3FF8EDBC0100202C
:10067000C0010020EC010020CC010020C4010020BA
:10068000F0000020F400002010B54FF4D872036889
:1006900002EB01129B5813F00404436B9C60046846
:1006A000436BA45857D0E4085C6003689A58436BC6
:1006B00002F00202DA604FF4DA72036802EB011210
:1006C0009B58446B03F00F03236103689A58436BF4
:1006D000C2F307225A634FF4DC72036802EB011283
:1006E0009B58446BDBB2636103689B58446BC3F354
:1006F0000723A36103689B58446BC3F30743E3617B
:1007000003689A58436B120E1A624FF4DE72036844
:1007100002EB01129B58446BDBB2636203689B5887
:10072000446BC3F30723A36203689B58446BC3F372
:100730000743E36203689A58436B120E00291A6359
:1007400001680BD00A6942F020020A6190F8381063
:10075000222908D020E0640D1C60A6E7CA6842F098
:100760002002CA60F2E701684A6922F480724A6195
:1007700001684A6922F400724A6101684A6922F4F8
:1007800080624A6101684A6922F400624A61016834
:100790004A6922F400424A6190F83810322907D0A1
:1007A0005FF0010180F8381003F01AFA002010BD44
:1007B0001221F7E710B501684A6922F001024A6187
:1007C00090F83810122918D101684A6922F4807211
:1007D0004A6101684A6922F400724A6101684A6903
:1007E00022F480624A6101684A6922F400624A6127
:1007F00001684A6922F400424A6190F838103229AF
:1008000006D0012180F8381003F0FAFA002010BD5C
:100810002221F7E730B5154A5078FFF75BFE144BFD
:1008200058709078FFF756FE124C98706078FFF77A
:1008300051FE114A5070A078FFF74CFE90705C7822
:1008400055780E49AC4205D92C1B3C344C70401EE7
:10085000907001E0281B4870987892789042A2EB43
:10086000000000D918308870012030BD2F01002011
:1008700036010020280100201F0200203D01002039
:100880000020054A014600BF02F83010401CC0B2EB
:100890004628F9D370470000D16100200020044AA7
:1008A00001461154401CC0B20828FAD3704700001A
:1008B000EC0100202DE9F05FDE4FDFF87CA34FF064
:1008C000000B87F800B09AF800005C464FF0010971
:1008D000012827D1D9480178012923D1D84D0470A6
:1008E000287820B1012806D0022814D110E0002079
:1008F00000F0F2FE0FE0D34E307800F0CBFE3078FF
:10090000401CC0B23070042805D186F8009002E087
:10091000002000F089FF2878401CC0B2287003280E
:1009200000D12C70DFF82083C84D2878152873D2A9
:10093000DFE800F0720B161972721C1F72723A72A5
:10094000727272723D535F723A00C148047001F0D6
:1009500021F8012860D1BF4832210170022046E011
:1009600000F0E2FB58E000F0DBFC55E000F096FD03
:1009700052E0B94E3078012806D101F035F801284F
:1009800002D10A20287034703878012844D1B34845
:10099000817841F00101817000F0AAFF01283BD16C
:1009A000142028703C7037E000F0B0F934E0AC4E11
:1009B0003078012804D101F073F8012800D1347097
:1009C000A8480178012927D111212970A149322293
:1009D0000A70A5490C8004701EE0A44E30780128EE
:1009E0001AD101F01FF8012816D134701220287096
:1009F00012E09E4E307801280ED101F013F8012844
:100A000002D13470182028708AF8004006F096FB56
:100A100006F0A4FB06F09AFB9548FFF79FFD00281F
:100A200072D0934893490068421A88426DD016DC10
:100A3000914AA0EB0201904256D009DC8F49401840
:100A40006FD08F4940187AD0B0F5801F4CD1AEE0FE
:100A5000B1F5802F48D0B1F5602F45D176E0B2F5E1
:100A6000102F72D040DDB2F19B6F4FD08548101827
:100A70003AD185480470FFF703FF8448DFF810E29D
:100A8000DFF810C20470844E8EF8004078498CF86C
:100A90000040347000200A7905E00B185B7908F8F3
:100AA0000030401CC0B28242F7D898F806001528E2
:100AB0001BD006DC022809D0062809D0112813D142
:100AC0000AE0162816D017280ED118E073497CE0EA
:100AD00003202870724978E06C4981F800900A215F
:100AE0002970704981F8009098E00A2028708EF8EB
:100AF000009093E00A2028708CF800908EE00A2085
:100B0000287086F8009089E090E036E0DFF878E120
:100B1000654900209EF800C001EBCC0354490A79D6
:100B200006E071E00BE00E1876791E54401CC0B24E
:100B30008242F8D80CF1010C8EF800C06EE04C48EF
:100B40005A49407908705A493FE041E04848594ABB
:100B500041791170584A81791170584AC1791170E0
:100B6000574A017A11705749407A087056490A204D
:100B700081F800908AF8009044E03D48534A41795A
:100B80001170534A81791170524AC1791170524AD9
:100B9000017A1170514A417A1170817AC07A01EB61
:100BA00000204F4908800A2028704E490DE0304847
:100BB0004D4A417911708179C27901EB02214B4A8A
:100BC00011804B49007A0870264981F8009025E091
:100BD0002749484A487910708879CA7900EB022081
:100BE000454A1080087A4A7A00EB0220434A108076
:100BF000434A887A1070C87A424908701B4912200B
:100C000081F80090287009E019483F4942790A703C
:100C100082794A70C2798A70007AC8700BF101003B
:100C200000F0FF0BBBF1320FFFF47FAEBDE8F05FC9
:100C3000FFF7C8BCD5010020EA0100201202002005
:100C4000AE000020D4010020FC010020C1000020E3
:100C500050010020D7010020DA010020B801002057
:100C6000D8010020E8010020DE010020E901002079
:100C7000B0610020F4561318F45602180CA9E1F7DD
:100C8000000015F8000027FB0402002008020020E5
:100C9000090200200A0200200B020020E2010020CD
:100CA000E3010020E5010020D16100207E01002049
:100CB000E40100208201002083010020880100203F
:100CC000890100208E010020E6010020980100200B
:100CD000990100209A0100209B0100209C01002026
:100CE0009E010020E7010020A0010020A2010020B9
:100CF000A4010020A9010020AA010020AC010020CD
:100D0000AE010020AF010020B40100202DE9F05F0A
:100D1000E44D00242878012804D100F0ABFD01281F
:100D200000D12C70022009F05BFCDF4EDFF87C83E1
:100D300010273078DFF87893DFF878A3DE4DDFF8FE
:100D40007CB301281AD1DE480088C00415D488F885
:100D5000004000F0A5FEDB488BF8007004702C709A
:100D6000042009F03DFCD849A9F80040AAF8004049
:100D7000AA200870002000F057FD34702878012860
:100D800013D188F8004000F08BFE8BF800702C70B7
:100D9000022009F025FCCC49A9F80040AAF800403F
:100DA000AA200870002000F03FFDC848C84DDFF8B9
:100DB00024830078C84EFF274FF004094FF0080A3B
:100DC000012861D1287810281AD1306B1121C0F880
:100DD0000480C0E904A1C0E90294E978816101219D
:100DE000C0E90717476269798162A979C162E97927
:100DF0000163FF21304602F043FFFFF741FD2C70F5
:100E0000B648017A02293FD14178827801EB02216C
:100E1000B34A1180C178027901EB0221B14A1180F5
:100E20004179827901EB0221AF4A1180AF4AC17941
:100E30001180417A807A01EB0020AD490880306B47
:100E40001321C0F80480C0E904A1C0E9029409217B
:100E5000C0E906140221C0E908171121C0E90A41BE
:100E60000463A448047099480470FFF709FDA24880
:100E7000FF210470984802F003FFA0480480A048B6
:100E800004700A208BF800009E48007801285AD18F
:100E90002878102828D16878A97800EB01209A4991
:100EA000400808709948E9780170306B1121C0F84A
:100EB0000480C0E904A1C0E90294E97881610121BC
:100EC000C0E90717476269798162A979C162E97946
:100ED0000163FF21804802F0D3FE874804708548F3
:100EE0002C700470FFF7CCFC88487C49007801EB3B
:100EF000C00111F8081C814222D1306B1321C0F8C7
:100F00000480C0E904A1C0E90294FC21C0E90614F0
:100F100078490A78C0E908271522C0E90A42046323
:100F20000C70FFF7ADFCFF216B4802F0A9FE73487F
:100F30000480734804700A208BF800007148047024
:100F40000A208BF8000072480078012852D12878D6
:100F5000102826D16878A97800EB01206D49400857
:100F600008706D48E9780170306B1121C0F8048079
:100F7000C0E904A1C0E90294E97881610121C0E9D6
:100F80000717476269798162A979C162E9790163CA
:100F9000FF21514802F074FE56482C700470FFF790
:100FA0006FFC4E48007A022824D1306B1321C0F820
:100FB0000480C0E904A15749C0E902940978C0E956
:100FC000061455490978C0E908171621C0E90A41F5
:100FD00004634848FF2104703F4802F051FEFFF7C8
:100FE0004FFC4B48047045480480454804700A2073
:100FF0008BF8000049480078012851D12878102842
:1010000022D16878A97800EB012045494008087092
:101010004448E9780170306B1121C0F80480C0E9C0
:1010200004A1C0E90294E97881610121C0E90717B0
:10103000476269798162A979C162E9790163FF2117
:10104000254802F01DFE2C703648244A017802EB38
:10105000C10010F8080C884222D1306B1322C0F86E
:101060000480C0E904A22E4AC0E9029412784762C3
:101070008261C0E907411721C0E90A410463FF21E9
:10108000154802F0FDFD1B480470FFF7F9FB1B48F3
:1010900004801B4804700A208BF800001F4804706D
:1010A000BDE8F09FD9010020E7010020A501002044
:1010B0008001002084010020E8010020C100002000
:1010C0009E01002044010020C200002008020020F0
:1010D000FC01002056F4EC1C50530020D16100208C
:1010E000900100209201002094010020D8000020EF
:1010F000DA00002004020020EB010020DE010020C5
:10110000D5010020090200200C0200200F0200205F
:101110000A0200200D020020100200200B02002015
:101120000E020020110200202DE9F047634D00243B
:101130002878012804D100F02DFC012800D12C7062
:101140005F4D604EFF272878DFF87C9110281CD176
:10115000306B5E4941600421C0E90214082101613D
:1011600011214161E97881610121C0E907174762D6
:1011700069798162A979C162E979016389F80040DE
:10118000FF21304602F07CFD2C705149DFF844818C
:10119000514D91F8280006280FD0287801280AD14F
:1011A0004E48017841F00101017000F0A1FB1421CB
:1011B00088F800102C70BDE8F087C8788A780004A1
:1011C00000EB02204A781044454A1060454A0879ED
:1011D000107048798A7900EB0220434A1080C87960
:1011E0004A7A00EB0220414A1080414A00200B1845
:1011F0009B7A1354401CC0B20428F8D3887B8A7CA5
:10120000CB7B00EB02604A7C120402EB0322104409
:10121000384A1080384AC87C1070384A087D1070EF
:10122000374A487D1070487ECA7D000400EB0220DA
:101230008A7D1044334A1080334A887E1070334AC6
:10124000C87E1070324A00200B181B7F1354401CBC
:10125000C0B20428F8D304200B185B7F1354401C41
:10126000C0B20B28F8D30B200B189B7F1354401CE3
:10127000C0B21128F8D3306B132141612921C0E994
:1012800006140621C0E908170221C0E90A410463D7
:1012900089F80040FF210B4802F0F2FC1D49AA200A
:1012A000087000F077FB1C4804801C480470FFF7AE
:1012B000E7FA2C70032188F800107CE7DA0100209F
:1012C000FC01002050530020EB01002056F4EC1CE0
:1012D000D1610020C1000020D5010020B80100200C
:1012E00054010020580100205A0100205C01002018
:1012F0005E010020620100206401002065010020E1
:1013000066010020680100206A0100206B010020B6
:10131000C061002050010020DE01002004020020F6
:101320002DE9F0474A4E4B4DDFF82C9130780024E0
:101330004FF0FF0810281DD1286B48494160042157
:10134000C0E902140821016111214161F178816134
:101350000121C0E90718C0F8248071798162B17950
:10136000C162F179016389F80040FF21284602F04B
:1013700087FC34703A483B4F3B4E017A02294DD1ED
:101380004178827801EB0221384A1180C1780279D4
:1013900001EB0221364A11804179827901EB022169
:1013A000344A1180C179427A01EB0221324A11801C
:1013B000324A817A1170C17A027B01EB0221304AF4
:1013C0001180417B807B01EB00202E490880286B37
:1013D0001321062541610D21C0E90614C0E90A4523
:1013E00002210463C0E9081889F80040FF21194868
:1013F00002F046FC24480470FFF742FA012009F08D
:10140000EFF800F077FB012009F0EAF800F092FA1B
:101410001E4804801E4834703D7004701D4D2878AD
:10142000012804D100F0B6FA012800D12C703078E0
:1014300001280BD11848417841F00101417000F0BA
:1014400057FA012802D1142038703470BDE8F087B3
:10145000FC01002050530020EB01002056F4EC1C4E
:10146000D1610020C1000020D50100206C010020C6
:101470006E01002070010020720100207401002024
:10148000D80000207601002004020020DE010020A8
:10149000E3010020DA010020B80100202DE9F0412D
:1014A000214D0024287801280AD100F023FB0128CF
:1014B00006D109F095F800F03DFA012800D12C7012
:1014C0001A4E1B4F1B4D307801281BD1FFF7D8F95E
:1014D0001948047019480078AA2812D118490870D0
:1014E00000F082FA17481849184A04802C700A2024
:1014F0003870012008705521117015490870154881
:1015000004803470287801280BD11348417841F0C9
:101510000401417000F0ECF9012802D11420387068
:101520002C70BDE8F0810000DB010020E401002008
:10153000C1000020D5010020EB0100207E01002029
:101540007F010020DE010020EA010020C20000200F
:10155000DC010020E0010020B801002010B52C487B
:1015600000244049047044702A48444A04702A48C0
:1015700004702A4804702A4804702A4804702A48D3
:1015800004702A4804702A4804702A4804702A48C3
:1015900004702A4804702A4804702A4804802A48A3
:1015A00004702A4804702A4804702A4804702A48A3
:1015B00004702A4804702A48047041F268000880C8
:1015C00029494FF4FA600880284940F69260088063
:1015D00027493220087027482749047010200870D6
:1015E0002749002014540C54401CC0B20428F9D3DD
:1015F000FFF746F9FFF752F9224901200870224906
:101600000870224844808480C4802148448010BDF2
:101610002C5500208801002089010020E8010020CD
:10162000DD010020E2010020E4010020E6010020AD
:10163000EA01002012020020D6010020E70100206C
:10164000E901002006020020F4010020D80100205A
:10165000D9010020DA010020DB010020DC0100209C
:10166000D5010020780100207A0100207C010020B3
:10167000D70100205001002051010020B4010020BA
:10168000B8010020C1000020D4010020CC010020BE
:10169000C40100200E4910B501440E480422006B1D
:1016A00041600021C0E90221082202610122C0E953
:1016B0000521C161016241628162C1620163FF2152
:1016C000044802F0DDFA08B1002010BD012010BD71
:1016D00080C00713905300202DE9F0474349464B43
:1016E000434C0A780021C5184448DFF808C14FF080
:1016F0000308006B4FF004094FF0080A12B1012AE9
:1017000044D06EE03E4A3F4B414E92F900201B7898
:101710004FF4877702EB03223B4B12B21A803B4B0C
:101720003678C2F57A621B7803EB0623394E9BB2FA
:10173000338016B2384ABE42168000DB1780374E1F
:10174000B2F900703688B74200DB1680B2F900208B
:101750006426724392FBF8F2C2F3072676B2267033
:1017600052B28CF800204560C0E90291C0E904A1A2
:10177000C0E90616C0E9082164214B43190C8162B7
:10178000C3F30721C162D9B2016325E0244A4FF4B3
:101790007A7312885A434FF44073B2FBF3F3B2FBEF
:1017A000F8F25BB2237052B28CF800204560C0E9B9
:1017B0000291C0E904A1C0E90613C0E90821194952
:1017C0004FF47A7209885143C1F307428262C1F330
:1017D0000722C9B2C0E90B21FF21084802F050FAE4
:1017E00010B10020BDE8F0870120FBE7B700002022
:1017F000870100208601002080C00713905300203D
:1018000088010020890100208A0100208201002037
:101810008301002080010020840100206E0100204F
:101820004A010020480100200F4910B501440F482B
:101830000422006B41600021C0E9022108220261FC
:101840000222C0E90521C161016241628162C16277
:10185000074909780163FF21044802F011FA08B131
:10186000002010BD012010BD80C007139053002040
:10187000C2000020184810B541788078184AC0EBA3
:10188000001001EB8001154801801648006B426092
:101890000022C2600422826006220261124A12689B
:1018A000D3B2C2F30722C0E90532104A1268C2F56A
:1018B0007A62D3B2C2F30722C0E90732CAB2090A78
:1018C000C0E90921FF21074802F0DAF908B1002038
:1018D00010BD012010BD00003D0100209601002038
:1018E00056F4121850530020F0000020F40000209D
:1018F0000E4810B5006B0C4941600021C160042105
:10190000816001610A490A7842614A7882618A7875
:10191000C261C9780162FF21044802F0B1F908B13F
:10192000002010BD012010BDF4561F0850530020A8
:10193000B8010020134810B5006B11494160002127
:10194000C16004218160062101610F490988CAB282
:10195000090AC0E905210D490988CAB2090AC0E986
:1019600007210B490988CAB2090AC0E90921FF21E8
:10197000044802F085F908B1002010BD012010BD17
:1019800056F4081850530020780100207A010020F6
:101990007C010020114810B5006B0F49104A4160CE
:1019A0000021C160042181600821016110211170B2
:1019B0000C4A1278C0E90521FF21C1610162416230
:1019C0008162C1620163054802F05AF908B1002042
:1019D00010BD012010BD000056F401185053002026
:1019E00051010020500100200C4810B5006B0A493D
:1019F00041600021C1600421816001210161084929
:101A000009784161FF21054802F03AF908B1002048
:101A100010BD012010BD000056F40A1050530020E4
:101A20007F010020174810B541788078194BC0EB32
:101A3000001001EB8001144801801448C2788078BE
:101A400002EB002082B2124802801348006B436010
:101A50000023C3600423836005230361CBB2090A1A
:101A6000C0E90531D1B2C161110A01620B4909789F
:101A70004162FF21084802F003F908B1002010BDBF
:101A8000012010BD3D010020B0010020EC0000202D
:101A9000B201002056F41D185053002051010020BF
:101AA000104810B5006B0E4941600021C16004214F
:101AB000816001610C49097841610C490988CAB209
:101AC000090AC0E906210A4909780162FF2105488F
:101AD00002F0D6F808B1002010BD012010BD0000B2
:101AE00056F41A1050530020A5010020A601002032
:101AF000A8010020124810B5006B10494160002178
:101B0000C16004218160072101610E490A784261A8
:101B10004A7882618A78C2610A7902624A794262AD
:101B2000897981622021C162FF21054802F0A8F86D
:101B300008B1002010BD012010BD000056F40718A8
:101B400050530020280100207FB51248C823017897
:101B50004A1CB2FBF3F403FB1422914218D000EBB1
:101B60000111009B4B6001789DF8043000EB0111DE
:101B70006C460B72002108E00678651800EB06162B
:101B80000E446D79491C7572C9B28B42F4D802704B
:101B90007FBD00002C550020F0B51E4C8BB01C48BA
:101BA00020601D4820633430606300250127C4E9AC
:101BB00006572562C4E90957E5624FF4A020A560E5
:101BC000C4E9035008264FF4E000666060612046D7
:101BD00001F0C8FECDE9065703950E200495CDE926
:101BE000087005950095019502956946204601F01B
:101BF000E9FD206B40F22131016008494160083065
:101C0000042162C00021204601F0C2FF0BB0F0BDEC
:101C100000640040505300204C540020F4561C181F
:101C200030B5234C8BB0214820602248206300252A
:101C3000A561E56125626562A562E5623430A56053
:101C400060634FF4A020C4E903504FF4E0006061EA
:101C500010206060204601F085FE49F23E020092AD
:101C600040F2044201924FF6FF72029201200E21CF
:101C70004FF680720392CDE90650CDE90401CDE91B
:101C800008016946204601F09DFD206B4FF4487124
:101C90000160094941600421C0E902150821016180
:101CA0000121204601F074FF0BB030BD00680040F8
:101CB00090530020BC54002081C0071308480168DD
:101CC00041F04001016007480121016041600021AD
:101CD00081600221C1600146034802F08DBC000012
:101CE00030380240B05000200018024070B5044661
:101CF0004FF6FF7000224AF201050DE0A35C584048
:101D00000023C6074FEA500000D068405B1C9BB21E
:101D1000082BF6D3521C92B28A42EFD370BD00005A
:101D20002DE9F04133480178012902D00020BDE8B7
:101D3000F081314C002101706268304B100E187038
:101D4000100C5870100A987008462D49DA70251842
:101D50002D7E0D54401CC0B21028F8D3294D2A4CBA
:101D60002A4E00201F5C2F540F5C27543754401C10
:101D7000C0B20428F6D3C8780B788C7800EB0360E7
:101D80004B781B0403EB042318440124C82807D80C
:101D900006F0B2F906F06EF91D4804700320C6E79C
:101DA0001C4890F84830FF2B0DD14068904208D174
:101DB00006F0A2F906F05EF917480470174804709F
:101DC0000EE0174804700879FF280BD00028AED128
:101DD000FF20087113480A490470012006F0B0FC86
:101DE0000220A4E706F088F906F044F90E480470D2
:101DF00001209CE7B3000020D066002014020020E0
:101E000001640020FC000020F800002000010020F8
:101E1000BC00002014640020BF000020B40000209B
:101E2000C0000020B5000020BD0000202DE9F041D9
:101E3000274900200A78012A01D0BDE8F081254F0A
:101E40004FF0000C81F800C07D6823492A0EC5F3CD
:101E500007430A70C5F307244B708C70EDB2CD7048
:101E60001E493E18367E0E54401CC0B21028F8D3CE
:101E7000C8780E788F7800EB06604E78360406EB53
:101E8000072606441648066016480778BA42D4D199
:101E900042789342D1D182789442CED1C0788542A3
:101EA000CBD11148114A0068301A1060020E0A7036
:101EB000020C4A70020A8A70C87081F804C007498F
:101EC000012006F03DFC0A49012008700220B4E719
:101ED000B3000020D066002014020020016400201E
:101EE00004010020FC000020E80000200C0100207C
:101EF000B500002010B5044605F0C5FA042005F031
:101F0000CBFA802005F0C8FA032005F0C5FA204678
:101F1000BDE8104005F0ADBA2DE9F05F8648002518
:101F2000864C007801280AD02246E38810899189DE
:101F300052896BB140EA010313430ED108E0A5803A
:101F40007FA005F04BFCBDE8F05F0120FFF7D2BF9A
:101F500008B111B900E039B132B1E5802581A58120
:101F600065810720FFF7C6FFE08810B10820FFF762
:101F7000C1FF208910B10920FFF7BCFF608910B1B3
:101F80000A20FFF7B7FFA08910B10B20FFF7B2FFBF
:101F9000E08A01287ED1E08821894FF001060843BC
:101FA000A18908436189084303D10C20FFF7A2FFF0
:101FB000A68520890227012805D1E08918B90D20BE
:101FC000FFF798FFA78560894FF00308012806D125
:101FD000208A20B90E20FFF78DFFA4F82C80A0895D
:101FE0004FF0040B012803D1608A08B9A08A10B110
:101FF000A08D30B173E00F20FFF77CFFA4F82CB068
:102000006DE000F01BFC5349DFF84C91DFF84CA168
:10201000087050B11A20FFF76DFF5148268689F8E5
:10202000005006708AF8006009E03820FFF762FF70
:102030004C4806708AF8006089F800506686A580D2
:10204000E188494809B1E6850570218931B1E78504
:102050000670E18964225143444A1180618939B193
:10206000A4F82E800770218A64225143404A1180CF
:10207000A18949B1A4F82EB03E4980F80080608A59
:1020800008803D49A08A08806421E183E22006F0AF
:1020900031FB00E025E0E5802581A5816581258271
:1020A0006582A582E581002006F014F8002006F084
:1020B000ADF8002005F0FCFF002006F03BF8E189B8
:1020C0005A2006F017FB218A5C2006F013FB618A78
:1020D0005E2006F00FFBA18A602006F00BFBE58274
:1020E000A585208B012824D1FFF704FFA580E5807A
:1020F0002581A5816581E58125826582A5822946A4
:102100005A2006F0F7FA218A5C2006F0F3FA618A79
:102110005E2006F0EFFAA18A602006F0EBFAE58275
:1021200025836421A585E183BDE8F05FE22006F008
:10213000E1BABDE8F09F0000B20000205802002084
:10214000B3E4B5E7D7AED5FDD4DACAB9D3C3D6D098
:1021500000000000CD000020B3000020BB000020E4
:10216000B9000020BA000020B8000020CE000020F6
:10217000D0000020D2000020D40000202DE9FE4F26
:1021800000F05CFBFE4CFF4D00266077A07A4FF01C
:10219000490A4FF001084FF0FF09012810D1E07AF9
:1021A00001280AD1F8A005F019FBE67204F028FA1C
:1021B00084F80E80A07A012802D1607F012803D024
:1021C000607A01280CD014E11A20FFF793FE84F8FE
:1021D0000980F149A67284F80B80A1F8008002E022
:1021E000E07A012814D1EDA005F0F8FAE672E67065
:1021F000267105F059FACDE9005A01230022A021E9
:10220000E948CDF8089002F07DFB607A0128DAD128
:102210002079D8B9FFF784FD012802D0032806D021
:1022200014E0607B012811D16673E0A004E0207BFC
:1022300001280BD12673E1A005F0D0FA05F05CFF70
:1022400005F018FFE24905200880A67020790128D2
:10225000B9D1E0A005F0C2FA05F04EFF05F00AFF83
:10226000642001F0CFFD667126715520A074207C9A
:1022700001280FD126744721C248FFF737FD010A14
:1022800085F8491085F84A002868492280B2BD497E
:1022900006F072FABA48DFF8E8B27830C11D027869
:1022A0000A7042784A7082788A7002790A7142799B
:1022B0004A71807988710BF1640B0421CDE900B17A
:1022C0005F460123F022CDF80890A021B64802F025
:1022D00019FBABF1040EBB789EF803109EF80020AA
:1022E0009EF8020001EB02619EF80120120402EB4D
:1022F00000200144F8783A7800EB02607A78120402
:1023000002EB03228718A766E07B012847D0ABF1D8
:102310001400C278037802EB0362437880781B04D0
:1023200003EB002002EB000CC4F854C02868AE6038
:10233000401C6E612860EE84207A2885E0796885EB
:10234000ABF118000278C37802EB0362837840781F
:102350001B0403EB00201044C5F80CC068600BF1AF
:102360001400B9428279AA854279EA8502792A86DF
:10237000C2786A868278AA864278EA8600782887B8
:1023800085F848904FF0000017D35A4677463B5CDB
:102390001354401CC0B2A9610428F8D312E0E673BC
:1023A000A869020E8BF80020020C8BF80120020AAB
:1023B0008BF802208BF8030004E0401CC0B2AF6130
:1023C0000428FAD305F098FE05F054FE84F8028044
:1023D000667205F061F905F06FF9002005F0E4F987
:1023E0004FF4FA7001F00EFDFEF7E4F8784905208D
:1023F0000880A078AA27012813D105F049FA00F037
:102400001DFA012814D07649A1F8008004F096FE48
:1024100004F0A4FE04F09AFE012005F0C5F984F84A
:102420000680DFF8BCB1BBF8000001287DD0A5E034
:10243000FDF768FFFDF790FFFEF7ECF9DFF844B118
:10244000E06D0BF14C0B45F8100FBBF82000A88293
:102450004B483C30C178807801EB0020A881484887
:102460007830817969854179A9850179E985C178D3
:102470002986817869864178A9860078E88647218F
:102480004048FFF733FC010A85F8391085F83A0017
:10249000607DA5F1100501280AD1CDE9005A01237C
:1024A0000022A1214048CDF8089002F009FB667592
:1024B000BBF820006421B0FBF1F0616D0844A16B12
:1024C000884206D804F03AFE04F048FE012005F0E8
:1024D0006BF9E07968B10128A3D1E08C616C00EB65
:1024E0008000B1EB400F9CD8A7740020FFF79CF947
:1024F00097E7FEF7DFF9207A002892D001281BD059
:10250000022824D003288CD11D48628C8D3081781C
:10251000914286D34078A18C884282D3A774002050
:10252000FFF782F904F00AFE00E014E004F016FE62
:10253000012005F039F974E711483C30C178807802
:1025400001EB0020E18B80B28142E7D969E7A06B03
:10255000218C80B2E0E7E07A01280CD1A078012834
:102560000CD1E672E6701FA005F038F92671BBF8B1
:102570000000012802D1A07801283DD0A07939E0DF
:10258000B000002014640020C7EBB2E5C8EBB3E450
:10259000B5E7B2E5D7F9000088020020C7EBCBA26F
:1025A000BFA8B3E4B5E70000B4510020C9CFB4CE52
:1025B000BDBBD2D7CEB4CDEAB3C90000D3E0B6EEEE
:1025C000B2BBD7E3C7EBC1A2BCB4B3E4D6B500003D
:1025D00078020020BFAACABCB3E4B5E7000000003F
:1025E00082020020CBA2BFA8BDE1CAF8B3E4B5E7E0
:1025F00000000000012860D1207908B9FFF716FC1F
:102600002079012802D0A079012856D184F80180D0
:10261000A7740020FFF708F904214F4FCDE900719E
:102620000123F022CDF80890A1214C4802F048FA8D
:102630004BA005F0D3F805F033F9A670ABF80060B5
:102640002672E67104F07AFD04F088FD012005F0A1
:10265000ABF810206074FFF723FAE06D45F8100F17
:102660004548008CA882A7F12400C178807801EB4E
:102670000020A881F8783978BA7800EB0160797881
:10268000090401EB02210844286107F1180081794F
:1026900069854179A9850179E985C178298681789B
:1026A00069864178A9860078E8862079A5F1100529
:1026B000012803D0A079012822D036E02E482671C7
:1026C00005F8486F47214C38FFF710FB010A697085
:1026D000A870A5F14805CDE9005A4FF001034FF06D
:1026E00000024FF0A1011D48CDF8089002F0E8F972
:1026F0002868214980B249224C3906F03DF814E09F
:102700001D48A67147214C38FFF7F0FA010A85F8F9
:10271000491085F84A00CDE9005A01230022A12181
:102720000E48CDF8089002F0CBF96078012811D15D
:10273000207805280ED36670267004F007FD00F09F
:102740009DF8FDF737FFFEF709FFBDE8FE4F0120BA
:10275000FFF7D0BBBDE8FE8F10010020B451002070
:10276000B1BEB4CEBDBBD2D7CDEAB3C9A3ACD0BB4A
:10277000D0BBCAB9D3C30000606400204FF400612D
:10278000014802F02FB80000001402402021014847
:1027900002F028B8000002401021014802F022B8DF
:1027A0000000024070B51D4D3C241D492A88B2FB33
:1027B000F4F0888604FB1020C8861A48006805F0EB
:1027C00089FC1948006880B205F020FD17480068B0
:1027D00080B205F06DFC1648C178807801EB0020CE
:1027E00080B205F0A7FC134EB07805F0EBFC7078D2
:1027F00005F0FAFC2888B0FBF4F005F0ADFC288861
:10280000B0FBF4F104FB110005F0B8FC0A480088A5
:10281000BDE87040C0B205F0C3BC0000DA00002083
:1028200058020020E8000020F0000020F400002002
:10283000EC0000203D010020D800002010B5102140
:10284000034801F0CFFF08B1002010BD012010BDEA
:1028500000100240034610B50020024603E09C5CD5
:102860006040521CD2B28A42F9D310BD00224FF40C
:102870000071014801F0BFBF0018024010B50020F0
:10288000144A0446111F14540C54401CC0B20428AE
:10289000F9D3FDF755FE0F484C3800F1860104646A
:1028A00044640C704C708C700C714C718C7144854C
:1028B0008463C91D04858C704C7051398C70CC7048
:1028C00001214174C47305F017FCBDE8104005F008
:1028D000D1BB0000FC00002070B52C4C0025207EF0
:1028E000012800D12576E07D01281BD1FFF746FFA6
:1028F000A076012803D1A08D40F00200A085FFF74B
:1029000045FFE076012803D1A08D40F00100A085AD
:10291000FFF742FF2077012803D1A08D40F0080087
:10292000A085E575A07D01282DD100F0CDFA80B2FB
:1029300040F24C41E085884203D9A08D40F48040AC
:10294000A08503F005FF208EB0F5617F03D9A18D2E
:1029500041F01001A185C82803D2A08D40F02000CD
:10296000A085608E40F2B631884203D9A18D41F036
:102970004001A185322803D2A08D40F08000A085BF
:1029800000F08EFCA575002070BD0000B000002096
:102990002DE9F041464CFC25002794F8430000281F
:1029A00076D021782046FFF755FF2178615C884278
:1029B0006BD1E578002D69D1A178912901D09229B8
:1029C00064D13B482838952946D010DC4FF00102ED
:1029D000922934D006DC2E2958D090290CD0912988
:1029E00054D115E0932907D094294FD104E0AB29A5
:1029F0004CDA96294AD12FE0617A227A42EA012103
:102A0000E27942EA0121A27942EA012141603DE0F6
:102A1000617A237A43EA0121E37943EA0121A37928
:102A200043EA01214160002163184618491C9B7A42
:102A3000C9B233761029F7D31E48027026E0617AB6
:102A4000237A43EA0121E37943EA0121A37943EAA6
:102A5000012141601848F0E7617A227A42EA0121B7
:102A6000E27942EA0121A27942EA01214160A17A98
:102A7000E27A42EA0121227B42EA0121627B42EAB8
:102A80000121816002E003E0FFE7FD2584F8437047
:102A90000A480078012807D1094C2078012803D181
:102AA000084905F04DFE27702846BDE8F08100007A
:102AB000F8660020B3000020B4000020B50000201C
:102AC00045010020016400202DE9F0417F4C64267F
:102AD0000025A088012831D1B4F87200E18B88422A
:102AE00005D0E22005F006FEE08BA4F87200E08B32
:102AF00020BB0120FFF7FEF9A5803146E683E220E6
:102B000005F0F8FDE5802581A5816581E5812582B7
:102B10006582A58229465A2005F0ECFD218A5C20B9
:102B200005F0E8FD618A5E2005F0E4FDA18A6020E1
:102B300005F0E0FDE5822583A585A583A08803280F
:102B40001FD1B4F87600618C884205D0E42005F0EE
:102B5000D1FD608CA4F87600608C90B90120FFF75D
:102B6000C9F9A58031466684E42005F0C3FD5748C5
:102B7000294680304560A4F86850C42005F0CDFD9A
:102B8000A583A088C82704281AD1B4F87800A18C9E
:102B9000884205D0E82005F0ADFDA08CA4F87800AF
:102BA000A08C68B90120FFF7A5F9A5803946A78454
:102BB000E82005F09FFDA583A4F84450A4F84650F2
:102BC000A088062816D1B4F87A00E18C884205D096
:102BD000E62005F08FFDE08CA4F87A00E08C48B97F
:102BE0000120FFF787F9A5803946E784E62005F044
:102BF00081FDA583608E3C27012818D1B4F87C00A4
:102C0000218D884205D0EC2005F074FD208DA4F8BC
:102C10007C00208D58B90120FFF76CF96586394694
:102C20002785EC2005F066FDA580A5836583208EB1
:102C3000012847D1B4F87400218C884205D0EA20DD
:102C400005F058FD208CA4F87400208C002839D1A0
:102C50001F480078012837D05FF00100FFF74AF9DC
:102C6000002005F037FA002005F0D0FA002005F02A
:102C70001FFA002005F05EFA1648A5803946057057
:102C80002586E6832784EA2005F034FDE58025814A
:102C9000A5816581E58125826582A58229465A2024
:102CA00005F028FD218A5C2005F024FD618A5E2064
:102CB00005F020FDA18A602005F01CFDE58225833A
:102CC000A585A583BDE8F0811120C7E75802002043
:102CD000B2000020BB0000202DE9F041374C608F8E
:102CE000012802D10420FFF705F9A08F012802D1A5
:102CF0000320FFF7FFF8608F0025012807D1A08F80
:102D0000012804D16587A5870520FFF7F3F8B4F8FB
:102D10004400C82601283CD1A4F84450A08F618FFC
:102D2000084302D126A004F059FDA08F294F0128A5
:102D30001BD1E08FB4F84010B4F8423040EA0102F1
:102D40001A4316D001223A70234A1080234801808A
:102D5000234803800120FFF7CDF8A5806587A5876C
:102D60003146A684E82005F0C5FC608F012804D018
:102D70000FE01CA004F032FDF7E73D700120FFF7E3
:102D8000B9F8A5806587A5873146A684E82005F0B7
:102D9000B1FCB4F8460001280ED1A4F846503146E3
:102DA000A684E82005F0A6FCA5806587A587BDE878
:102DB000F0410120FFF79EB8BDE8F08158020020E5
:102DC000C7EBD1A1D4F1D2BBD6D6BFD8D6C6B7BD3A
:102DD000CABD0000B7000020D60000204801002036
:102DE0004A010020C7EBC9E8D6C3CFE0B9D8B2CEBC
:102DF000CAFD000070B5184C002506212070032084
:102E00006070A5700E20E070257102206071204670
:102E1000FEF76CFFA071000AE071104810490570C0
:102E200000200D54401CC0B21828FAD301220D4DC9
:102E300014022146284601F0DEFC4FF6FF730822FB
:102E40000549094802F046FF21462846BDE8704082
:102E5000002201F0D0BC0000270200202602002042
:102E6000A466002000080240D852002070B500245B
:102E700000F0BEF8134D04E0641CE4B2022000F040
:102E8000CBFF2021284601F0ADFC012803D03C2CCB
:102E900010D2002407E03C2CEED30BE0641CE4B21B
:102EA000022000F0B9FF2021284601F09BFC18B158
:102EB000F52C04D3012070BDF52CEFD3FAE70020E8
:102EC00070BD0000001002402DE9FE4300F076F8CE
:102ED000FFF7CCFFCC2000F0ADF8442000F0AAF8BA
:102EE00000F06CF8FFF7C2FFCC2000F0A3F8BE2082
:102EF00000F0A0F8DFF8A080002400275FF00105B3
:102F000000F088F8002220214646404601F073FC7C
:102F1000032000F081FF01222021304601F06BFCEC
:102F200000F066F8062000F077FF2021304601F01F
:102F300059FC08B1012600E00026322000F06CFFA9
:102F400078086D1C00EBC610EDB2C7B2082DD7D9BA
:102F50000DF80470641CE4B2092CCED39DF8010076
:102F60009DF80010072805D9C043C943C0B2C9B2B3
:102F7000002200E0012241EA002000EB8000400036
:102F800000B200111AB100F5C870BDE8FE83C0F5AB
:102F9000C87000B2F9E7000000100240064810B502
:102FA000016841F01001016000F034F800F006F80B
:102FB000BDE81040FFF75ABF3038024010B500F0AE
:102FC00029F80A4C00222021204601F014FC40F28E
:102FD0008A2000F021FF01222021204601F00BFC75
:102FE000BDE810400A2000F017BF000000100240AA
:102FF00006482021016000214160012181600221F9
:10300000C1600146024801F0F7BA00003C670020A9
:1030100000100240054820210160012141608160CB
:103020000221C1600146024801F0E6BA3C67002077
:10303000001002402DE9F0410546FFF7EBFF124F6B
:10304000012400BF05F001066D080022202138464A
:1030500001F0D1FB022000F0DFFE26B10122202189
:10306000384601F0C8FB372000F0D6FE01222021AF
:10307000384601F0C0FB052000F0CEFE641CE4B22F
:10308000082CDFD9BDE8F081001002400E49012074
:103090000E4AC8740020C871087208758875C87512
:1030A000087648768876C876487788854872C872E8
:1030B0001060A2F86800C87300215318491CC9B2F7
:1030C00018716429F9D37047B0000020D053002054
:1030D0007047000000B59BB003F012F8074806F0F7
:1030E00073FB684600F024F86C2269460448FDF73B
:1030F00067F81BB05DF804EBFDF7B8B9EC510020A0
:10310000D053002070B50446006800F580508169F6
:1031100041F480118161206800F5805085690120AB
:1031200000F070FE206800F58050856170BD0000E1
:10313000F0B511499BB000228C8E6D460B6F04E0F8
:103140009E5CAF18521C3E7192B2A242F8D3ADF809
:1031500068404A6F00920022154602E09D54521CBE
:1031600092B2A242FAD38D864D676C226946FDF772
:1031700027F81BB0F0BD0000B00000202DE9F041A1
:10318000044621B14FF40060E060C000A060E06937
:103190000025002861D028462368402619683A4A4D
:1031A0001140D4E902273A43024342F40070084335
:1031B000186020680768012000F024FE206807607E
:1031C0002068466020684668012000F01BFE2068E9
:1031D0004660206885602068C560216888694FF670
:1031E0004172104040F080008861206886690120AB
:1031F00000F008FE206886612068C5612068C56906
:10320000012000F0FFFD2068C561226802F58052B0
:1032100090691E4908401E4901439161206800F5EC
:1032200080508569012000F0EDFD206800F5805098
:1032300085612068174900F580500160206800F51D
:1032400080500568012000F0DDFD206800F5805009
:103250000560A069012803D009E04FF480609BE776
:10326000206800F58050C1690B4A1143C161616952
:103270000A488A8802640A78D1F8011042EA0121DA
:103280004164BDE8F08100000F8120FF233FDEF89C
:10329000040020028020C1024000010000800240A2
:1032A0001FB5AA208DF800008DF801000020012133
:1032B0008DF802108DF804008DF803008DF80500DC
:1032C00010488DF8061081798DF8071041798DF836
:1032D000081001798DF80910817801F07F018DF8CF
:1032E0000A1041788DF80B1000788DF80C005520ED
:1032F0008DF80D008DF80E000F21684604F0CEFB0E
:103300001FBD0000280100204FF4804001F068B983
:1033100013480078012811D0022811D0032812D0B8
:10332000042812D0052812D0062812D0072812D05F
:10333000082813D10121022000F014B8012100E077
:1033400002210120F8E70321FBE70421F9E7052129
:10335000F7E70621F5E700211020EDE770470000B0
:103360004F0200202DE9F04104F054F900240D4EE5
:103370000D4F0E4D012802D12C7034703C7003F0BB
:10338000C7FB0121012803D109483970317004704D
:103390002878052804D33078002801D12C703970A2
:1033A000BDE8F081460100204B0200204C020020C5
:1033B0004F0200202DE9F0414A48016841F0010127
:1033C0000160016841F002010160016841F00401FF
:1033D0000160016841F008010160016841F01001DD
:1033E0000160016841F020010160016841F0400185
:1033F00001603D4C48F250000125C4E90005022659
:10340000DFF8E880C4E902562146404601F0F4F8AE
:1034100020200027C4E90007C4E90256214640469F
:1034200001F0EAF81A20C4E90005DFF8C480C4E915
:1034300002562146404601F0DFF8012202214046B3
:1034400001F0D9F94FF44170C4E90005DFF8A48018
:10345000C4E9025601220421404601F0CCF921467C
:10346000404601F0C9F801220421404601F0C3F9A9
:1034700041F20800C4E90005C4E9025621461E488D
:1034800001F0BAF82820C4E90005DFF87080C4E92B
:1034900002562146404601F0AFF81020C4E900076B
:1034A000C4E902562146404601F0A6F84FF48F4089
:1034B000C4E90005124FC4E902562146384601F01E
:1034C0009BF801229102384601F095F94FF40D70F6
:1034D000C4E90005C4E902562146BDE8F0410948A7
:1034E00001F08AB830380240B0500020000002409D
:1034F0000004024000080240000C0240001002409C
:10350000001402400018024070B5174C0025062137
:10351000207003206070A5704620E07025710120A6
:1035200060712046FEF7E2FBA071000AE0710F48CF
:103530000F49057000200D54401CC0B21828FAD362
:1035400001220C4D14022146284601F054F9FF23B4
:1035500008220549084802F0BDFB21462846BDE87F
:103560007040002201F047B9270200202602002007
:10357000A466002000080240D852002070B5174C05
:1035800000253821207003206070A570E17025713E
:10359000607106212046FEF7A9FBA071000AE071C8
:1035A0000F481049057000200D54401CC0B2182867
:1035B000FAD301220C4D14022146284601F01BF9D2
:1035C000FF2308220549094802F084FB21462846CA
:1035D000BDE87040002201F00EB900002702002073
:1035E00026020020A466002000080240D8520020D5
:1035F00070B5184C00250621207003206070A5705E
:103600000A20E0702571022060712046FEF76EFBF3
:10361000A071000AE07110481049057000200D5497
:10362000401CC0B21828FAD301220D4D14022146C5
:10363000284601F0E0F84FF6FF73082205490948D3
:1036400002F048FB21462846BDE87040002201F008
:10365000D2B800002702002026020020A466002025
:1036600000080240D852002070B5174C00250621F2
:10367000207003206070A5704B20E0702571012040
:1036800060712046FEF732FBA071000AE0710F481E
:103690000F49057000200D54401CC0B21828FAD301
:1036A00001220C4D14022146284601F0A4F8FF2304
:1036B00008220549084802F00DFB21462846BDE8CE
:1036C0007040002201F097B8270200202602002057
:1036D000A466002000080240D852002070B5174CA4
:1036E00000250621207003206070A5704220E07044
:1036F0002571012060712046FEF7F8FAA071000ADA
:10370000E0710F480F49057000200D54401CC0B2F5
:103710001828FAD301220C4D14022146284601F044
:103720006AF8FF2308220549084802F0D3FA214627
:103730002846BDE87040002201F05DB82702002055
:1037400026020020A466002000080240D852002073
:1037500070B5174C00253221207003206070A570D1
:10376000E1702571607106212046FEF7BFFAA07155
:10377000000AE0710F481049057000200D54401CEC
:10378000C0B21828FAD301220C4D14022146284653
:1037900001F031F8FF2308220549094802F09AFA9E
:1037A00021462846BDE87040002201F024B8000000
:1037B0002702002026020020A46600200008024004
:1037C000D8520020F0B54A69DFF8D8C001209040F7
:1037D000DCF8002042F00102CCF80020DCF80020E8
:1037E00022F47C52CCF80020DCF800204B6A42EA3C
:1037F0000322CCF800202B4A1C3213688343136049
:10380000284B284C0C334034CE69251D86B91E68E0
:1038100086431E60CF684E6867F31F464F6944F8C1
:1038200037608F680E6867F31F464F6945F8376049
:10383000CE69012E10D11E6806431E60D1E90063D7
:1038400066F31F434E6944F83630D1E9024364F30E
:103850001F434C6945F83430124B8C691B1D002CFA
:103860001C6806D004431C600E4B0C69143314B161
:1038700004E08443F7E71C6884431C600C69012C56
:1038800002D11C6804431C60096A012902D1116835
:1038900001431160DCF8000020F00100CCF80000CA
:1038A0000020F0BD0066004070B504460068416924
:1038B000C943C90714D182682649914343D00021E6
:1038C0008368254A9A4340D000228368234898435E
:1038D0003DD000201143014302D02046FCF76AFF8F
:1038E0002068C168406911F0030FC0F3400004D0A4
:1038F00018B100212046FCF7C7FE20680169406925
:1039000011F0030FC0F3001004D018B101212046BC
:10391000FCF7BAFE2068C068114DC0F3C00020B1AA
:1039200000228021284600F066FF2068C068C0F3AE
:10393000001000280DD02846BDE8704000224FF44A
:10394000807100F058BF0121BAE70122BDE70120D4
:10395000C0E770BD0300000400030008000003106E
:10396000001402402DE9F041040003D094F838001F
:1039700018B105E00120BDE8F081204600F094F880
:10398000022084F838002068016821F002010160FB
:103990002068016841F00101016000F031FF032659
:1039A00000F10A07002503E000F02AFFB84263D2C5
:1039B00020684068C007F7D020684168C90768D010
:1039C000A1690129016840D021F080010160E0690E
:1039D0000128206801683BD021F040010160206A85
:1039E00001282068016836D021F020010160606A5A
:1039F00001282068016831D021F010010160A06A1F
:103A00000128206801682CD021F008010160E06ADB
:103A100001282068016827D021F004010160D4E961
:103A200002010843D4E90412114308436168491EA6
:103A300008432168C8612068016821F00101016024
:103A400000F0DEFE00F10A071BE041F08001BDE757
:103A500041F04001C2E741F02001C7E741F0100109
:103A6000CCE741F00801D1E741F00401D6E700BFFF
:103A700000F0C6FEB84204D304F8386F0320657026
:103A800079E720684068C007F2D120684068C00725
:103A900003D0042084F838006CE7E563012084F843
:103AA0003800002067E700002DE9F04F0746344D4D
:103AB00000683249DFF8C8A0103D0224012685B015
:103AC0004FF009094FF48058884228D1DAF80010E5
:103AD00041F08061CAF80010286840F002002860B8
:103AE0002003CDE90004DFF89CB0CDE9026469460B
:103AF0005846CDF8109000F07FFDCDE90084CDE967
:103B0000026469465846CDF8109000F075FD022217
:103B10000121412001F0A0F8412001F090F81A495C
:103B20003868884226D1DAF8001041F00071CAF8EE
:103B30000010286840F001002860CDE9008402965A
:103B4000124FCDE903494D466946384600F054FD11
:103B5000F814CDE90004029669463846CDE90345DC
:103B600000F04AFD01221146142001F075F81420DE
:103B700001F065F805B0BDE8F08F00000068004076
:103B8000403802400004024000640040000002404F
:103B900090F83820012A01D0122A1ED190F839203D
:103BA000012A1AD0012280F8392090F83820122AF0
:103BB0000ED0222280F83820002280F839200068B8
:103BC0000029416906D041F0100141610020704791
:103BD0003222EFE741F00201F7E7022070470000D0
:103BE0002DE9F041416B0446886804283AD11E4A09
:103BF000206800271D4D1426904218D11C484A68A1
:103C0000026009690171EF70E978626B06EB81036C
:103C1000D2584318491CC9B25A71E9700829F3D324
:103C20000FC8FDF791FF00212046FFF7B1FF1149B2
:103C30002068884216D1606B0F49406808600F49C0
:103C4000EF70E878626B06EB8003D2580A54401C90
:103C5000C0B2E8700828F4D32046BDE8F041012145
:103C6000FFF796BFBDE8F08100640040AA00002085
:103C70003C54002000680040F8010020EC010020C6
:103C80002DE9F05F044690F839000E46012811D066
:103C90004FF0010984F8399094F8380022280CD0AC
:103CA0005FF0120084F8380021688868400106D56A
:103CB00000250DE00220BDE8F09F3220F2E7886881
:103CC000000101D5012503E08868C0005BD502250D
:103CD0004FF4C07000EB05100A5802F001020A50C0
:103CE000216B22688B68EBB317581F43CB68496878
:103CF00043EAC1010F431750216B0A6902F00F021A
:103D00000A614FF4C271226801EB0511535823F088
:103D10000F03535022685358276B3F693B4353505E
:103D2000216B0B6A4A6942EA0362CB6989691B0409
:103D300043EA01210A434FF4C473216803EB0513DE
:103D4000CA50216B0B6B4A6A42EA0362CB6A896AEA
:103D50001B0443EA01210A434FF4C67303EB051326
:103D6000216800E014E0CA5021680A5842F00102BC
:103D70000A5000F045FD00EB06080027DFF874A0AC
:103D8000DFF874B017E0042084F83800012092E7CF
:103D90001358CF6809683B4343EA41511150ABE7E0
:103DA000701C08D000F02CFD404504D3032004F81B
:103DB000380F67707FE795B12068012D816813D0B7
:103DC0000E4888430028EBD194F8380032280ED0F2
:103DD0004FEA090004F8380F002067706BE720688D
:103DE00081682AEA0100EDE72BEA0100EAE72220D8
:103DF000F0E70000030000040003000800000310C7
:103E00007047000003490A6810440A688242FCD3E4
:103E1000704700001400002005E016210A00A1F1FF
:103E20000101C9B2FAD10100A0F1010080B2F4D1C0
:103E3000704700002DE9F041054690F845000C461A
:103E4000012874D0012685F84560022085F84400D9
:103E5000002C6FD02A68116841480140D4E9000362
:103E60001843D4E902373B431843AB68184323692E
:103E7000184363691843EB681843A3691843E3695F
:103E80001843236A1843636A1843A36A1843084314
:103E90001060286807680120FFF7B4FF28680760F2
:103EA000D4E90B010843D4E90D1211430843E16B37
:103EB0000843216C0843616C0843A16C08432968DE
:103EC0004860286847680120FFF79CFF2868476022
:103ED0002968E06C88602968206DC8602A6891694B
:103EE0004FF641700140D4E916031843676D236E05
:103EF00043EA07431843636E1843A36E184308430D
:103F00009061286887690120FFF77CFF2868876136
:103F1000D4E91B0108432968C8612868C4690120E5
:103F2000FFF770FF2868C46114E000E002E002209F
:103F3000BDE8F0812968086820F49042D5E90203C1
:103F4000184310430860286804680120FFF75AFFEF
:103F50002868046005F8446F00206870E8E70000F6
:103F60000F8120FF2DE9F04390F845400025012CFA
:103F70000DD04FF0010980F84590022480F84440AC
:103F800044F2F4584FF0004C5E1E816216E00220AD
:103F9000BDE8F08301EB4514C4F800C0C5EBC517BC
:103FA00007EB470702EB8707C4E90187B54203D255
:103FB00004F12007E76000E0E1606D1C9D42E9D359
:103FC000026802F58052D16080F84490002180F8A8
:103FD00045100846DCE72DE9F04390F84540002500
:103FE000012C0BD04FF0010980F84590022480F895
:103FF00044404FF480185E1EC1621BE00220BDE801
:10400000F08301EB4514C4F80080C5EBC51707EB3E
:10401000470702EB8707A760C7691FB9276847F4FE
:1040200040072760B54203D204F12007E76000E0B3
:10403000E1606D1C9D42E4D3026802F5805211617B
:1040400080F84490002180F845100846D7E710B565
:1040500090F84510012913D0012280F84520022153
:1040600080F84410816A0C680023002C2ADB0C685D
:10407000E4051BD5846B641C8463012C02D002E030
:10408000022010BD016300F12800C1600C68C4F378
:104090000D44A4F1040444618468A4688461C9687F
:1040A0000160027743774FF0000010BD0C68A40553
:1040B00003D58263C0E90C1302E0846B641C846343
:1040C000C968816200F8442F4370012010BD0000D0
:1040D0002DE9F8434FF0000704003E46B94600972B
:1040E00003D094F8440018B105E00120BDE8F8833E
:1040F000204600F0B1F85048016841F48041016069
:104100004E48016821F4000101600168226A1143F0
:104110000160206800F58050016841F001010160F4
:10412000206800F580510A68D207FCD1006920F0B0
:104130001C0500F0A9FE4249424A0144914202D2C4
:1041400045F008050EE04049404A0144914202D240
:1041500045F00C0506E03E4908443E49884201D33B
:1041600045F00405206805614FF400420021204617
:1041700000F0FEF90125A0BBFF20FFF743FE6068B9
:1041800080B34FF6FF78761C6A460121204600F086
:10419000BFF80098400701D44645F4D3464537D0D0
:1041A00000264FF480523146204600F0E1F9C0B9B4
:1041B000761C6A460121204600F0AAF80098800685
:1041C00001D44645F4D3464522D06A461021204604
:1041D00000F09EF80098410705D54FF40061E160BA
:1041E00002E015E008E0E760800701D5A7601AE06B
:1041F0004FF48040A06016E0E0680021C0F3CF02D9
:10420000A068C0F34F000243204600F0B1F930B17E
:1042100001212046FEF7B2FF84F8445065E740F6DE
:10422000FF70FFF7EFFD49462046FEF7A7FF84F831
:10423000445000205AE7000044380240043801404E
:1042400000D3CEFEC0E1E40040F1E9FD40787D01FD
:1042500000796CFC005A620230B5294C054685B0E5
:10426000206840F001002060206840F002002060DB
:10427000206840F004002060206840F020002060AA
:10428000206840F040002060206840F080002060FE
:10429000206840F4807020604FF4C37000900320C9
:1042A000039002200190002002900B2004906946A8
:1042B000144800F0A1F93A2000906946124800F035
:1042C0009BF94FF4D04000906946104800F094F9F3
:1042D000206840F000702060206840F0806020601E
:1042E000206840F000602060286A002805D1002284
:1042F0004FF48001104600F04FFE05B030BD0000C5
:10430000303802400000024000080240001802401D
:10431000F0B590F844400023822C24D0822480F809
:10432000444006683469058A04F01C074FF6FF74A0
:1043300004EAC5253D434FF4F86707EA8111294394
:1043400021F0020141F00101316101685B1C0D693E
:10435000ED0701D0A342F9D30125A34205D180F88E
:1043600044500320F0BD0220F0BD496989B21160BC
:1043700080F844500020F0BD70B5044690F8450028
:10438000012834D0012584F84550022084F84400E7
:104390002068016841F0080101602068066828462D
:1043A000FFF730FD206806602068016841F00401D5
:1043B0000160206806680120FFF724FD2068066080
:1043C0002046FEF79FFE206800F58050816941F489
:1043D00000518161206800F58050816941F002013F
:1043E000816184F84450002084F8450070BD0220AB
:1043F00070BD70B5044690F84500012834D0012501
:1044000084F84550022084F84400206800F580506C
:10441000816921F400518161206800F58050816933
:1044200021F0020181612068016821F0040101602E
:10443000206806680120FFF7E5FC2068066020463A
:10444000FEF760FE2068016821F008010160206825
:1044500006680120FFF7D6FC2068066084F8445007
:10446000002084F8450070BD022070BDF0B590F8C2
:1044700045200023012A11D0012780F8457002222F
:1044800080F84420002559B1C66A3268002A0ADA49
:10449000122100F8441F45700120F0BD0220F0BD3C
:1044A00000F8447FF7E740F2F454A14209D9B1FB88
:1044B000F4F204FB121CBCF1000F00D0521C012AC4
:1044C00043D1326842F040523260C26AC1F30C01FB
:1044D0005160C16A0A6842F000420A60C16AC96854
:1044E000C16234E0D6F800C02CF0405CC6F800C0D1
:1044F00033B9C66AD6F800C04CF0805CC6F800C07C
:10450000C66A7460561EB34214D1C66AD6F800C09B
:104510004CF0005CC6F800C0C2F10106C6EBC6163E
:1045200006EB4606D0F82CC001EB8606C6F30C0657
:10453000CCF80460C66AD6F800C04CF0004CC6F84F
:1045400000C0C66A5B1CF668C6629342CAD30168A3
:1045500001F580514A69520705D504224A61016874
:1045600001F580514D6000F8447F45700020F0BD9A
:10457000F0B590F844400023422C25D0422480F826
:10458000444006683469058A04F01C074FF6FF743E
:1045900004EAC5253D434FF4F86707EA8111294332
:1045A00092B241F0030172610268116101685B1C03
:1045B0000A69D20701D0A342F9D30121A34280F8AE
:1045C000441003D10320F0BD0220F0BD0020F0BD57
:1045D000082802D1014805F029B97047EC510020A4
:1045E000044910B50A68024202D00860FFF7F0FFE4
:1045F00010BD0000143C01402DE9F04FDFF8B0E1A0
:1046000000224FF001094FF0030B4FF00F0A00BFDB
:104610000B6809FA02FC03EA0C03634570D14C688D
:10462000022C01D0122C11D15407D1F81080E50EC4
:1046300008FA05F8D40800EB8404276A0AFA05F69C
:10464000B7432762256A45EA0805256206685500D2
:104650000BFA05F4A64306604E68076806F00306E9
:10466000AE403E4306604E68012E05D0022E03D0B8
:10467000112E01D0122E13D18668A6438660CE6813
:104680008768AE403E438660466826EA0C06466070
:1046900047684E68C6F3001606FA02F637434760CD
:1046A000C668A643C6608C6804FA05F4C5682C4346
:1046B000C4604C68E40074D53E4C256845F48045E0
:1046C00025609407270F3C4C22F0030634440AFA75
:1046D00007F52668AE432660384DA84201D1002573
:1046E0002EE0374DA84201D1012529E0354DA842E1
:1046F00001D1022524E0344DA84202D103251FE058
:104700004FE0324DA84201D1042519E0304DA842B6
:1047100001D1052514E02F4DA84201D106250FE057
:104720002D4DA84201D107250AE02C4DA84201D108
:10473000082505E02A4DA84201D1092500E00A25F7
:10474000266805FA07F535432560DEF80040754612
:104750009C43CEF80040164C241D26689E432660DC
:104760004E68F60302D52E681E432E604D68AD03D9
:1047700002D525681D4325600D4C083425689D43EE
:104780002560251D2E689E432E604E68F60202D5D8
:1047900026681E4326604C68A40202D52C681C4380
:1047A0002C60521C102AFFF433AFBDE8F08F0000DC
:1047B000003C0140443802400838014000000240FB
:1047C0000004024000080240000C024000100240B9
:1047D0000014024000180240001C02400020024069
:1047E000002402400069084000D00120704742695F
:1047F0004A40426170470AB1018370474183704764
:1048000001480068704700001400002010B5040043
:1048100003D094F8350010B104E0012010BD20460B
:1048200000F0BEF9022084F835002068016821F00C
:104830000101016000F042FB30492268B0FBF1F158
:1048400051602F4A6368934206D94FF496735943D7
:104850004FF47A73B1FBF3F12368491C1962616864
:10486000914208D84900B0FBF1F0C0F30B010429D4
:1048700018D2042016E0A36893B301EBC10202EB47
:104880000112B0FBF2F242F4804212052FD043B382
:1048900001EBC10202EB0111B0FBF1F040F48040EA
:1048A00040F400402168C861D4E907010843216849
:1048B0000860D4E90310084321688860D4E9050141
:1048C00008432168C8602068016841F00101016067
:1048D000002084F83600012084F83500002010BD47
:1048E00000E006E001EB4102B0FBF2F2CDE701206F
:1048F000D8E701EB4101B0FBF1F0D1E740420F00F6
:10490000A08601002DE9F84F04460AA8B0E8600827
:1049100094F83500012878D1FDB1F6B1206880699E
:10492000C043800771D594F8340001286DD04FF052
:10493000010884F83480422084F83500002784F888
:1049400036702046CDF800B001F09CFA40B194F8E2
:10495000360084F83470042878D10120BDE8F88F3F
:10496000DFF854A1012E17D0DFF84C912068A9F18F
:104970003C09022E25D041698069032E68D8012E9A
:1049800016D0022E29D05B4600224946204601F06F
:1049900031FB00285AD139E02068016821F4806198
:1049A0000160206841698169016841F4007101601A
:1049B0005B4600225146204601F01CFB00286FD1C7
:1049C00013E0016821F4806101602068016841F40E
:1049D000006101602068416980695B4600224946A8
:1049E000204601F007FB88BB03E0206800692870BF
:1049F0004AE02068016841F40071016020680069A4
:104A000028702068006968703EE053E02068016803
:104A100021F4806101602068006905F8010B761EB1
:104A2000B6B25B4600224946204601F0E3FA68B977
:104A30002068016841F400710160206800692870F5
:104A4000206800696870AD1CB61E19E028E0FFE719
:104A50005B4600225146204601F0CCFA00BB20689C
:104A6000006905F8010B2068A6F10106B6B241699C
:104A70006FEA0101490704D4006905F8010B761EAD
:104A8000B6B2002E7FF479AF2068016821F400618E
:104A900001605B4601220949204601F0ABFA08B1EA
:104AA00003205BE704F1340484F8018027704FF0A1
:104AB000000053E7022051E740000100020010000F
:104AC0002DE9F84F0446DDE90A6590F83500DDF878
:104AD000309001285ED1FEB1F5B120688069C043F5
:104AE000800757D594F83400012853D04FF00108BF
:104AF00084F83480322084F83500002784F836703A
:104B00002046CDF8009001F02DFA40B194F836001F
:104B100084F83470042833D10120BDE8F88FDFF821
:104B200078A04B4600225146204601F063FA38BB7C
:104B3000216816F8010B08612068A5F10105ADB2E6
:104B400041696FEA0101490705D435B116F8011B27
:104B500001616D1EADB2002DE3D14B4600225146DE
:104B6000204601F047FA58B92068016841F4007105
:104B700001604B4601220949204601F03BFA08B189
:104B80000320CAE704F1340484F8018027704FF051
:104B90000000C2E70220C0E7800001000200100010
:104BA00030B5124885B0016841F002010160402033
:104BB0000090122001900120029002200424CDE9EF
:104BC00003040B4D69462846FFF716FD8020009030
:104BD000694604942846FFF70FFD04481030016829
:104BE00041F40011016005B030BD000030380240D2
:104BF0000004024002480168491C0160704700003F
:104C0000140000200C4810B5016841F400710160E7
:104C1000016841F480610160016841F480710160C4
:104C20004FF47A5000F080FB032000F035F800F0DC
:104C300005F8002010BD0000003C0240704700F065
:104C40001F020121914040094FF0E02202EB800059
:104C5000C0F8001170470000F0B40E4B1B680D4601
:104C6000C3F30223C3F10706042E00D90426191D3D
:104C7000072901D2002300E0DB1E012404FA06F11B
:104C8000491E294099409C40641E14402143F0BCB9
:104C900001F072BC0CED00E0064900F00702086864
:104CA0004FF6FF03184040EA0220034A1043086011
:104CB000704700000CED00E00000FA052DE9F04718
:104CC000DFF8B89105460E46D9F800006C4C00F0AC
:104CD00007016B48083406F0FF0841F28837B142FB
:104CE0004DD289F80080D9F8001001F00701B142D7
:104CF00078D12968890705D52168AA6821F0F001D3
:104D0000114321602968C90725D06968012913D09A
:104D10000068022913D08007002863DA206820F099
:104D2000030008432060FFF76BFDC619686801287F
:104D30000CD0022814D01DE000688003ECE780014D
:104D4000EAE700BFFFF75CFDB0425BD22068C0F32A
:104D500081000128F6D166E0FFF752FDB04251D242
:104D60002068C0F381000228F6D15CE0FFF748FD1F
:104D7000B04247D2206810F00C0FF7D153E02968F9
:104D8000890705D52168AA6821F0F0011143216047
:104D90002968C9073DD06968012913D00068022934
:104DA00013D0800700283CDA206820F00300084375
:104DB0002060FFF725FD0744686801280CD0022811
:104DC00016D022E000688003ECE78001EAE700BF2C
:104DD000FFF716FDB84215D22068C0F38100012804
:104DE000F6D116E01DE000BFFFF70AFDB84209D278
:104DF0002068C0F381000228F6D10AE0FFF700FD29
:104E0000B84202D30320BDE8F087206810F00C0FF1
:104E1000F4D189F80080D9F8000000F00700B04212
:104E200001D00120EFE72868400705D52068E96830
:104E300020F4E050084320602868000706D5206869
:104E4000296920F4604040EAC100206000F01CF8AD
:104E50004FF47A71B0FBF1F0B0F1807F0CD220F00A
:104E60007F414FF0E020491E4161064AF021117058
:104E700000218161072101610020C4E7003C02405C
:104E80000038024023ED00E000B500F043F8084987
:104E90000968F02292FAA2F201F0F001B2FA82F26D
:104EA000D140044A515CC8400349086000BD00007D
:104EB0000838024076D500080000002000B5FFF752
:104EC000E3FF074909684FF4E05292FAA2F201F4B5
:104ED000E051B2FA82F2D140024A515CC84000BDB2
:104EE0000838024076D5000800B5FFF7CDFF074926
:104EF00009684FF4604292FAA2F201F46041B2FAFA
:104F000082F2D140024A515CC84000BD08380240DC
:104F100076D5000830B51D48006810F00C011C481B
:104F20001AD01C4C042916D0082915D11749091F7D
:104F30000A6802F03F030A6802F480054FF4800219
:104F400092FAA2F2B2FA82F2D54047F6C07204D0C9
:104F5000B4FBF3F003E0204630BDB0FBF3F00B6888
:104F60000968134092FAA2F2B2FA82F2D34058438F
:104F70004FF4403292FAA2F201F44031B2FA82F2D6
:104F8000D140491C4900B0FBF1F030BD0838024067
:104F90000024F40040787D01F0B50D46184C16460B
:104FA0001749002302220327283C0028086885B0FF
:104FB00013D040F00400086048158DE88D00694664
:104FC00010480493FFF718FB206845EAC60120F05B
:104FD00078400843206005B0F0BD40F00100086053
:104FE0004FF480708DE88D00694607480493FFF701
:104FF00003FB2068354320F0EC602843EAE700001B
:105000003038024000080240000002402DE9F84F0D
:1050100004460068DFF8FC92BF4DC0074FF0000661
:1050200049D0D9F800104846C1F38101012908D0C0
:105030000068C0F3810002280AD1281D00684002E0
:1050400006D52868800336D56068012874D132E01F
:10505000DFF8C4A20AF1020A8AF80060FFF7D0FB69
:1050600041F2883700EB070804E000BFFFF7C8FBF8
:1050700040457BD228688003F8D460688AF8000035
:105080006068012803D0FFF7BBFB074410E0FFF77F
:10509000B7FB074404E000BFFFF7B2FBB842E8D219
:1050A00028688003F8D506E0FFF7AAFBB842E0D2F3
:1050B00028688003F8D42068984F80074FF0010BD0
:1050C00043D5D9F80010484611F00C0F09D00068FC
:1050D000C0F3810002280BD18E48001F00684002F7
:1050E00006D42868800730D5E0680128AED12CE0CE
:1050F000E068D8B1C7F800B0FFF782FB00F16408A0
:1051000004E000BFFFF77CFB4045B2D2286880076F
:10511000F8D52868F82292FAA2F22169B2FA82F24E
:1051200020F0F8009140084328600EE03E60FFF751
:1051300067FB00F1640805E0EAE000BFFFF760FBF1
:10514000404596D228688007F8D42068000727D504
:10515000DFF8C0A1724861690AF16C0A89B1C0F830
:1051600000B0FFF74DFB00F1640805E07EE000BFF2
:10517000FFF746FB404579D2DAF800008007F7D503
:105180000EE00660FFF73CFB00F1640804E000BF9E
:10519000FFF736FB404569D2DAF800008007F7D404
:1051A0002068400752D55B483830016841F0805193
:1051B0000160DFF870A1DAF8001041F48071CAF8DC
:1051C0000010FFF71DFB00F1640803E0FFF718FB78
:1051D00040454BD2DAF80000C005F7D5DFF834813E
:1051E00008F1680888F80060FFF70AFB41F2883A86
:1051F0005044009005E000BFFFF702FB0099884291
:105200007ED2D8F800008007F6D4A06888F80000A5
:10521000A068012803D0FFF7F3FA824412E0FFF7F9
:10522000EFFA824404E000BFFFF7EAFA504567D284
:10523000D8F800008007F7D508E000BFFFF7E0FAD4
:1052400050455DD2D8F800008007F7D4A069E8B3D4
:10525000D9F80010C1F38101022959D002283E6615
:1052600005D0FFF7CDFA00F164044CE048E0FFF709
:10527000C7FA00F1640603E0FFF7C2FAB0423FD27A
:1052800028688001F8D4D4E90710084347F6C072B3
:1052900092FAA2F2616AB2FA82F29140A26A4FF0E7
:1052A000FF3303EB52024FF4403393FAA3F3B3FA04
:1052B00083F39A40114308434FF0706292FAA2F2CE
:1052C000E16AB2FA82F29140084300E01EE040F049
:1052D00000511048001F0160C7F860B0FFF790FA56
:1052E00000F1640404E000BFFFF78AFAA04207D28D
:1052F00028688001F8D509E0FFF782FAA04202D3BE
:105300000320BDE8F88F28688001F5D40020F8E775
:105310000120F6E70838024000380240000047420A
:10532000800E47420070004010B5B0F1807F01D37D
:10533000012010BD20F07F404FF0E024401E60614E
:105340000F21601701F018F90020A06107202061EB
:10535000002010BD7047704710B5040003D094F8CA
:10536000390010B104E0012010BD204600F00CF817
:10537000022084F83900211D206802F0BDFB0120C5
:1053800084F83900002010BD70B505460068214C36
:10539000B0F1804F0BD1206840F001002060002266
:1053A00002211C20FFF758FC1C20FFF748FC1A497B
:1053B000286888420BD1206840F00200206001225A
:1053C00002211D20FFF748FC1D20FFF738FC134980
:1053D000286888420BD1206840F004002060022237
:1053E00011461E20FFF738FC1E20FFF728FC0C4951
:1053F000286888420DD1206840F008002060032210
:1054000002213220FFF728FCBDE870403220FFF770
:1054100016BC70BD40380240000400400008004047
:10542000000C00400168CA6842F00102CA600068CE
:10543000016841F001010160002070470168CA68FD
:1054400022F00102CA600068016A41F211121142A1
:1054500007D1016A9210114203D1016821F00101C4
:10546000016000207047704770B50446006801690C
:105470004FF00005C943890717D4C168C94389079C
:1054800013D4016921F00201016101202076206816
:1054900080698007204602D0FFF7E5FF04E000F0B6
:1054A000A0F8204600F09EF8257620680169C943DF
:1054B000490718D4C168C943490714D4016921F0C8
:1054C00004010161022020762068806910F4407F89
:1054D000204602D0FFF7C7FF04E000F082F8204624
:1054E00000F080F8257620680169C943090717D4C0
:1054F000C168C943090713D4016921F0080101619A
:1055000004202076206880698007204602D0FFF7BB
:10551000AAFF04E000F065F8204600F063F8257665
:1055200020680169C943C90618D4C168C943C906BE
:1055300014D4016921F0100101610820207620684F
:10554000806910F4407F204602D0FFF78CFF04E012
:1055500000F047F8204600F045F8257620680169FC
:10556000C943C9070AD1C168C943C90706D101693E
:1055700021F001010161204600F036F82068016940
:10558000C94309060AD4C168C943090606D401699A
:1055900021F0800101612046FFF7DCFE20680169EF
:1055A000C94349060AD4C168C943490606D40169FA
:1055B00021F040010161204600F032F920680169C4
:1055C000C94389060CD4C168C943890608D4016956
:1055D00021F0200101612046BDE87040FFF7BBBE0D
:1055E00070BD7047704700002DE9F05F0546006808
:1055F00000220124B0F1804F36D0664988427DD127
:10560000654BDFF898A1DFF898E11978DFF894B1DD
:10561000491C19709AF80010634B491CC9B28AF8EA
:105620000010BEF80060DFF884C1761C1FFA86F80F
:10563000AEF80080BBF800605D4F761CB6B2ABF8E8
:1056400000601C709CF80030B1465B1CDBB28CF82B
:1056500000303E780EB1761E3E701926B3FBF6F789
:1056600006FB173303B323E05248534B0178491C20
:10567000C9B201701C70CB0714D1504B1C7014239D
:10568000B1FBF3F503FB1513002B0BD14C4B1C7036
:105690003C23B1FBF3F503FB1511002902D1027085
:1056A00048480470BDE8F09F474B8CF800201C7000
:1056B0000323B1FBF3F703FB171323BB434B1C700E
:1056C0000A23B1FBF3F703FB1713E3B9404B1C703C
:1056D000B1FBF6F306FB1313ABB93E4B1C70322340
:1056E000B1FBF3F603FB16136BB93B4B1C70642341
:1056F000B1FBF3F603FB161129B900E015E03749B9
:105700000C708AF800203649097801EB8103B8EB68
:10571000430F03D1334B1C70AEF80020B9F5FA7F6C
:1057200003D1314B1C70ABF800203049884204D1C2
:105730002F48FFF783FE2F4804702F4928688842BE
:10574000B0D12E480088012803D12D4A1188491E66
:1057500011802C490988012903D12B4A1188491E3F
:105760001180032804D0042804D006280FD005E0B7
:10577000264900E026490888401E08802548008800
:1057800001288FD124490888401E08808AE72349D0
:10579000F1E70000000400404C020020DD01002081
:1057A000DE010020E0010020D8010020AA00002036
:1057B00013020020C4000020C8000020C700002001
:1057C000C6000020C500002012020020D9010020E0
:1057D00045010020DA010020DB010020DC0100206F
:1057E000D7010020D5010020D6010020000800408C
:1057F0003C5100204D020020000C00405C020020C3
:105800007602002088020020780200207A02002020
:105810007C0200208A020020800200207E020020FC
:105820007047704710B5044600680168C1F3000274
:10583000C16801F4807152B149B1016821F00101E0
:10584000016094F83A0040F0010084F83A002068C2
:1058500001684269C1F3400102F0010251B14AB14D
:10586000016821F00201016094F83A0040F0040060
:1058700084F83A00206801684269C1F3800102F0AF
:10588000010251B14AB1016821F00401016094F8AC
:105890003A0040F0020084F83A002068016842694A
:1058A000C1F3C00102F0010251B14AB1016821F017
:1058B0000801016094F83A0040F0080084F83A00CA
:1058C00020680168C068C1F3401100F0200041B1B8
:1058D00038B1204602F0D2F92068016821F0200199
:1058E000016020680168C068C1F3801100F04000C9
:1058F00041B138B1204602F0E3FA2068016821F096
:105900004001016094F83A00002805D0012084F895
:1059100039002046FFF785FF10BD10B5040003D005
:1059200094F8390010B104E0012010BD204600F0C9
:1059300023F8022084F839002068C16821F400515E
:10594000C160204602F000FA2068016921F490410C
:1059500001612068416921F02A0141612068C16824
:1059600041F40051C160002084F83A00012084F81D
:105970003900002010BD00002DE9F04F0646734CA1
:1059800000687149DFF8C4B1143C0225012785B0D5
:105990004FF007084FF48069884224D1206840F016
:1059A00001002060DBF8001041F01001CBF800107E
:1059B00060158DE8A100DFF898A1CDE9035869468C
:1059C0005046FEF719FE69465046CDF80090CDF8D6
:1059D0001080FEF711FE002203212520FFF73CF97D
:1059E0002520FFF72CF95B49DFF860A13068AAF1A8
:1059F000040A884224D1206840F002002060DAF8CE
:105A0000001041F48021CAF80010CDF80090CDE9D3
:105A10000157CDE9035869464F48FEF7EDFD4FF4B5
:105A2000006000906946CDF810804B48FEF7E4FD19
:105A3000012203212720FFF70FF92720FFF7FFF8A6
:105A4000464930684FF00808884226D1206840F067
:105A500004002060DAF8001041F40021CAF80010B8
:105A6000CDF80090CDE90157DFF8F490CDE9035867
:105A700069464846FEF7C0FD4FF400600090694655
:105A8000CDF810804846FEF7B7FD022203213420EE
:105A9000FFF7E2F83420FFF7D2F832493068884245
:105AA00027D1206840F004002060206840F0080002
:105AB0002060DAF8001041F48011CAF800104FF4A9
:105AC00080508DE8A100CDE9035869462448FEF7CF
:105AD00093FD042000906946CDF810802248FEF71F
